{
  "contractName": "NFTCollection",
  "abi": [
    {
      "inputs": [
        {
          "internalType": "string",
          "name": "baseURI",
          "type": "string"
        },
        {
          "internalType": "string",
          "name": "name",
          "type": "string"
        },
        {
          "internalType": "string",
          "name": "symbol",
          "type": "string"
        }
      ],
      "stateMutability": "nonpayable",
      "type": "constructor"
    },
    {
      "anonymous": false,
      "inputs": [
        {
          "indexed": true,
          "internalType": "address",
          "name": "owner",
          "type": "address"
        },
        {
          "indexed": true,
          "internalType": "address",
          "name": "approved",
          "type": "address"
        },
        {
          "indexed": true,
          "internalType": "uint256",
          "name": "tokenId",
          "type": "uint256"
        }
      ],
      "name": "Approval",
      "type": "event"
    },
    {
      "anonymous": false,
      "inputs": [
        {
          "indexed": true,
          "internalType": "address",
          "name": "owner",
          "type": "address"
        },
        {
          "indexed": true,
          "internalType": "address",
          "name": "operator",
          "type": "address"
        },
        {
          "indexed": false,
          "internalType": "bool",
          "name": "approved",
          "type": "bool"
        }
      ],
      "name": "ApprovalForAll",
      "type": "event"
    },
    {
      "anonymous": false,
      "inputs": [
        {
          "indexed": true,
          "internalType": "address",
          "name": "previousOwner",
          "type": "address"
        },
        {
          "indexed": true,
          "internalType": "address",
          "name": "newOwner",
          "type": "address"
        }
      ],
      "name": "OwnershipTransferred",
      "type": "event"
    },
    {
      "anonymous": false,
      "inputs": [
        {
          "indexed": true,
          "internalType": "address",
          "name": "from",
          "type": "address"
        },
        {
          "indexed": true,
          "internalType": "address",
          "name": "to",
          "type": "address"
        },
        {
          "indexed": true,
          "internalType": "uint256",
          "name": "tokenId",
          "type": "uint256"
        }
      ],
      "name": "Transfer",
      "type": "event"
    },
    {
      "inputs": [],
      "name": "MAX_PER_MINT",
      "outputs": [
        {
          "internalType": "uint256",
          "name": "",
          "type": "uint256"
        }
      ],
      "stateMutability": "view",
      "type": "function",
      "constant": true
    },
    {
      "inputs": [],
      "name": "MAX_SUPPLY",
      "outputs": [
        {
          "internalType": "uint256",
          "name": "",
          "type": "uint256"
        }
      ],
      "stateMutability": "view",
      "type": "function",
      "constant": true
    },
    {
      "inputs": [],
      "name": "PRICE",
      "outputs": [
        {
          "internalType": "uint256",
          "name": "",
          "type": "uint256"
        }
      ],
      "stateMutability": "view",
      "type": "function",
      "constant": true
    },
    {
      "inputs": [
        {
          "internalType": "address",
          "name": "to",
          "type": "address"
        },
        {
          "internalType": "uint256",
          "name": "tokenId",
          "type": "uint256"
        }
      ],
      "name": "approve",
      "outputs": [],
      "stateMutability": "nonpayable",
      "type": "function"
    },
    {
      "inputs": [
        {
          "internalType": "address",
          "name": "owner",
          "type": "address"
        }
      ],
      "name": "balanceOf",
      "outputs": [
        {
          "internalType": "uint256",
          "name": "",
          "type": "uint256"
        }
      ],
      "stateMutability": "view",
      "type": "function",
      "constant": true
    },
    {
      "inputs": [],
      "name": "baseTokenURI",
      "outputs": [
        {
          "internalType": "string",
          "name": "",
          "type": "string"
        }
      ],
      "stateMutability": "view",
      "type": "function",
      "constant": true
    },
    {
      "inputs": [
        {
          "internalType": "uint256",
          "name": "tokenId",
          "type": "uint256"
        }
      ],
      "name": "getApproved",
      "outputs": [
        {
          "internalType": "address",
          "name": "",
          "type": "address"
        }
      ],
      "stateMutability": "view",
      "type": "function",
      "constant": true
    },
    {
      "inputs": [
        {
          "internalType": "address",
          "name": "owner",
          "type": "address"
        },
        {
          "internalType": "address",
          "name": "operator",
          "type": "address"
        }
      ],
      "name": "isApprovedForAll",
      "outputs": [
        {
          "internalType": "bool",
          "name": "",
          "type": "bool"
        }
      ],
      "stateMutability": "view",
      "type": "function",
      "constant": true
    },
    {
      "inputs": [],
      "name": "name",
      "outputs": [
        {
          "internalType": "string",
          "name": "",
          "type": "string"
        }
      ],
      "stateMutability": "view",
      "type": "function",
      "constant": true
    },
    {
      "inputs": [],
      "name": "owner",
      "outputs": [
        {
          "internalType": "address",
          "name": "",
          "type": "address"
        }
      ],
      "stateMutability": "view",
      "type": "function",
      "constant": true
    },
    {
      "inputs": [
        {
          "internalType": "uint256",
          "name": "tokenId",
          "type": "uint256"
        }
      ],
      "name": "ownerOf",
      "outputs": [
        {
          "internalType": "address",
          "name": "",
          "type": "address"
        }
      ],
      "stateMutability": "view",
      "type": "function",
      "constant": true
    },
    {
      "inputs": [],
      "name": "renounceOwnership",
      "outputs": [],
      "stateMutability": "nonpayable",
      "type": "function"
    },
    {
      "inputs": [
        {
          "internalType": "address",
          "name": "from",
          "type": "address"
        },
        {
          "internalType": "address",
          "name": "to",
          "type": "address"
        },
        {
          "internalType": "uint256",
          "name": "tokenId",
          "type": "uint256"
        }
      ],
      "name": "safeTransferFrom",
      "outputs": [],
      "stateMutability": "nonpayable",
      "type": "function"
    },
    {
      "inputs": [
        {
          "internalType": "address",
          "name": "from",
          "type": "address"
        },
        {
          "internalType": "address",
          "name": "to",
          "type": "address"
        },
        {
          "internalType": "uint256",
          "name": "tokenId",
          "type": "uint256"
        },
        {
          "internalType": "bytes",
          "name": "data",
          "type": "bytes"
        }
      ],
      "name": "safeTransferFrom",
      "outputs": [],
      "stateMutability": "nonpayable",
      "type": "function"
    },
    {
      "inputs": [
        {
          "internalType": "address",
          "name": "operator",
          "type": "address"
        },
        {
          "internalType": "bool",
          "name": "approved",
          "type": "bool"
        }
      ],
      "name": "setApprovalForAll",
      "outputs": [],
      "stateMutability": "nonpayable",
      "type": "function"
    },
    {
      "inputs": [
        {
          "internalType": "bytes4",
          "name": "interfaceId",
          "type": "bytes4"
        }
      ],
      "name": "supportsInterface",
      "outputs": [
        {
          "internalType": "bool",
          "name": "",
          "type": "bool"
        }
      ],
      "stateMutability": "view",
      "type": "function",
      "constant": true
    },
    {
      "inputs": [],
      "name": "symbol",
      "outputs": [
        {
          "internalType": "string",
          "name": "",
          "type": "string"
        }
      ],
      "stateMutability": "view",
      "type": "function",
      "constant": true
    },
    {
      "inputs": [
        {
          "internalType": "uint256",
          "name": "index",
          "type": "uint256"
        }
      ],
      "name": "tokenByIndex",
      "outputs": [
        {
          "internalType": "uint256",
          "name": "",
          "type": "uint256"
        }
      ],
      "stateMutability": "view",
      "type": "function",
      "constant": true
    },
    {
      "inputs": [
        {
          "internalType": "address",
          "name": "owner",
          "type": "address"
        },
        {
          "internalType": "uint256",
          "name": "index",
          "type": "uint256"
        }
      ],
      "name": "tokenOfOwnerByIndex",
      "outputs": [
        {
          "internalType": "uint256",
          "name": "",
          "type": "uint256"
        }
      ],
      "stateMutability": "view",
      "type": "function",
      "constant": true
    },
    {
      "inputs": [
        {
          "internalType": "uint256",
          "name": "tokenId",
          "type": "uint256"
        }
      ],
      "name": "tokenURI",
      "outputs": [
        {
          "internalType": "string",
          "name": "",
          "type": "string"
        }
      ],
      "stateMutability": "view",
      "type": "function",
      "constant": true
    },
    {
      "inputs": [],
      "name": "totalSupply",
      "outputs": [
        {
          "internalType": "uint256",
          "name": "",
          "type": "uint256"
        }
      ],
      "stateMutability": "view",
      "type": "function",
      "constant": true
    },
    {
      "inputs": [
        {
          "internalType": "address",
          "name": "from",
          "type": "address"
        },
        {
          "internalType": "address",
          "name": "to",
          "type": "address"
        },
        {
          "internalType": "uint256",
          "name": "tokenId",
          "type": "uint256"
        }
      ],
      "name": "transferFrom",
      "outputs": [],
      "stateMutability": "nonpayable",
      "type": "function"
    },
    {
      "inputs": [
        {
          "internalType": "address",
          "name": "newOwner",
          "type": "address"
        }
      ],
      "name": "transferOwnership",
      "outputs": [],
      "stateMutability": "nonpayable",
      "type": "function"
    },
    {
      "inputs": [],
      "name": "getBaseURI",
      "outputs": [
        {
          "internalType": "string",
          "name": "",
          "type": "string"
        }
      ],
      "stateMutability": "view",
      "type": "function",
      "constant": true
    },
    {
      "inputs": [
        {
          "internalType": "string",
          "name": "_baseTokenURI",
          "type": "string"
        }
      ],
      "name": "setBaseURI",
      "outputs": [],
      "stateMutability": "nonpayable",
      "type": "function"
    },
    {
      "inputs": [
        {
          "internalType": "uint256",
          "name": "_count",
          "type": "uint256"
        }
      ],
      "name": "mintNFTs",
      "outputs": [],
      "stateMutability": "payable",
      "type": "function",
      "payable": true
    },
    {
      "inputs": [
        {
          "internalType": "address",
          "name": "_owner",
          "type": "address"
        }
      ],
      "name": "tokensOfOwner",
      "outputs": [
        {
          "internalType": "uint256[]",
          "name": "",
          "type": "uint256[]"
        }
      ],
      "stateMutability": "view",
      "type": "function",
      "constant": true
    },
    {
      "inputs": [],
      "name": "withdraw",
      "outputs": [],
      "stateMutability": "payable",
      "type": "function",
      "payable": true
    },
    {
      "inputs": [
        {
          "internalType": "uint256",
          "name": "_count",
          "type": "uint256"
        }
      ],
      "name": "reserveNFTs",
      "outputs": [],
      "stateMutability": "nonpayable",
      "type": "function"
    }
  ],
  "bytecode": "0x60806040523480156200001157600080fd5b5060405162004806380380620048068339818101604052810190620000379190620004a9565b81818160009080519060200190620000519291906200025c565b5080600190805190602001906200006a9291906200025c565b5050506200008d62000081620000a760201b60201c565b620000af60201b60201c565b6200009e836200017560201b60201c565b50505062000649565b600033905090565b6000600a60009054906101000a900473ffffffffffffffffffffffffffffffffffffffff16905081600a60006101000a81548173ffffffffffffffffffffffffffffffffffffffff021916908373ffffffffffffffffffffffffffffffffffffffff1602179055508173ffffffffffffffffffffffffffffffffffffffff168173ffffffffffffffffffffffffffffffffffffffff167f8be0079c531659141344cd1fd0a4f28419497f9722a3daafe3b4186f6b6457e060405160405180910390a35050565b62000185620001a160201b60201c565b80600c90805190602001906200019d9291906200025c565b5050565b620001b1620000a760201b60201c565b73ffffffffffffffffffffffffffffffffffffffff16620001d76200023260201b60201c565b73ffffffffffffffffffffffffffffffffffffffff161462000230576040517f08c379a00000000000000000000000000000000000000000000000000000000081526004016200022790620005c3565b60405180910390fd5b565b6000600a60009054906101000a900473ffffffffffffffffffffffffffffffffffffffff16905090565b8280546200026a9062000614565b90600052602060002090601f0160209004810192826200028e5760008555620002da565b82601f10620002a957805160ff1916838001178555620002da565b82800160010185558215620002da579182015b82811115620002d9578251825591602001919060010190620002bc565b5b509050620002e99190620002ed565b5090565b5b8082111562000308576000816000905550600101620002ee565b5090565b6000604051905090565b600080fd5b600080fd5b600080fd5b600080fd5b6000601f19601f8301169050919050565b7f4e487b7100000000000000000000000000000000000000000000000000000000600052604160045260246000fd5b62000375826200032a565b810181811067ffffffffffffffff821117156200039757620003966200033b565b5b80604052505050565b6000620003ac6200030c565b9050620003ba82826200036a565b919050565b600067ffffffffffffffff821115620003dd57620003dc6200033b565b5b620003e8826200032a565b9050602081019050919050565b60005b8381101562000415578082015181840152602081019050620003f8565b8381111562000425576000848401525b50505050565b6000620004426200043c84620003bf565b620003a0565b90508281526020810184848401111562000461576200046062000325565b5b6200046e848285620003f5565b509392505050565b600082601f8301126200048e576200048d62000320565b5b8151620004a08482602086016200042b565b91505092915050565b600080600060608486031215620004c557620004c462000316565b5b600084015167ffffffffffffffff811115620004e657620004e56200031b565b5b620004f48682870162000476565b935050602084015167ffffffffffffffff8111156200051857620005176200031b565b5b620005268682870162000476565b925050604084015167ffffffffffffffff8111156200054a57620005496200031b565b5b620005588682870162000476565b9150509250925092565b600082825260208201905092915050565b7f4f776e61626c653a2063616c6c6572206973206e6f7420746865206f776e6572600082015250565b6000620005ab60208362000562565b9150620005b88262000573565b602082019050919050565b60006020820190508181036000830152620005de816200059c565b9050919050565b7f4e487b7100000000000000000000000000000000000000000000000000000000600052602260045260246000fd5b600060028204905060018216806200062d57607f821691505b602082108103620006435762000642620005e5565b5b50919050565b6141ad80620006596000396000f3fe6080604052600436106101c25760003560e01c80636352211e116100f757806395d89b4111610095578063c87b56dd11610064578063c87b56dd14610626578063d547cfb714610663578063e985e9c51461068e578063f2fde38b146106cb576101c2565b806395d89b4114610580578063a22cb465146105ab578063b88d4fde146105d4578063bc7df091146105fd576101c2565b8063715018a6116100d1578063715018a6146104d65780638462151c146104ed5780638d859f3e1461052a5780638da5cb5b14610555576101c2565b80636352211e1461043157806370a082311461046e578063714c5398146104ab576101c2565b80632f745c59116101645780633ccfd60b1161013e5780633ccfd60b1461039857806342842e0e146103a25780634f6ccce7146103cb57806355f804b314610408576101c2565b80632f745c591461031457806332cb6b0c146103515780633b4b13811461037c576101c2565b8063095ea7b3116101a0578063095ea7b31461026c57806309d42b301461029557806318160ddd146102c057806323b872dd146102eb576101c2565b806301ffc9a7146101c757806306fdde0314610204578063081812fc1461022f575b600080fd5b3480156101d357600080fd5b506101ee60048036038101906101e99190612b4f565b6106f4565b6040516101fb9190612b97565b60405180910390f35b34801561021057600080fd5b5061021961076e565b6040516102269190612c4b565b60405180910390f35b34801561023b57600080fd5b5061025660048036038101906102519190612ca3565b610800565b6040516102639190612d11565b60405180910390f35b34801561027857600080fd5b50610293600480360381019061028e9190612d58565b610846565b005b3480156102a157600080fd5b506102aa61095d565b6040516102b79190612da7565b60405180910390f35b3480156102cc57600080fd5b506102d5610962565b6040516102e29190612da7565b60405180910390f35b3480156102f757600080fd5b50610312600480360381019061030d9190612dc2565b61096f565b005b34801561032057600080fd5b5061033b60048036038101906103369190612d58565b6109cf565b6040516103489190612da7565b60405180910390f35b34801561035d57600080fd5b50610366610a74565b6040516103739190612da7565b60405180910390f35b61039660048036038101906103919190612ca3565b610a79565b005b6103a0610bb3565b005b3480156103ae57600080fd5b506103c960048036038101906103c49190612dc2565b610cb3565b005b3480156103d757600080fd5b506103f260048036038101906103ed9190612ca3565b610cd3565b6040516103ff9190612da7565b60405180910390f35b34801561041457600080fd5b5061042f600480360381019061042a9190612f4a565b610d44565b005b34801561043d57600080fd5b5061045860048036038101906104539190612ca3565b610d66565b6040516104659190612d11565b60405180910390f35b34801561047a57600080fd5b5061049560048036038101906104909190612f93565b610dec565b6040516104a29190612da7565b60405180910390f35b3480156104b757600080fd5b506104c0610ea3565b6040516104cd9190612c4b565b60405180910390f35b3480156104e257600080fd5b506104eb610f35565b005b3480156104f957600080fd5b50610514600480360381019061050f9190612f93565b610f49565b604051610521919061307e565b60405180910390f35b34801561053657600080fd5b5061053f610ff7565b60405161054c9190612da7565b60405180910390f35b34801561056157600080fd5b5061056a611001565b6040516105779190612d11565b60405180910390f35b34801561058c57600080fd5b5061059561102b565b6040516105a29190612c4b565b60405180910390f35b3480156105b757600080fd5b506105d260048036038101906105cd91906130cc565b6110bd565b005b3480156105e057600080fd5b506105fb60048036038101906105f691906131ad565b6110d3565b005b34801561060957600080fd5b50610624600480360381019061061f9190612ca3565b611135565b005b34801561063257600080fd5b5061064d60048036038101906106489190612ca3565b6111cb565b60405161065a9190612c4b565b60405180910390f35b34801561066f57600080fd5b50610678611233565b6040516106859190612c4b565b60405180910390f35b34801561069a57600080fd5b506106b560048036038101906106b09190613230565b6112c1565b6040516106c29190612b97565b60405180910390f35b3480156106d757600080fd5b506106f260048036038101906106ed9190612f93565b611355565b005b60007f780e9d63000000000000000000000000000000000000000000000000000000007bffffffffffffffffffffffffffffffffffffffffffffffffffffffff1916827bffffffffffffffffffffffffffffffffffffffffffffffffffffffff191614806107675750610766826113d8565b5b9050919050565b60606000805461077d9061329f565b80601f01602080910402602001604051908101604052809291908181526020018280546107a99061329f565b80156107f65780601f106107cb576101008083540402835291602001916107f6565b820191906000526020600020905b8154815290600101906020018083116107d957829003601f168201915b5050505050905090565b600061080b826114ba565b6004600083815260200190815260200160002060009054906101000a900473ffffffffffffffffffffffffffffffffffffffff169050919050565b600061085182610d66565b90508073ffffffffffffffffffffffffffffffffffffffff168373ffffffffffffffffffffffffffffffffffffffff16036108c1576040517f08c379a00000000000000000000000000000000000000000000000000000000081526004016108b890613342565b60405180910390fd5b8073ffffffffffffffffffffffffffffffffffffffff166108e0611505565b73ffffffffffffffffffffffffffffffffffffffff16148061090f575061090e81610909611505565b6112c1565b5b61094e576040517f08c379a0000000000000000000000000000000000000000000000000000000008152600401610945906133d4565b60405180910390fd5b610958838361150d565b505050565b600581565b6000600880549050905090565b61098061097a611505565b826115c6565b6109bf576040517f08c379a00000000000000000000000000000000000000000000000000000000081526004016109b690613466565b60405180910390fd5b6109ca83838361165b565b505050565b60006109da83610dec565b8210610a1b576040517f08c379a0000000000000000000000000000000000000000000000000000000008152600401610a12906134f8565b60405180910390fd5b600660008473ffffffffffffffffffffffffffffffffffffffff1673ffffffffffffffffffffffffffffffffffffffff168152602001908152602001600020600083815260200190815260200160002054905092915050565b600a81565b6000610a85600b611954565b9050600a610a9c838361196290919063ffffffff16565b1115610add576040517f08c379a0000000000000000000000000000000000000000000000000000000008152600401610ad490613564565b60405180910390fd5b600082118015610aee575060058211155b610b2d576040517f08c379a0000000000000000000000000000000000000000000000000000000008152600401610b24906135f6565b60405180910390fd5b610b46826509184e72a00061197890919063ffffffff16565b341015610b88576040517f08c379a0000000000000000000000000000000000000000000000000000000008152600401610b7f90613688565b60405180910390fd5b60005b82811015610bae57610b9b61198e565b8080610ba6906136d7565b915050610b8b565b505050565b610bbb6119b3565b600047905060008111610c03576040517f08c379a0000000000000000000000000000000000000000000000000000000008152600401610bfa9061376b565b60405180910390fd5b60003373ffffffffffffffffffffffffffffffffffffffff1682604051610c29906137bc565b60006040518083038185875af1925050503d8060008114610c66576040519150601f19603f3d011682016040523d82523d6000602084013e610c6b565b606091505b5050905080610caf576040517f08c379a0000000000000000000000000000000000000000000000000000000008152600401610ca69061381d565b60405180910390fd5b5050565b610cce838383604051806020016040528060008152506110d3565b505050565b6000610cdd610962565b8210610d1e576040517f08c379a0000000000000000000000000000000000000000000000000000000008152600401610d15906138af565b60405180910390fd5b60088281548110610d3257610d316138cf565b5b90600052602060002001549050919050565b610d4c6119b3565b80600c9080519060200190610d62929190612a40565b5050565b600080610d7283611a31565b9050600073ffffffffffffffffffffffffffffffffffffffff168173ffffffffffffffffffffffffffffffffffffffff1603610de3576040517f08c379a0000000000000000000000000000000000000000000000000000000008152600401610dda9061394a565b60405180910390fd5b80915050919050565b60008073ffffffffffffffffffffffffffffffffffffffff168273ffffffffffffffffffffffffffffffffffffffff1603610e5c576040517f08c379a0000000000000000000000000000000000000000000000000000000008152600401610e53906139dc565b60405180910390fd5b600360008373ffffffffffffffffffffffffffffffffffffffff1673ffffffffffffffffffffffffffffffffffffffff168152602001908152602001600020549050919050565b6060600c8054610eb29061329f565b80601f0160208091040260200160405190810160405280929190818152602001828054610ede9061329f565b8015610f2b5780601f10610f0057610100808354040283529160200191610f2b565b820191906000526020600020905b815481529060010190602001808311610f0e57829003601f168201915b5050505050905090565b610f3d6119b3565b610f476000611a6e565b565b60606000610f5683610dec565b905060008167ffffffffffffffff811115610f7457610f73612e1f565b5b604051908082528060200260200182016040528015610fa25781602001602082028036833780820191505090505b50905060005b82811015610fec57610fba85826109cf565b828281518110610fcd57610fcc6138cf565b5b6020026020010181815250508080610fe4906136d7565b915050610fa8565b508092505050919050565b6509184e72a00081565b6000600a60009054906101000a900473ffffffffffffffffffffffffffffffffffffffff16905090565b60606001805461103a9061329f565b80601f01602080910402602001604051908101604052809291908181526020018280546110669061329f565b80156110b35780601f10611088576101008083540402835291602001916110b3565b820191906000526020600020905b81548152906001019060200180831161109657829003601f168201915b5050505050905090565b6110cf6110c8611505565b8383611b34565b5050565b6110e46110de611505565b836115c6565b611123576040517f08c379a000000000000000000000000000000000000000000000000000000000815260040161111a90613466565b60405180910390fd5b61112f84848484611ca0565b50505050565b61113d6119b3565b6000611149600b611954565b9050600a611160838361196290919063ffffffff16565b106111a0576040517f08c379a000000000000000000000000000000000000000000000000000000000815260040161119790613a48565b60405180910390fd5b60005b828110156111c6576111b361198e565b80806111be906136d7565b9150506111a3565b505050565b60606111d6826114ba565b60006111e0611cfc565b90506000815111611200576040518060200160405280600081525061122b565b8061120a84611d8e565b60405160200161121b929190613aa4565b6040516020818303038152906040525b915050919050565b600c80546112409061329f565b80601f016020809104026020016040519081016040528092919081815260200182805461126c9061329f565b80156112b95780601f1061128e576101008083540402835291602001916112b9565b820191906000526020600020905b81548152906001019060200180831161129c57829003601f168201915b505050505081565b6000600560008473ffffffffffffffffffffffffffffffffffffffff1673ffffffffffffffffffffffffffffffffffffffff16815260200190815260200160002060008373ffffffffffffffffffffffffffffffffffffffff1673ffffffffffffffffffffffffffffffffffffffff16815260200190815260200160002060009054906101000a900460ff16905092915050565b61135d6119b3565b600073ffffffffffffffffffffffffffffffffffffffff168173ffffffffffffffffffffffffffffffffffffffff16036113cc576040517f08c379a00000000000000000000000000000000000000000000000000000000081526004016113c390613b3a565b60405180910390fd5b6113d581611a6e565b50565b60007f80ac58cd000000000000000000000000000000000000000000000000000000007bffffffffffffffffffffffffffffffffffffffffffffffffffffffff1916827bffffffffffffffffffffffffffffffffffffffffffffffffffffffff191614806114a357507f5b5e139f000000000000000000000000000000000000000000000000000000007bffffffffffffffffffffffffffffffffffffffffffffffffffffffff1916827bffffffffffffffffffffffffffffffffffffffffffffffffffffffff1916145b806114b357506114b282611e5c565b5b9050919050565b6114c381611ec6565b611502576040517f08c379a00000000000000000000000000000000000000000000000000000000081526004016114f99061394a565b60405180910390fd5b50565b600033905090565b816004600083815260200190815260200160002060006101000a81548173ffffffffffffffffffffffffffffffffffffffff021916908373ffffffffffffffffffffffffffffffffffffffff160217905550808273ffffffffffffffffffffffffffffffffffffffff1661158083610d66565b73ffffffffffffffffffffffffffffffffffffffff167f8c5be1e5ebec7d5bd14f71427d1e84f3dd0314c0f7b2291e5b200ac8c7c3b92560405160405180910390a45050565b6000806115d283610d66565b90508073ffffffffffffffffffffffffffffffffffffffff168473ffffffffffffffffffffffffffffffffffffffff161480611614575061161381856112c1565b5b8061165257508373ffffffffffffffffffffffffffffffffffffffff1661163a84610800565b73ffffffffffffffffffffffffffffffffffffffff16145b91505092915050565b8273ffffffffffffffffffffffffffffffffffffffff1661167b82610d66565b73ffffffffffffffffffffffffffffffffffffffff16146116d1576040517f08c379a00000000000000000000000000000000000000000000000000000000081526004016116c890613bcc565b60405180910390fd5b600073ffffffffffffffffffffffffffffffffffffffff168273ffffffffffffffffffffffffffffffffffffffff1603611740576040517f08c379a000000000000000000000000000000000000000000000000000000000815260040161173790613c5e565b60405180910390fd5b61174d8383836001611f07565b8273ffffffffffffffffffffffffffffffffffffffff1661176d82610d66565b73ffffffffffffffffffffffffffffffffffffffff16146117c3576040517f08c379a00000000000000000000000000000000000000000000000000000000081526004016117ba90613bcc565b60405180910390fd5b6004600082815260200190815260200160002060006101000a81549073ffffffffffffffffffffffffffffffffffffffff02191690556001600360008573ffffffffffffffffffffffffffffffffffffffff1673ffffffffffffffffffffffffffffffffffffffff168152602001908152602001600020600082825403925050819055506001600360008473ffffffffffffffffffffffffffffffffffffffff1673ffffffffffffffffffffffffffffffffffffffff16815260200190815260200160002060008282540192505081905550816002600083815260200190815260200160002060006101000a81548173ffffffffffffffffffffffffffffffffffffffff021916908373ffffffffffffffffffffffffffffffffffffffff160217905550808273ffffffffffffffffffffffffffffffffffffffff168473ffffffffffffffffffffffffffffffffffffffff167fddf252ad1be2c89b69c2b068fc378daa952ba7f163c4a11628f55a4df523b3ef60405160405180910390a461194f8383836001612065565b505050565b600081600001549050919050565b600081836119709190613c7e565b905092915050565b600081836119869190613cd4565b905092915050565b600061199a600b611954565b90506119a6338261206b565b6119b0600b612089565b50565b6119bb611505565b73ffffffffffffffffffffffffffffffffffffffff166119d9611001565b73ffffffffffffffffffffffffffffffffffffffff1614611a2f576040517f08c379a0000000000000000000000000000000000000000000000000000000008152600401611a2690613d7a565b60405180910390fd5b565b60006002600083815260200190815260200160002060009054906101000a900473ffffffffffffffffffffffffffffffffffffffff169050919050565b6000600a60009054906101000a900473ffffffffffffffffffffffffffffffffffffffff16905081600a60006101000a81548173ffffffffffffffffffffffffffffffffffffffff021916908373ffffffffffffffffffffffffffffffffffffffff1602179055508173ffffffffffffffffffffffffffffffffffffffff168173ffffffffffffffffffffffffffffffffffffffff167f8be0079c531659141344cd1fd0a4f28419497f9722a3daafe3b4186f6b6457e060405160405180910390a35050565b8173ffffffffffffffffffffffffffffffffffffffff168373ffffffffffffffffffffffffffffffffffffffff1603611ba2576040517f08c379a0000000000000000000000000000000000000000000000000000000008152600401611b9990613de6565b60405180910390fd5b80600560008573ffffffffffffffffffffffffffffffffffffffff1673ffffffffffffffffffffffffffffffffffffffff16815260200190815260200160002060008473ffffffffffffffffffffffffffffffffffffffff1673ffffffffffffffffffffffffffffffffffffffff16815260200190815260200160002060006101000a81548160ff0219169083151502179055508173ffffffffffffffffffffffffffffffffffffffff168373ffffffffffffffffffffffffffffffffffffffff167f17307eab39ab6107e8899845ad3d59bd9653f200f220920489ca2b5937696c3183604051611c939190612b97565b60405180910390a3505050565b611cab84848461165b565b611cb78484848461209f565b611cf6576040517f08c379a0000000000000000000000000000000000000000000000000000000008152600401611ced90613e78565b60405180910390fd5b50505050565b6060600c8054611d0b9061329f565b80601f0160208091040260200160405190810160405280929190818152602001828054611d379061329f565b8015611d845780601f10611d5957610100808354040283529160200191611d84565b820191906000526020600020905b815481529060010190602001808311611d6757829003601f168201915b5050505050905090565b606060006001611d9d84612226565b01905060008167ffffffffffffffff811115611dbc57611dbb612e1f565b5b6040519080825280601f01601f191660200182016040528015611dee5781602001600182028036833780820191505090505b509050600082602001820190505b600115611e51578080600190039150507f3031323334353637383961626364656600000000000000000000000000000000600a86061a8153600a8581611e4557611e44613e98565b5b04945060008503611dfc575b819350505050919050565b60007f01ffc9a7000000000000000000000000000000000000000000000000000000007bffffffffffffffffffffffffffffffffffffffffffffffffffffffff1916827bffffffffffffffffffffffffffffffffffffffffffffffffffffffff1916149050919050565b60008073ffffffffffffffffffffffffffffffffffffffff16611ee883611a31565b73ffffffffffffffffffffffffffffffffffffffff1614159050919050565b611f1384848484612379565b6001811115611f57576040517f08c379a0000000000000000000000000000000000000000000000000000000008152600401611f4e90613f39565b60405180910390fd5b6000829050600073ffffffffffffffffffffffffffffffffffffffff168573ffffffffffffffffffffffffffffffffffffffff1603611f9e57611f998161249f565b611fdd565b8373ffffffffffffffffffffffffffffffffffffffff168573ffffffffffffffffffffffffffffffffffffffff1614611fdc57611fdb85826124e8565b5b5b600073ffffffffffffffffffffffffffffffffffffffff168473ffffffffffffffffffffffffffffffffffffffff160361201f5761201a81612655565b61205e565b8473ffffffffffffffffffffffffffffffffffffffff168473ffffffffffffffffffffffffffffffffffffffff161461205d5761205c8482612726565b5b5b5050505050565b50505050565b6120858282604051806020016040528060008152506127a5565b5050565b6001816000016000828254019250508190555050565b60006120c08473ffffffffffffffffffffffffffffffffffffffff16612800565b15612219578373ffffffffffffffffffffffffffffffffffffffff1663150b7a026120e9611505565b8786866040518563ffffffff1660e01b815260040161210b9493929190613fae565b6020604051808303816000875af192505050801561214757506040513d601f19601f82011682018060405250810190612144919061400f565b60015b6121c9573d8060008114612177576040519150601f19603f3d011682016040523d82523d6000602084013e61217c565b606091505b5060008151036121c1576040517f08c379a00000000000000000000000000000000000000000000000000000000081526004016121b890613e78565b60405180910390fd5b805181602001fd5b63150b7a0260e01b7bffffffffffffffffffffffffffffffffffffffffffffffffffffffff1916817bffffffffffffffffffffffffffffffffffffffffffffffffffffffff19161491505061221e565b600190505b949350505050565b600080600090507a184f03e93ff9f4daa797ed6e38ed64bf6a1f0100000000000000008310612284577a184f03e93ff9f4daa797ed6e38ed64bf6a1f010000000000000000838161227a57612279613e98565b5b0492506040810190505b6d04ee2d6d415b85acef810000000083106122c1576d04ee2d6d415b85acef810000000083816122b7576122b6613e98565b5b0492506020810190505b662386f26fc1000083106122f057662386f26fc1000083816122e6576122e5613e98565b5b0492506010810190505b6305f5e1008310612319576305f5e100838161230f5761230e613e98565b5b0492506008810190505b612710831061233e57612710838161233457612333613e98565b5b0492506004810190505b60648310612361576064838161235757612356613e98565b5b0492506002810190505b600a8310612370576001810190505b80915050919050565b600181111561249957600073ffffffffffffffffffffffffffffffffffffffff168473ffffffffffffffffffffffffffffffffffffffff161461240d5780600360008673ffffffffffffffffffffffffffffffffffffffff1673ffffffffffffffffffffffffffffffffffffffff1681526020019081526020016000206000828254612405919061403c565b925050819055505b600073ffffffffffffffffffffffffffffffffffffffff168373ffffffffffffffffffffffffffffffffffffffff16146124985780600360008573ffffffffffffffffffffffffffffffffffffffff1673ffffffffffffffffffffffffffffffffffffffff16815260200190815260200160002060008282546124909190613c7e565b925050819055505b5b50505050565b6008805490506009600083815260200190815260200160002081905550600881908060018154018082558091505060019003906000526020600020016000909190919091505550565b600060016124f584610dec565b6124ff919061403c565b90506000600760008481526020019081526020016000205490508181146125e4576000600660008673ffffffffffffffffffffffffffffffffffffffff1673ffffffffffffffffffffffffffffffffffffffff168152602001908152602001600020600084815260200190815260200160002054905080600660008773ffffffffffffffffffffffffffffffffffffffff1673ffffffffffffffffffffffffffffffffffffffff168152602001908152602001600020600084815260200190815260200160002081905550816007600083815260200190815260200160002081905550505b6007600084815260200190815260200160002060009055600660008573ffffffffffffffffffffffffffffffffffffffff1673ffffffffffffffffffffffffffffffffffffffff16815260200190815260200160002060008381526020019081526020016000206000905550505050565b60006001600880549050612669919061403c565b9050600060096000848152602001908152602001600020549050600060088381548110612699576126986138cf565b5b9060005260206000200154905080600883815481106126bb576126ba6138cf565b5b90600052602060002001819055508160096000838152602001908152602001600020819055506009600085815260200190815260200160002060009055600880548061270a57612709614070565b5b6001900381819060005260206000200160009055905550505050565b600061273183610dec565b905081600660008573ffffffffffffffffffffffffffffffffffffffff1673ffffffffffffffffffffffffffffffffffffffff168152602001908152602001600020600083815260200190815260200160002081905550806007600084815260200190815260200160002081905550505050565b6127af8383612823565b6127bc600084848461209f565b6127fb576040517f08c379a00000000000000000000000000000000000000000000000000000000081526004016127f290613e78565b60405180910390fd5b505050565b6000808273ffffffffffffffffffffffffffffffffffffffff163b119050919050565b600073ffffffffffffffffffffffffffffffffffffffff168273ffffffffffffffffffffffffffffffffffffffff1603612892576040517f08c379a0000000000000000000000000000000000000000000000000000000008152600401612889906140eb565b60405180910390fd5b61289b81611ec6565b156128db576040517f08c379a00000000000000000000000000000000000000000000000000000000081526004016128d290614157565b60405180910390fd5b6128e9600083836001611f07565b6128f281611ec6565b15612932576040517f08c379a000000000000000000000000000000000000000000000000000000000815260040161292990614157565b60405180910390fd5b6001600360008473ffffffffffffffffffffffffffffffffffffffff1673ffffffffffffffffffffffffffffffffffffffff16815260200190815260200160002060008282540192505081905550816002600083815260200190815260200160002060006101000a81548173ffffffffffffffffffffffffffffffffffffffff021916908373ffffffffffffffffffffffffffffffffffffffff160217905550808273ffffffffffffffffffffffffffffffffffffffff16600073ffffffffffffffffffffffffffffffffffffffff167fddf252ad1be2c89b69c2b068fc378daa952ba7f163c4a11628f55a4df523b3ef60405160405180910390a4612a3c600083836001612065565b5050565b828054612a4c9061329f565b90600052602060002090601f016020900481019282612a6e5760008555612ab5565b82601f10612a8757805160ff1916838001178555612ab5565b82800160010185558215612ab5579182015b82811115612ab4578251825591602001919060010190612a99565b5b509050612ac29190612ac6565b5090565b5b80821115612adf576000816000905550600101612ac7565b5090565b6000604051905090565b600080fd5b600080fd5b60007fffffffff0000000000000000000000000000000000000000000000000000000082169050919050565b612b2c81612af7565b8114612b3757600080fd5b50565b600081359050612b4981612b23565b92915050565b600060208284031215612b6557612b64612aed565b5b6000612b7384828501612b3a565b91505092915050565b60008115159050919050565b612b9181612b7c565b82525050565b6000602082019050612bac6000830184612b88565b92915050565b600081519050919050565b600082825260208201905092915050565b60005b83811015612bec578082015181840152602081019050612bd1565b83811115612bfb576000848401525b50505050565b6000601f19601f8301169050919050565b6000612c1d82612bb2565b612c278185612bbd565b9350612c37818560208601612bce565b612c4081612c01565b840191505092915050565b60006020820190508181036000830152612c658184612c12565b905092915050565b6000819050919050565b612c8081612c6d565b8114612c8b57600080fd5b50565b600081359050612c9d81612c77565b92915050565b600060208284031215612cb957612cb8612aed565b5b6000612cc784828501612c8e565b91505092915050565b600073ffffffffffffffffffffffffffffffffffffffff82169050919050565b6000612cfb82612cd0565b9050919050565b612d0b81612cf0565b82525050565b6000602082019050612d266000830184612d02565b92915050565b612d3581612cf0565b8114612d4057600080fd5b50565b600081359050612d5281612d2c565b92915050565b60008060408385031215612d6f57612d6e612aed565b5b6000612d7d85828601612d43565b9250506020612d8e85828601612c8e565b9150509250929050565b612da181612c6d565b82525050565b6000602082019050612dbc6000830184612d98565b92915050565b600080600060608486031215612ddb57612dda612aed565b5b6000612de986828701612d43565b9350506020612dfa86828701612d43565b9250506040612e0b86828701612c8e565b9150509250925092565b600080fd5b600080fd5b7f4e487b7100000000000000000000000000000000000000000000000000000000600052604160045260246000fd5b612e5782612c01565b810181811067ffffffffffffffff82111715612e7657612e75612e1f565b5b80604052505050565b6000612e89612ae3565b9050612e958282612e4e565b919050565b600067ffffffffffffffff821115612eb557612eb4612e1f565b5b612ebe82612c01565b9050602081019050919050565b82818337600083830152505050565b6000612eed612ee884612e9a565b612e7f565b905082815260208101848484011115612f0957612f08612e1a565b5b612f14848285612ecb565b509392505050565b600082601f830112612f3157612f30612e15565b5b8135612f41848260208601612eda565b91505092915050565b600060208284031215612f6057612f5f612aed565b5b600082013567ffffffffffffffff811115612f7e57612f7d612af2565b5b612f8a84828501612f1c565b91505092915050565b600060208284031215612fa957612fa8612aed565b5b6000612fb784828501612d43565b91505092915050565b600081519050919050565b600082825260208201905092915050565b6000819050602082019050919050565b612ff581612c6d565b82525050565b60006130078383612fec565b60208301905092915050565b6000602082019050919050565b600061302b82612fc0565b6130358185612fcb565b935061304083612fdc565b8060005b838110156130715781516130588882612ffb565b975061306383613013565b925050600181019050613044565b5085935050505092915050565b600060208201905081810360008301526130988184613020565b905092915050565b6130a981612b7c565b81146130b457600080fd5b50565b6000813590506130c6816130a0565b92915050565b600080604083850312156130e3576130e2612aed565b5b60006130f185828601612d43565b9250506020613102858286016130b7565b9150509250929050565b600067ffffffffffffffff82111561312757613126612e1f565b5b61313082612c01565b9050602081019050919050565b600061315061314b8461310c565b612e7f565b90508281526020810184848401111561316c5761316b612e1a565b5b613177848285612ecb565b509392505050565b600082601f83011261319457613193612e15565b5b81356131a484826020860161313d565b91505092915050565b600080600080608085870312156131c7576131c6612aed565b5b60006131d587828801612d43565b94505060206131e687828801612d43565b93505060406131f787828801612c8e565b925050606085013567ffffffffffffffff81111561321857613217612af2565b5b6132248782880161317f565b91505092959194509250565b6000806040838503121561324757613246612aed565b5b600061325585828601612d43565b925050602061326685828601612d43565b9150509250929050565b7f4e487b7100000000000000000000000000000000000000000000000000000000600052602260045260246000fd5b600060028204905060018216806132b757607f821691505b6020821081036132ca576132c9613270565b5b50919050565b7f4552433732313a20617070726f76616c20746f2063757272656e74206f776e6560008201527f7200000000000000000000000000000000000000000000000000000000000000602082015250565b600061332c602183612bbd565b9150613337826132d0565b604082019050919050565b6000602082019050818103600083015261335b8161331f565b9050919050565b7f4552433732313a20617070726f76652063616c6c6572206973206e6f7420746f60008201527f6b656e206f776e6572206f7220617070726f76656420666f7220616c6c000000602082015250565b60006133be603d83612bbd565b91506133c982613362565b604082019050919050565b600060208201905081810360008301526133ed816133b1565b9050919050565b7f4552433732313a2063616c6c6572206973206e6f7420746f6b656e206f776e6560008201527f72206f7220617070726f76656400000000000000000000000000000000000000602082015250565b6000613450602d83612bbd565b915061345b826133f4565b604082019050919050565b6000602082019050818103600083015261347f81613443565b9050919050565b7f455243373231456e756d657261626c653a206f776e657220696e646578206f7560008201527f74206f6620626f756e6473000000000000000000000000000000000000000000602082015250565b60006134e2602b83612bbd565b91506134ed82613486565b604082019050919050565b60006020820190508181036000830152613511816134d5565b9050919050565b7f5468697320636f6c6c656374696f6e20697320736f6c64206f75742100000000600082015250565b600061354e601c83612bbd565b915061355982613518565b602082019050919050565b6000602082019050818103600083015261357d81613541565b9050919050565b7f596f75206861766520726563656976656420746865206d6178696d756d20616d60008201527f6f756e74206f66204e46547320616c6c6f7765642e0000000000000000000000602082015250565b60006135e0603583612bbd565b91506135eb82613584565b604082019050919050565b6000602082019050818103600083015261360f816135d3565b9050919050565b7f4e6f7420656e6f75676820657468657220746f207075726368617365204e465460008201527f732e000000000000000000000000000000000000000000000000000000000000602082015250565b6000613672602283612bbd565b915061367d82613616565b604082019050919050565b600060208201905081810360008301526136a181613665565b9050919050565b7f4e487b7100000000000000000000000000000000000000000000000000000000600052601160045260246000fd5b60006136e282612c6d565b91507fffffffffffffffffffffffffffffffffffffffffffffffffffffffffffffffff8203613714576137136136a8565b5b600182019050919050565b7f4e6f206574686572206c65667420746f20776974686472617700000000000000600082015250565b6000613755601983612bbd565b91506137608261371f565b602082019050919050565b6000602082019050818103600083015261378481613748565b9050919050565b600081905092915050565b50565b60006137a660008361378b565b91506137b182613796565b600082019050919050565b60006137c782613799565b9150819050919050565b7f5472616e73666572206661696c65642e00000000000000000000000000000000600082015250565b6000613807601083612bbd565b9150613812826137d1565b602082019050919050565b60006020820190508181036000830152613836816137fa565b9050919050565b7f455243373231456e756d657261626c653a20676c6f62616c20696e646578206f60008201527f7574206f6620626f756e64730000000000000000000000000000000000000000602082015250565b6000613899602c83612bbd565b91506138a48261383d565b604082019050919050565b600060208201905081810360008301526138c88161388c565b9050919050565b7f4e487b7100000000000000000000000000000000000000000000000000000000600052603260045260246000fd5b7f4552433732313a20696e76616c696420746f6b656e2049440000000000000000600082015250565b6000613934601883612bbd565b915061393f826138fe565b602082019050919050565b6000602082019050818103600083015261396381613927565b9050919050565b7f4552433732313a2061646472657373207a65726f206973206e6f74206120766160008201527f6c6964206f776e65720000000000000000000000000000000000000000000000602082015250565b60006139c6602983612bbd565b91506139d18261396a565b604082019050919050565b600060208201905081810360008301526139f5816139b9565b9050919050565b7f4e6f7420656e6f756768204e465473206c65667420746f207265736572766500600082015250565b6000613a32601f83612bbd565b9150613a3d826139fc565b602082019050919050565b60006020820190508181036000830152613a6181613a25565b9050919050565b600081905092915050565b6000613a7e82612bb2565b613a888185613a68565b9350613a98818560208601612bce565b80840191505092915050565b6000613ab08285613a73565b9150613abc8284613a73565b91508190509392505050565b7f4f776e61626c653a206e6577206f776e657220697320746865207a65726f206160008201527f6464726573730000000000000000000000000000000000000000000000000000602082015250565b6000613b24602683612bbd565b9150613b2f82613ac8565b604082019050919050565b60006020820190508181036000830152613b5381613b17565b9050919050565b7f4552433732313a207472616e736665722066726f6d20696e636f72726563742060008201527f6f776e6572000000000000000000000000000000000000000000000000000000602082015250565b6000613bb6602583612bbd565b9150613bc182613b5a565b604082019050919050565b60006020820190508181036000830152613be581613ba9565b9050919050565b7f4552433732313a207472616e7366657220746f20746865207a65726f2061646460008201527f7265737300000000000000000000000000000000000000000000000000000000602082015250565b6000613c48602483612bbd565b9150613c5382613bec565b604082019050919050565b60006020820190508181036000830152613c7781613c3b565b9050919050565b6000613c8982612c6d565b9150613c9483612c6d565b9250827fffffffffffffffffffffffffffffffffffffffffffffffffffffffffffffffff03821115613cc957613cc86136a8565b5b828201905092915050565b6000613cdf82612c6d565b9150613cea83612c6d565b9250817fffffffffffffffffffffffffffffffffffffffffffffffffffffffffffffffff0483118215151615613d2357613d226136a8565b5b828202905092915050565b7f4f776e61626c653a2063616c6c6572206973206e6f7420746865206f776e6572600082015250565b6000613d64602083612bbd565b9150613d6f82613d2e565b602082019050919050565b60006020820190508181036000830152613d9381613d57565b9050919050565b7f4552433732313a20617070726f766520746f2063616c6c657200000000000000600082015250565b6000613dd0601983612bbd565b9150613ddb82613d9a565b602082019050919050565b60006020820190508181036000830152613dff81613dc3565b9050919050565b7f4552433732313a207472616e7366657220746f206e6f6e20455243373231526560008201527f63656976657220696d706c656d656e7465720000000000000000000000000000602082015250565b6000613e62603283612bbd565b9150613e6d82613e06565b604082019050919050565b60006020820190508181036000830152613e9181613e55565b9050919050565b7f4e487b7100000000000000000000000000000000000000000000000000000000600052601260045260246000fd5b7f455243373231456e756d657261626c653a20636f6e736563757469766520747260008201527f616e7366657273206e6f7420737570706f727465640000000000000000000000602082015250565b6000613f23603583612bbd565b9150613f2e82613ec7565b604082019050919050565b60006020820190508181036000830152613f5281613f16565b9050919050565b600081519050919050565b600082825260208201905092915050565b6000613f8082613f59565b613f8a8185613f64565b9350613f9a818560208601612bce565b613fa381612c01565b840191505092915050565b6000608082019050613fc36000830187612d02565b613fd06020830186612d02565b613fdd6040830185612d98565b8181036060830152613fef8184613f75565b905095945050505050565b60008151905061400981612b23565b92915050565b60006020828403121561402557614024612aed565b5b600061403384828501613ffa565b91505092915050565b600061404782612c6d565b915061405283612c6d565b925082821015614065576140646136a8565b5b828203905092915050565b7f4e487b7100000000000000000000000000000000000000000000000000000000600052603160045260246000fd5b7f4552433732313a206d696e7420746f20746865207a65726f2061646472657373600082015250565b60006140d5602083612bbd565b91506140e08261409f565b602082019050919050565b60006020820190508181036000830152614104816140c8565b9050919050565b7f4552433732313a20746f6b656e20616c7265616479206d696e74656400000000600082015250565b6000614141601c83612bbd565b915061414c8261410b565b602082019050919050565b6000602082019050818103600083015261417081614134565b905091905056fea2646970667358221220332dc2543d4d572772525d8c88334bd60a9bcc1e0636a02f8ef87ce8fdc7325464736f6c634300080d0033",
  "immutableReferences": {},
  "source": "//SPDX-License-Identifier: MIT\npragma solidity ^0.8.13;\n\nimport \"@openzeppelin/contracts/utils/Counters.sol\";\nimport \"@openzeppelin/contracts/access/Ownable.sol\";\nimport \"@openzeppelin/contracts/utils/math/SafeMath.sol\";\nimport \"@openzeppelin/contracts/token/ERC721/extensions/ERC721Enumerable.sol\";\n\ncontract NFTCollection is ERC721Enumerable, Ownable {\n    using SafeMath for uint256;\n    using Counters for Counters.Counter;\n\n    Counters.Counter private _tokenIds;\n    // The max number of NFTs in the collection\n    uint public constant MAX_SUPPLY = 10;\n    // The mint price for the collection\n    uint public constant PRICE = 0.00001 ether;\n    // The max number of mints per wallet\n    uint public constant MAX_PER_MINT = 5;\n\n    string public baseTokenURI;\n\n    constructor(string memory baseURI, string memory name, string memory symbol) ERC721(name, symbol) {\n        setBaseURI(baseURI);\n    }\n\n\n    function _baseURI() internal view virtual override returns (string memory) {\n        return baseTokenURI;\n    }\n\n    function getBaseURI() external view returns (string memory) {\n        return baseTokenURI;\n    }\n    \n    function setBaseURI(string memory _baseTokenURI) public onlyOwner {\n        baseTokenURI = _baseTokenURI;\n    }\n\n    function mintNFTs(uint _count) public payable {\n        uint totalMinted = _tokenIds.current();\n\n        require(totalMinted.add(_count) <= MAX_SUPPLY, \"This collection is sold out!\");\n        require(_count >0 && _count <= MAX_PER_MINT, \"You have received the maximum amount of NFTs allowed.\");\n        require(msg.value >= PRICE.mul(_count), \"Not enough ether to purchase NFTs.\");\n\n        for (uint i = 0; i < _count; i++) {\n            _mintSingleNFT();\n        }\n    }\n\n    function _mintSingleNFT() private {\n        uint newTokenID = _tokenIds.current();\n        _safeMint(msg.sender, newTokenID);\n        _tokenIds.increment();\n    }\n    \n    // Returns the ids of the NFTs owned by the wallet address\n    function tokensOfOwner(address _owner) external view returns (uint[] memory) {\n        uint tokenCount = balanceOf(_owner);\n        uint[] memory tokensId = new uint256[](tokenCount);\n\n        for (uint i = 0; i < tokenCount; i++) {\n            tokensId[i] = tokenOfOwnerByIndex(_owner, i);\n        }\n        return tokensId;\n    }\n    \n    // Withdraw the ether in the contract\n    function withdraw() public payable onlyOwner {\n        uint balance = address(this).balance;\n        require(balance > 0, \"No ether left to withdraw\");\n\n        (bool success, ) = (msg.sender).call{value: balance}(\"\");\n        require(success, \"Transfer failed.\");\n    }\n\n    // Reserve NFTs only for owner to mint for free\n    function reserveNFTs(uint _count) public onlyOwner {\n        uint totalMinted = _tokenIds.current();\n\n        require(totalMinted.add(_count) < MAX_SUPPLY, \"Not enough NFTs left to reserve\");\n\n        for (uint i = 0; i < _count; i++) {\n            _mintSingleNFT();\n        }\n    }\n}\n\n",
  "sourcePath": "/Users/bash/Sites/crypto/ethereum/nine-seals/contracts/NFTCollection.sol",
  "compiler": {
    "name": "solc",
    "version": "0.8.13+commit.abaa5c0e.Emscripten.clang"
  },
  "schemaVersion": "3.4.11",
  "updatedAt": "2023-01-05T04:40:17.705Z",
  "networkType": "ethereum",
  "devdoc": {
    "kind": "dev",
    "methods": {
      "approve(address,uint256)": {
        "details": "See {IERC721-approve}."
      },
      "balanceOf(address)": {
        "details": "See {IERC721-balanceOf}."
      },
      "getApproved(uint256)": {
        "details": "See {IERC721-getApproved}."
      },
      "isApprovedForAll(address,address)": {
        "details": "See {IERC721-isApprovedForAll}."
      },
      "name()": {
        "details": "See {IERC721Metadata-name}."
      },
      "owner()": {
        "details": "Returns the address of the current owner."
      },
      "ownerOf(uint256)": {
        "details": "See {IERC721-ownerOf}."
      },
      "renounceOwnership()": {
        "details": "Leaves the contract without owner. It will not be possible to call `onlyOwner` functions anymore. Can only be called by the current owner. NOTE: Renouncing ownership will leave the contract without an owner, thereby removing any functionality that is only available to the owner."
      },
      "safeTransferFrom(address,address,uint256)": {
        "details": "See {IERC721-safeTransferFrom}."
      },
      "safeTransferFrom(address,address,uint256,bytes)": {
        "details": "See {IERC721-safeTransferFrom}."
      },
      "setApprovalForAll(address,bool)": {
        "details": "See {IERC721-setApprovalForAll}."
      },
      "supportsInterface(bytes4)": {
        "details": "See {IERC165-supportsInterface}."
      },
      "symbol()": {
        "details": "See {IERC721Metadata-symbol}."
      },
      "tokenByIndex(uint256)": {
        "details": "See {IERC721Enumerable-tokenByIndex}."
      },
      "tokenOfOwnerByIndex(address,uint256)": {
        "details": "See {IERC721Enumerable-tokenOfOwnerByIndex}."
      },
      "tokenURI(uint256)": {
        "details": "See {IERC721Metadata-tokenURI}."
      },
      "totalSupply()": {
        "details": "See {IERC721Enumerable-totalSupply}."
      },
      "transferFrom(address,address,uint256)": {
        "details": "See {IERC721-transferFrom}."
      },
      "transferOwnership(address)": {
        "details": "Transfers ownership of the contract to a new account (`newOwner`). Can only be called by the current owner."
      }
    },
    "version": 1
  },
  "userdoc": {
    "kind": "user",
    "methods": {},
    "version": 1
  }
}