{
  "contractName": "NineSeals",
  "abi": [
    {
      "inputs": [
        {
          "internalType": "string",
          "name": "name",
          "type": "string"
        },
        {
          "internalType": "string",
          "name": "symbol",
          "type": "string"
        }
      ],
      "stateMutability": "nonpayable",
      "type": "constructor"
    },
    {
      "anonymous": false,
      "inputs": [
        {
          "indexed": true,
          "internalType": "address",
          "name": "owner",
          "type": "address"
        },
        {
          "indexed": true,
          "internalType": "address",
          "name": "approved",
          "type": "address"
        },
        {
          "indexed": true,
          "internalType": "uint256",
          "name": "tokenId",
          "type": "uint256"
        }
      ],
      "name": "Approval",
      "type": "event"
    },
    {
      "anonymous": false,
      "inputs": [
        {
          "indexed": true,
          "internalType": "address",
          "name": "owner",
          "type": "address"
        },
        {
          "indexed": true,
          "internalType": "address",
          "name": "operator",
          "type": "address"
        },
        {
          "indexed": false,
          "internalType": "bool",
          "name": "approved",
          "type": "bool"
        }
      ],
      "name": "ApprovalForAll",
      "type": "event"
    },
    {
      "anonymous": false,
      "inputs": [
        {
          "indexed": true,
          "internalType": "address",
          "name": "previousOwner",
          "type": "address"
        },
        {
          "indexed": true,
          "internalType": "address",
          "name": "newOwner",
          "type": "address"
        }
      ],
      "name": "OwnershipTransferred",
      "type": "event"
    },
    {
      "anonymous": false,
      "inputs": [
        {
          "indexed": true,
          "internalType": "address",
          "name": "from",
          "type": "address"
        },
        {
          "indexed": true,
          "internalType": "address",
          "name": "to",
          "type": "address"
        },
        {
          "indexed": true,
          "internalType": "uint256",
          "name": "tokenId",
          "type": "uint256"
        }
      ],
      "name": "Transfer",
      "type": "event"
    },
    {
      "inputs": [],
      "name": "DEFAULT_COLLECTION_SIZE",
      "outputs": [
        {
          "internalType": "uint64",
          "name": "",
          "type": "uint64"
        }
      ],
      "stateMutability": "view",
      "type": "function",
      "constant": true
    },
    {
      "inputs": [],
      "name": "DEFAULT_MAX_BATCH_SIZE",
      "outputs": [
        {
          "internalType": "uint64",
          "name": "",
          "type": "uint64"
        }
      ],
      "stateMutability": "view",
      "type": "function",
      "constant": true
    },
    {
      "inputs": [],
      "name": "_totalAllowedTokens",
      "outputs": [
        {
          "internalType": "uint64",
          "name": "",
          "type": "uint64"
        }
      ],
      "stateMutability": "view",
      "type": "function",
      "constant": true
    },
    {
      "inputs": [],
      "name": "allowlistSaleConfig",
      "outputs": [
        {
          "internalType": "uint16",
          "name": "maxBatchSize",
          "type": "uint16"
        },
        {
          "internalType": "uint32",
          "name": "saleKey",
          "type": "uint32"
        },
        {
          "internalType": "uint32",
          "name": "saleStartTime",
          "type": "uint32"
        },
        {
          "internalType": "uint256",
          "name": "salePrice",
          "type": "uint256"
        }
      ],
      "stateMutability": "view",
      "type": "function",
      "constant": true
    },
    {
      "inputs": [
        {
          "internalType": "address",
          "name": "to",
          "type": "address"
        },
        {
          "internalType": "uint256",
          "name": "tokenId",
          "type": "uint256"
        }
      ],
      "name": "approve",
      "outputs": [],
      "stateMutability": "nonpayable",
      "type": "function"
    },
    {
      "inputs": [
        {
          "internalType": "address",
          "name": "owner",
          "type": "address"
        }
      ],
      "name": "balanceOf",
      "outputs": [
        {
          "internalType": "uint256",
          "name": "",
          "type": "uint256"
        }
      ],
      "stateMutability": "view",
      "type": "function",
      "constant": true
    },
    {
      "inputs": [
        {
          "internalType": "uint256",
          "name": "tokenId",
          "type": "uint256"
        }
      ],
      "name": "getApproved",
      "outputs": [
        {
          "internalType": "address",
          "name": "",
          "type": "address"
        }
      ],
      "stateMutability": "view",
      "type": "function",
      "constant": true
    },
    {
      "inputs": [
        {
          "internalType": "address",
          "name": "owner",
          "type": "address"
        },
        {
          "internalType": "address",
          "name": "operator",
          "type": "address"
        }
      ],
      "name": "isApprovedForAll",
      "outputs": [
        {
          "internalType": "bool",
          "name": "",
          "type": "bool"
        }
      ],
      "stateMutability": "view",
      "type": "function",
      "constant": true
    },
    {
      "inputs": [
        {
          "internalType": "address",
          "name": "",
          "type": "address"
        }
      ],
      "name": "mintoors",
      "outputs": [
        {
          "internalType": "uint128",
          "name": "tokenBalance",
          "type": "uint128"
        },
        {
          "internalType": "uint128",
          "name": "maxAllowlistTokens",
          "type": "uint128"
        },
        {
          "internalType": "uint128",
          "name": "allowlistBalance",
          "type": "uint128"
        },
        {
          "internalType": "uint128",
          "name": "maxPublicSaleTokens",
          "type": "uint128"
        }
      ],
      "stateMutability": "view",
      "type": "function",
      "constant": true
    },
    {
      "inputs": [],
      "name": "name",
      "outputs": [
        {
          "internalType": "string",
          "name": "",
          "type": "string"
        }
      ],
      "stateMutability": "view",
      "type": "function",
      "constant": true
    },
    {
      "inputs": [],
      "name": "owner",
      "outputs": [
        {
          "internalType": "address",
          "name": "",
          "type": "address"
        }
      ],
      "stateMutability": "view",
      "type": "function",
      "constant": true
    },
    {
      "inputs": [
        {
          "internalType": "uint256",
          "name": "tokenId",
          "type": "uint256"
        }
      ],
      "name": "ownerOf",
      "outputs": [
        {
          "internalType": "address",
          "name": "",
          "type": "address"
        }
      ],
      "stateMutability": "view",
      "type": "function",
      "constant": true
    },
    {
      "inputs": [],
      "name": "publicSaleConfig",
      "outputs": [
        {
          "internalType": "uint16",
          "name": "maxBatchSize",
          "type": "uint16"
        },
        {
          "internalType": "uint32",
          "name": "saleKey",
          "type": "uint32"
        },
        {
          "internalType": "uint32",
          "name": "saleStartTime",
          "type": "uint32"
        },
        {
          "internalType": "uint256",
          "name": "salePrice",
          "type": "uint256"
        }
      ],
      "stateMutability": "view",
      "type": "function",
      "constant": true
    },
    {
      "inputs": [],
      "name": "renounceOwnership",
      "outputs": [],
      "stateMutability": "nonpayable",
      "type": "function"
    },
    {
      "inputs": [
        {
          "internalType": "address",
          "name": "from",
          "type": "address"
        },
        {
          "internalType": "address",
          "name": "to",
          "type": "address"
        },
        {
          "internalType": "uint256",
          "name": "tokenId",
          "type": "uint256"
        }
      ],
      "name": "safeTransferFrom",
      "outputs": [],
      "stateMutability": "nonpayable",
      "type": "function"
    },
    {
      "inputs": [
        {
          "internalType": "address",
          "name": "from",
          "type": "address"
        },
        {
          "internalType": "address",
          "name": "to",
          "type": "address"
        },
        {
          "internalType": "uint256",
          "name": "tokenId",
          "type": "uint256"
        },
        {
          "internalType": "bytes",
          "name": "data",
          "type": "bytes"
        }
      ],
      "name": "safeTransferFrom",
      "outputs": [],
      "stateMutability": "nonpayable",
      "type": "function"
    },
    {
      "inputs": [
        {
          "internalType": "address",
          "name": "operator",
          "type": "address"
        },
        {
          "internalType": "bool",
          "name": "approved",
          "type": "bool"
        }
      ],
      "name": "setApprovalForAll",
      "outputs": [],
      "stateMutability": "nonpayable",
      "type": "function"
    },
    {
      "inputs": [
        {
          "internalType": "bytes4",
          "name": "interfaceId",
          "type": "bytes4"
        }
      ],
      "name": "supportsInterface",
      "outputs": [
        {
          "internalType": "bool",
          "name": "",
          "type": "bool"
        }
      ],
      "stateMutability": "view",
      "type": "function",
      "constant": true
    },
    {
      "inputs": [],
      "name": "symbol",
      "outputs": [
        {
          "internalType": "string",
          "name": "",
          "type": "string"
        }
      ],
      "stateMutability": "view",
      "type": "function",
      "constant": true
    },
    {
      "inputs": [
        {
          "internalType": "uint256",
          "name": "tokenId",
          "type": "uint256"
        }
      ],
      "name": "tokenURI",
      "outputs": [
        {
          "internalType": "string",
          "name": "",
          "type": "string"
        }
      ],
      "stateMutability": "view",
      "type": "function",
      "constant": true
    },
    {
      "inputs": [
        {
          "internalType": "address",
          "name": "from",
          "type": "address"
        },
        {
          "internalType": "address",
          "name": "to",
          "type": "address"
        },
        {
          "internalType": "uint256",
          "name": "tokenId",
          "type": "uint256"
        }
      ],
      "name": "transferFrom",
      "outputs": [],
      "stateMutability": "nonpayable",
      "type": "function"
    },
    {
      "inputs": [
        {
          "internalType": "address",
          "name": "newOwner",
          "type": "address"
        }
      ],
      "name": "transferOwnership",
      "outputs": [],
      "stateMutability": "nonpayable",
      "type": "function"
    },
    {
      "inputs": [
        {
          "internalType": "uint256",
          "name": "quantity",
          "type": "uint256"
        }
      ],
      "name": "allowlistMint",
      "outputs": [],
      "stateMutability": "payable",
      "type": "function",
      "payable": true
    },
    {
      "inputs": [
        {
          "internalType": "uint256",
          "name": "quantity",
          "type": "uint256"
        },
        {
          "internalType": "uint256",
          "name": "callerPublicSaleKey",
          "type": "uint256"
        }
      ],
      "name": "publicSaleMint",
      "outputs": [],
      "stateMutability": "payable",
      "type": "function",
      "payable": true
    },
    {
      "inputs": [
        {
          "internalType": "address[]",
          "name": "addresses",
          "type": "address[]"
        },
        {
          "internalType": "uint256[]",
          "name": "numSlots",
          "type": "uint256[]"
        }
      ],
      "name": "seedAllowlist",
      "outputs": [],
      "stateMutability": "nonpayable",
      "type": "function"
    },
    {
      "inputs": [
        {
          "internalType": "uint16",
          "name": "maxBatchSize",
          "type": "uint16"
        },
        {
          "internalType": "uint256",
          "name": "salePrice",
          "type": "uint256"
        },
        {
          "internalType": "uint32",
          "name": "saleStartTime",
          "type": "uint32"
        }
      ],
      "name": "initializeAllowlistSale",
      "outputs": [],
      "stateMutability": "nonpayable",
      "type": "function"
    },
    {
      "inputs": [
        {
          "internalType": "uint16",
          "name": "maxBatchSize",
          "type": "uint16"
        },
        {
          "internalType": "uint256",
          "name": "salePrice",
          "type": "uint256"
        },
        {
          "internalType": "uint32",
          "name": "saleStartTime",
          "type": "uint32"
        },
        {
          "internalType": "uint32",
          "name": "saleKey",
          "type": "uint32"
        }
      ],
      "name": "initializePublicSale",
      "outputs": [],
      "stateMutability": "nonpayable",
      "type": "function"
    },
    {
      "inputs": [
        {
          "internalType": "uint256",
          "name": "collectionSize",
          "type": "uint256"
        }
      ],
      "name": "setCollectionSize",
      "outputs": [],
      "stateMutability": "nonpayable",
      "type": "function"
    },
    {
      "inputs": [],
      "name": "totalSupply",
      "outputs": [
        {
          "internalType": "uint256",
          "name": "",
          "type": "uint256"
        }
      ],
      "stateMutability": "view",
      "type": "function",
      "constant": true
    },
    {
      "inputs": [
        {
          "internalType": "string",
          "name": "baseURI",
          "type": "string"
        }
      ],
      "name": "setBaseURI",
      "outputs": [],
      "stateMutability": "nonpayable",
      "type": "function"
    },
    {
      "inputs": [],
      "name": "withdrawMoney",
      "outputs": [],
      "stateMutability": "nonpayable",
      "type": "function"
    },
    {
      "inputs": [],
      "name": "collectionSize",
      "outputs": [
        {
          "internalType": "uint256",
          "name": "",
          "type": "uint256"
        }
      ],
      "stateMutability": "view",
      "type": "function",
      "constant": true
    },
    {
      "inputs": [
        {
          "internalType": "address",
          "name": "owner",
          "type": "address"
        }
      ],
      "name": "numberMinted",
      "outputs": [
        {
          "internalType": "uint256",
          "name": "",
          "type": "uint256"
        }
      ],
      "stateMutability": "view",
      "type": "function",
      "constant": true
    },
    {
      "inputs": [
        {
          "internalType": "address",
          "name": "owner",
          "type": "address"
        }
      ],
      "name": "maxMintableTokens",
      "outputs": [
        {
          "internalType": "uint256",
          "name": "",
          "type": "uint256"
        }
      ],
      "stateMutability": "view",
      "type": "function",
      "constant": true
    },
    {
      "inputs": [
        {
          "internalType": "address",
          "name": "owner",
          "type": "address"
        }
      ],
      "name": "publicSaleSlots",
      "outputs": [
        {
          "internalType": "uint256",
          "name": "",
          "type": "uint256"
        }
      ],
      "stateMutability": "view",
      "type": "function",
      "constant": true
    },
    {
      "inputs": [
        {
          "internalType": "address",
          "name": "owner",
          "type": "address"
        }
      ],
      "name": "publicSaleTokensRemaining",
      "outputs": [
        {
          "internalType": "uint256",
          "name": "",
          "type": "uint256"
        }
      ],
      "stateMutability": "view",
      "type": "function",
      "constant": true
    },
    {
      "inputs": [
        {
          "internalType": "address",
          "name": "owner",
          "type": "address"
        }
      ],
      "name": "allowlistSlots",
      "outputs": [
        {
          "internalType": "uint256",
          "name": "",
          "type": "uint256"
        }
      ],
      "stateMutability": "view",
      "type": "function",
      "constant": true
    },
    {
      "inputs": [
        {
          "internalType": "address",
          "name": "owner",
          "type": "address"
        }
      ],
      "name": "allowlistTokensRemaining",
      "outputs": [
        {
          "internalType": "uint256",
          "name": "",
          "type": "uint256"
        }
      ],
      "stateMutability": "view",
      "type": "function",
      "constant": true
    },
    {
      "inputs": [],
      "name": "getAllowlistSaleDuration",
      "outputs": [
        {
          "internalType": "uint256",
          "name": "",
          "type": "uint256"
        }
      ],
      "stateMutability": "view",
      "type": "function",
      "constant": true
    },
    {
      "inputs": [],
      "name": "isAllowlistSaleOn",
      "outputs": [
        {
          "internalType": "bool",
          "name": "",
          "type": "bool"
        }
      ],
      "stateMutability": "view",
      "type": "function",
      "constant": true
    },
    {
      "inputs": [],
      "name": "isPublicSaleOn",
      "outputs": [
        {
          "internalType": "bool",
          "name": "",
          "type": "bool"
        }
      ],
      "stateMutability": "view",
      "type": "function",
      "constant": true
    },
    {
      "inputs": [],
      "name": "isSaleClosed",
      "outputs": [
        {
          "internalType": "bool",
          "name": "",
          "type": "bool"
        }
      ],
      "stateMutability": "view",
      "type": "function",
      "constant": true
    },
    {
      "inputs": [],
      "name": "isMintPaused",
      "outputs": [
        {
          "internalType": "bool",
          "name": "",
          "type": "bool"
        }
      ],
      "stateMutability": "view",
      "type": "function",
      "constant": true
    },
    {
      "inputs": [],
      "name": "getMintPrice",
      "outputs": [
        {
          "internalType": "uint256",
          "name": "",
          "type": "uint256"
        }
      ],
      "stateMutability": "view",
      "type": "function",
      "constant": true
    }
  ],
  "bytecode": "0x60806040523480156200001157600080fd5b506040516200600338038062006003833981810160405281019062000037919062000345565b818181600090816200004a919062000615565b5080600190816200005c919062000615565b5050506200007f62000073620000e460201b60201c565b620000ec60201b60201c565b60016007819055506000600860016101000a81548167ffffffffffffffff021916908367ffffffffffffffff160217905550612710600860096101000a81548167ffffffffffffffff021916908367ffffffffffffffff1602179055505050620006fc565b600033905090565b6000600660009054906101000a900473ffffffffffffffffffffffffffffffffffffffff16905081600660006101000a81548173ffffffffffffffffffffffffffffffffffffffff021916908373ffffffffffffffffffffffffffffffffffffffff1602179055508173ffffffffffffffffffffffffffffffffffffffff168173ffffffffffffffffffffffffffffffffffffffff167f8be0079c531659141344cd1fd0a4f28419497f9722a3daafe3b4186f6b6457e060405160405180910390a35050565b6000604051905090565b600080fd5b600080fd5b600080fd5b600080fd5b6000601f19601f8301169050919050565b7f4e487b7100000000000000000000000000000000000000000000000000000000600052604160045260246000fd5b6200021b82620001d0565b810181811067ffffffffffffffff821117156200023d576200023c620001e1565b5b80604052505050565b600062000252620001b2565b905062000260828262000210565b919050565b600067ffffffffffffffff821115620002835762000282620001e1565b5b6200028e82620001d0565b9050602081019050919050565b60005b83811015620002bb5780820151818401526020810190506200029e565b60008484015250505050565b6000620002de620002d88462000265565b62000246565b905082815260208101848484011115620002fd57620002fc620001cb565b5b6200030a8482856200029b565b509392505050565b600082601f8301126200032a5762000329620001c6565b5b81516200033c848260208601620002c7565b91505092915050565b600080604083850312156200035f576200035e620001bc565b5b600083015167ffffffffffffffff81111562000380576200037f620001c1565b5b6200038e8582860162000312565b925050602083015167ffffffffffffffff811115620003b257620003b1620001c1565b5b620003c08582860162000312565b9150509250929050565b600081519050919050565b7f4e487b7100000000000000000000000000000000000000000000000000000000600052602260045260246000fd5b600060028204905060018216806200041d57607f821691505b602082108103620004335762000432620003d5565b5b50919050565b60008190508160005260206000209050919050565b60006020601f8301049050919050565b600082821b905092915050565b6000600883026200049d7fffffffffffffffffffffffffffffffffffffffffffffffffffffffffffffffff826200045e565b620004a986836200045e565b95508019841693508086168417925050509392505050565b6000819050919050565b6000819050919050565b6000620004f6620004f0620004ea84620004c1565b620004cb565b620004c1565b9050919050565b6000819050919050565b6200051283620004d5565b6200052a6200052182620004fd565b8484546200046b565b825550505050565b600090565b6200054162000532565b6200054e81848462000507565b505050565b5b8181101562000576576200056a60008262000537565b60018101905062000554565b5050565b601f821115620005c5576200058f8162000439565b6200059a846200044e565b81016020851015620005aa578190505b620005c2620005b9856200044e565b83018262000553565b50505b505050565b600082821c905092915050565b6000620005ea60001984600802620005ca565b1980831691505092915050565b6000620006058383620005d7565b9150826002028217905092915050565b6200062082620003ca565b67ffffffffffffffff8111156200063c576200063b620001e1565b5b62000648825462000404565b620006558282856200057a565b600060209050601f8311600181146200068d576000841562000678578287015190505b620006848582620005f7565b865550620006f4565b601f1984166200069d8662000439565b60005b82811015620006c757848901518255600182019150602085019450602081019050620006a0565b86831015620006e75784890151620006e3601f891682620005d7565b8355505b6001600288020188555050505b505050505050565b6158f7806200070c6000396000f3fe6080604052600436106102675760003560e01c806395d89b4111610144578063c180526a116100b6578063d5e2eb551161007a578063d5e2eb551461092e578063dc33e6811461095c578063e985e9c514610999578063f12732a2146109d6578063f24096a914610a13578063f2fde38b14610a3e57610267565b8063c180526a1461083f578063c32228491461085b578063c40c281514610898578063c87b56dd146108d5578063cb91d8b31461091257610267565b8063a81030aa11610108578063a81030aa14610759578063ac44600214610782578063aca8ffe714610799578063b05863d5146107c2578063b88d4fde146107eb578063b936f97a1461081457610267565b806395d89b411461066c5780639fb1dc1414610697578063a22cb465146106d7578063a3fd2c4414610700578063a7f93ebd1461072e57610267565b80633f5e4741116101dd5780636352211e116101a15780636352211e1461054a57806370a0823114610587578063715018a6146105c457806381d17496146105db5780638c202048146106045780638da5cb5b1461064157610267565b80633f5e47411461047757806342842e0e146104a257806345c0f533146104cb57806355f804b3146104f65780635deaa5f41461051f57610267565b806315839b301161022f57806315839b301461036557806318160ddd146103905780631ac3fff1146103bb5780631e1a268b146103e657806323393c401461041157806323b872dd1461044e57610267565b806301ffc9a71461026c57806305f1bc03146102a957806306fdde03146102d4578063081812fc146102ff578063095ea7b31461033c575b600080fd5b34801561027857600080fd5b50610293600480360381019061028e9190613a46565b610a67565b6040516102a09190613a8e565b60405180910390f35b3480156102b557600080fd5b506102be610b49565b6040516102cb9190613acc565b60405180910390f35b3480156102e057600080fd5b506102e9610b63565b6040516102f69190613b77565b60405180910390f35b34801561030b57600080fd5b5061032660048036038101906103219190613bcf565b610bf5565b6040516103339190613c3d565b60405180910390f35b34801561034857600080fd5b50610363600480360381019061035e9190613c84565b610c3b565b005b34801561037157600080fd5b5061037a610d52565b6040516103879190613a8e565b60405180910390f35b34801561039c57600080fd5b506103a5610d69565b6040516103b29190613cd3565b60405180910390f35b3480156103c757600080fd5b506103d0610d91565b6040516103dd9190613cd3565b60405180910390f35b3480156103f257600080fd5b506103fb610e35565b6040516104089190613a8e565b60405180910390f35b34801561041d57600080fd5b5061043860048036038101906104339190613cee565b610e60565b6040516104459190613cd3565b60405180910390f35b34801561045a57600080fd5b5061047560048036038101906104709190613d1b565b611017565b005b34801561048357600080fd5b5061048c611077565b6040516104999190613a8e565b60405180910390f35b3480156104ae57600080fd5b506104c960048036038101906104c49190613d1b565b611129565b005b3480156104d757600080fd5b506104e0611149565b6040516104ed9190613cd3565b60405180910390f35b34801561050257600080fd5b5061051d60048036038101906105189190613dd3565b611171565b005b34801561052b57600080fd5b5061053461118f565b6040516105419190613acc565b60405180910390f35b34801561055657600080fd5b50610571600480360381019061056c9190613bcf565b611194565b60405161057e9190613c3d565b60405180910390f35b34801561059357600080fd5b506105ae60048036038101906105a99190613cee565b61121a565b6040516105bb9190613cd3565b60405180910390f35b3480156105d057600080fd5b506105d96112d1565b005b3480156105e757600080fd5b5061060260048036038101906105fd9190613e96565b6112e5565b005b34801561061057600080fd5b5061062b60048036038101906106269190613cee565b611340565b6040516106389190613cd3565b60405180910390f35b34801561064d57600080fd5b506106566113ba565b6040516106639190613c3d565b60405180910390f35b34801561067857600080fd5b506106816113e4565b60405161068e9190613b77565b60405180910390f35b3480156106a357600080fd5b506106be60048036038101906106b99190613cee565b611476565b6040516106ce9493929190613f14565b60405180910390f35b3480156106e357600080fd5b506106fe60048036038101906106f99190613f85565b611516565b005b34801561070c57600080fd5b5061071561152c565b6040516107259493929190613fe3565b60405180910390f35b34801561073a57600080fd5b50610743611578565b6040516107509190613cd3565b60405180910390f35b34801561076557600080fd5b50610780600480360381019061077b9190614028565b6115b6565b005b34801561078e57600080fd5b50610797611636565b005b3480156107a557600080fd5b506107c060048036038101906107bb9190613bcf565b6116fd565b005b3480156107ce57600080fd5b506107e960048036038101906107e49190614290565b61179b565b005b3480156107f757600080fd5b50610812600480360381019061080d91906143bd565b6118b8565b005b34801561082057600080fd5b5061082961191a565b6040516108369190613a8e565b60405180910390f35b61085960048036038101906108549190613bcf565b6119dd565b005b34801561086757600080fd5b50610882600480360381019061087d9190613cee565b612030565b60405161088f9190613cd3565b60405180910390f35b3480156108a457600080fd5b506108bf60048036038101906108ba9190613cee565b612055565b6040516108cc9190613cd3565b60405180910390f35b3480156108e157600080fd5b506108fc60048036038101906108f79190613bcf565b61221b565b6040516109099190613b77565b60405180910390f35b61092c60048036038101906109279190614440565b612283565b005b34801561093a57600080fd5b506109436126b6565b6040516109539493929190613fe3565b60405180910390f35b34801561096857600080fd5b50610983600480360381019061097e9190613cee565b612702565b6040516109909190613cd3565b60405180910390f35b3480156109a557600080fd5b506109c060048036038101906109bb9190614480565b61277c565b6040516109cd9190613a8e565b60405180910390f35b3480156109e257600080fd5b506109fd60048036038101906109f89190613cee565b612810565b604051610a0a9190613cd3565b60405180910390f35b348015610a1f57600080fd5b50610a28612835565b604051610a359190613acc565b60405180910390f35b348015610a4a57600080fd5b50610a656004803603810190610a609190613cee565b61283b565b005b60007f80ac58cd000000000000000000000000000000000000000000000000000000007bffffffffffffffffffffffffffffffffffffffffffffffffffffffff1916827bffffffffffffffffffffffffffffffffffffffffffffffffffffffff19161480610b3257507f5b5e139f000000000000000000000000000000000000000000000000000000007bffffffffffffffffffffffffffffffffffffffffffffffffffffffff1916827bffffffffffffffffffffffffffffffffffffffffffffffffffffffff1916145b80610b425750610b41826128be565b5b9050919050565b600860099054906101000a900467ffffffffffffffff1681565b606060008054610b72906144ef565b80601f0160208091040260200160405190810160405280929190818152602001828054610b9e906144ef565b8015610beb5780601f10610bc057610100808354040283529160200191610beb565b820191906000526020600020905b815481529060010190602001808311610bce57829003601f168201915b5050505050905090565b6000610c0082612928565b6004600083815260200190815260200160002060009054906101000a900473ffffffffffffffffffffffffffffffffffffffff169050919050565b6000610c4682611194565b90508073ffffffffffffffffffffffffffffffffffffffff168373ffffffffffffffffffffffffffffffffffffffff1603610cb6576040517f08c379a0000000000000000000000000000000000000000000000000000000008152600401610cad90614592565b60405180910390fd5b8073ffffffffffffffffffffffffffffffffffffffff16610cd5612973565b73ffffffffffffffffffffffffffffffffffffffff161480610d045750610d0381610cfe612973565b61277c565b5b610d43576040517f08c379a0000000000000000000000000000000000000000000000000000000008152600401610d3a90614624565b60405180910390fd5b610d4d838361297b565b505050565b6000600860009054906101000a900460ff16905090565b6000600860019054906101000a900467ffffffffffffffff1667ffffffffffffffff16905090565b600080600a6040518060800160405290816000820160009054906101000a900461ffff1661ffff1661ffff1681526020016000820160029054906101000a900463ffffffff1663ffffffff1663ffffffff1681526020016000820160069054906101000a900463ffffffff1663ffffffff1663ffffffff1681526020016001820154815250509050806040015163ffffffff1642610e2f9190614673565b91505090565b600080610e40610d69565b118015610e5b5750610e50611149565b610e58610d69565b10155b905090565b600080600e60008473ffffffffffffffffffffffffffffffffffffffff1673ffffffffffffffffffffffffffffffffffffffff1681526020019081526020016000206040518060800160405290816000820160009054906101000a90046fffffffffffffffffffffffffffffffff166fffffffffffffffffffffffffffffffff166fffffffffffffffffffffffffffffffff1681526020016000820160109054906101000a90046fffffffffffffffffffffffffffffffff166fffffffffffffffffffffffffffffffff166fffffffffffffffffffffffffffffffff1681526020016001820160009054906101000a90046fffffffffffffffffffffffffffffffff166fffffffffffffffffffffffffffffffff166fffffffffffffffffffffffffffffffff1681526020016001820160109054906101000a90046fffffffffffffffffffffffffffffffff166fffffffffffffffffffffffffffffffff166fffffffffffffffffffffffffffffffff1681525050905080604001516fffffffffffffffffffffffffffffffff1681602001516fffffffffffffffffffffffffffffffff1661100f9190614673565b915050919050565b611028611022612973565b82612a34565b611067576040517f08c379a000000000000000000000000000000000000000000000000000000000815260040161105e90614719565b60405180910390fd5b611072838383612ac9565b505050565b600080600c6040518060800160405290816000820160009054906101000a900461ffff1661ffff1661ffff1681526020016000820160029054906101000a900463ffffffff1663ffffffff1663ffffffff1681526020016000820160069054906101000a900463ffffffff1663ffffffff1663ffffffff16815260200160018201548152505090506000816040015163ffffffff161180156111235750806040015163ffffffff164210155b91505090565b611144838383604051806020016040528060008152506118b8565b505050565b6000600860099054906101000a900467ffffffffffffffff1667ffffffffffffffff16905090565b611179612dc2565b81816009918261118a9291906148f0565b505050565b600581565b6000806111a083612e40565b9050600073ffffffffffffffffffffffffffffffffffffffff168173ffffffffffffffffffffffffffffffffffffffff1603611211576040517f08c379a000000000000000000000000000000000000000000000000000000000815260040161120890614a0c565b60405180910390fd5b80915050919050565b60008073ffffffffffffffffffffffffffffffffffffffff168273ffffffffffffffffffffffffffffffffffffffff160361128a576040517f08c379a000000000000000000000000000000000000000000000000000000000815260040161128190614a9e565b60405180910390fd5b600360008373ffffffffffffffffffffffffffffffffffffffff1673ffffffffffffffffffffffffffffffffffffffff168152602001908152602001600020549050919050565b6112d9612dc2565b6112e36000612e7d565b565b6112ed612dc2565b82600a60000160006101000a81548161ffff021916908361ffff16021790555080600a60000160066101000a81548163ffffffff021916908363ffffffff16021790555081600a60010181905550505050565b6000600e60008373ffffffffffffffffffffffffffffffffffffffff1673ffffffffffffffffffffffffffffffffffffffff16815260200190815260200160002060000160109054906101000a90046fffffffffffffffffffffffffffffffff166fffffffffffffffffffffffffffffffff169050919050565b6000600660009054906101000a900473ffffffffffffffffffffffffffffffffffffffff16905090565b6060600180546113f3906144ef565b80601f016020809104026020016040519081016040528092919081815260200182805461141f906144ef565b801561146c5780601f106114415761010080835404028352916020019161146c565b820191906000526020600020905b81548152906001019060200180831161144f57829003601f168201915b5050505050905090565b600e6020528060005260406000206000915090508060000160009054906101000a90046fffffffffffffffffffffffffffffffff16908060000160109054906101000a90046fffffffffffffffffffffffffffffffff16908060010160009054906101000a90046fffffffffffffffffffffffffffffffff16908060010160109054906101000a90046fffffffffffffffffffffffffffffffff16905084565b611528611521612973565b8383612f43565b5050565b600c8060000160009054906101000a900461ffff16908060000160029054906101000a900463ffffffff16908060000160069054906101000a900463ffffffff16908060010154905084565b6000611582611077565b1561159457600c6001015490506115b3565b61159c61191a565b156115ae57600a6001015490506115b3565b600090505b90565b6115be612dc2565b83600c60000160006101000a81548161ffff021916908361ffff16021790555080600c60000160026101000a81548163ffffffff021916908363ffffffff16021790555081600c60000160066101000a81548163ffffffff021916908363ffffffff16021790555082600c6001018190555050505050565b61163e612dc2565b6116466130af565b60003373ffffffffffffffffffffffffffffffffffffffff164760405161166c90614aef565b60006040518083038185875af1925050503d80600081146116a9576040519150601f19603f3d011682016040523d82523d6000602084013e6116ae565b606091505b50509050806116f2576040517f08c379a00000000000000000000000000000000000000000000000000000000081526004016116e990614b50565b60405180910390fd5b506116fb6130fe565b565b611705612dc2565b61170d610d69565b600860099054906101000a900467ffffffffffffffff1667ffffffffffffffff16101561176f576040517f08c379a000000000000000000000000000000000000000000000000000000000815260040161176690614be2565b60405180910390fd5b80600860096101000a81548167ffffffffffffffff021916908367ffffffffffffffff16021790555050565b6117a3612dc2565b80518251146117e7576040517f08c379a00000000000000000000000000000000000000000000000000000000081526004016117de90614c74565b60405180910390fd5b60005b82518110156118b35781818151811061180657611805614c94565b5b6020026020010151600e600085848151811061182557611824614c94565b5b602002602001015173ffffffffffffffffffffffffffffffffffffffff1673ffffffffffffffffffffffffffffffffffffffff16815260200190815260200160002060000160106101000a8154816fffffffffffffffffffffffffffffffff02191690836fffffffffffffffffffffffffffffffff16021790555080806118ab90614cc3565b9150506117ea565b505050565b6118c96118c3612973565b83612a34565b611908576040517f08c379a00000000000000000000000000000000000000000000000000000000081526004016118ff90614719565b60405180910390fd5b61191484848484613108565b50505050565b600080600a6040518060800160405290816000820160009054906101000a900461ffff1661ffff1661ffff1681526020016000820160029054906101000a900463ffffffff1663ffffffff1663ffffffff1681526020016000820160069054906101000a900463ffffffff1663ffffffff1663ffffffff16815260200160018201548152505090506119aa611077565b1580156119c157506000816040015163ffffffff16115b80156119d75750806040015163ffffffff164210155b91505090565b3373ffffffffffffffffffffffffffffffffffffffff163273ffffffffffffffffffffffffffffffffffffffff1614611a4b576040517f08c379a0000000000000000000000000000000000000000000000000000000008152600401611a4290614d57565b60405180910390fd5b6000600a6040518060800160405290816000820160009054906101000a900461ffff1661ffff1661ffff1681526020016000820160029054906101000a900463ffffffff1663ffffffff1663ffffffff1681526020016000820160069054906101000a900463ffffffff1663ffffffff1663ffffffff16815260200160018201548152505090506000816060015190506000600e60003373ffffffffffffffffffffffffffffffffffffffff1673ffffffffffffffffffffffffffffffffffffffff1681526020019081526020016000206040518060800160405290816000820160009054906101000a90046fffffffffffffffffffffffffffffffff166fffffffffffffffffffffffffffffffff166fffffffffffffffffffffffffffffffff1681526020016000820160109054906101000a90046fffffffffffffffffffffffffffffffff166fffffffffffffffffffffffffffffffff166fffffffffffffffffffffffffffffffff1681526020016001820160009054906101000a90046fffffffffffffffffffffffffffffffff166fffffffffffffffffffffffffffffffff166fffffffffffffffffffffffffffffffff1681526020016001820160109054906101000a90046fffffffffffffffffffffffffffffffff166fffffffffffffffffffffffffffffffff166fffffffffffffffffffffffffffffffff16815250509050611c59610d52565b15611c99576040517f08c379a0000000000000000000000000000000000000000000000000000000008152600401611c9090614dc3565b60405180910390fd5b611ca161191a565b611ce0576040517f08c379a0000000000000000000000000000000000000000000000000000000008152600401611cd790614e2f565b60405180910390fd5b600081602001516fffffffffffffffffffffffffffffffff1611611d39576040517f08c379a0000000000000000000000000000000000000000000000000000000008152600401611d3090614e9b565b60405180910390fd5b600860099054906101000a900467ffffffffffffffff1667ffffffffffffffff1684611d63610d69565b611d6d9190614ebb565b1115611dae576040517f08c379a0000000000000000000000000000000000000000000000000000000008152600401611da590614f3b565b60405180910390fd5b611db733610e60565b841115611df9576040517f08c379a0000000000000000000000000000000000000000000000000000000008152600401611df090614ff3565b60405180910390fd5b611e0c848361316490919063ffffffff16565b341015611e4e576040517f08c379a0000000000000000000000000000000000000000000000000000000008152600401611e4590615085565b60405180910390fd5b60005b84811015611ee357611e8333600860019054906101000a900467ffffffffffffffff1667ffffffffffffffff1661317a565b6008600181819054906101000a900467ffffffffffffffff1680929190611ea9906150a5565b91906101000a81548167ffffffffffffffff021916908367ffffffffffffffff160217905550508080611edb90614cc3565b915050611e51565b5083600e60003373ffffffffffffffffffffffffffffffffffffffff1673ffffffffffffffffffffffffffffffffffffffff16815260200190815260200160002060000160008282829054906101000a90046fffffffffffffffffffffffffffffffff16611f5191906150d5565b92506101000a8154816fffffffffffffffffffffffffffffffff02191690836fffffffffffffffffffffffffffffffff16021790555083600e60003373ffffffffffffffffffffffffffffffffffffffff1673ffffffffffffffffffffffffffffffffffffffff16815260200190815260200160002060010160008282829054906101000a90046fffffffffffffffffffffffffffffffff16611ff491906150d5565b92506101000a8154816fffffffffffffffffffffffffffffffff02191690836fffffffffffffffffffffffffffffffff16021790555050505050565b600061203b82612702565b61204483612810565b61204e9190614673565b9050919050565b600080600e60008473ffffffffffffffffffffffffffffffffffffffff1673ffffffffffffffffffffffffffffffffffffffff1681526020019081526020016000206040518060800160405290816000820160009054906101000a90046fffffffffffffffffffffffffffffffff166fffffffffffffffffffffffffffffffff166fffffffffffffffffffffffffffffffff1681526020016000820160109054906101000a90046fffffffffffffffffffffffffffffffff166fffffffffffffffffffffffffffffffff166fffffffffffffffffffffffffffffffff1681526020016001820160009054906101000a90046fffffffffffffffffffffffffffffffff166fffffffffffffffffffffffffffffffff166fffffffffffffffffffffffffffffffff1681526020016001820160109054906101000a90046fffffffffffffffffffffffffffffffff166fffffffffffffffffffffffffffffffff166fffffffffffffffffffffffffffffffff16815250509050600081606001516fffffffffffffffffffffffffffffffff16036121fb57600567ffffffffffffffff16612213565b80606001516fffffffffffffffffffffffffffffffff165b915050919050565b606061222682612928565b6000612230613198565b90506000815111612250576040518060200160405280600081525061227b565b8061225a8461322a565b60405160200161226b929190615155565b6040516020818303038152906040525b915050919050565b3373ffffffffffffffffffffffffffffffffffffffff163273ffffffffffffffffffffffffffffffffffffffff16146122f1576040517f08c379a00000000000000000000000000000000000000000000000000000000081526004016122e890614d57565b60405180910390fd5b6000600c6040518060800160405290816000820160009054906101000a900461ffff1661ffff1661ffff1681526020016000820160029054906101000a900463ffffffff1663ffffffff1663ffffffff1681526020016000820160069054906101000a900463ffffffff1663ffffffff1663ffffffff16815260200160018201548152505090506000816020015163ffffffff1690506000826060015190508382146123d2576040517f08c379a00000000000000000000000000000000000000000000000000000000081526004016123c9906151eb565b60405180910390fd5b6123da610d52565b1561241a576040517f08c379a000000000000000000000000000000000000000000000000000000000815260040161241190614dc3565b60405180910390fd5b612422611077565b612461576040517f08c379a000000000000000000000000000000000000000000000000000000000815260040161245890615257565b60405180910390fd5b600860099054906101000a900467ffffffffffffffff1667ffffffffffffffff168561248b610d69565b6124959190614ebb565b11156124d6576040517f08c379a00000000000000000000000000000000000000000000000000000000081526004016124cd90614f3b565b60405180910390fd5b6124df33612030565b851115612521576040517f08c379a0000000000000000000000000000000000000000000000000000000008152600401612518906152e9565b60405180910390fd5b612534858261316490919063ffffffff16565b341015612576576040517f08c379a000000000000000000000000000000000000000000000000000000000815260040161256d90615085565b60405180910390fd5b60005b8581101561260b576125ab33600860019054906101000a900467ffffffffffffffff1667ffffffffffffffff1661317a565b6008600181819054906101000a900467ffffffffffffffff16809291906125d1906150a5565b91906101000a81548167ffffffffffffffff021916908367ffffffffffffffff16021790555050808061260390614cc3565b915050612579565b5084600e60003373ffffffffffffffffffffffffffffffffffffffff1673ffffffffffffffffffffffffffffffffffffffff16815260200190815260200160002060000160008282829054906101000a90046fffffffffffffffffffffffffffffffff1661267991906150d5565b92506101000a8154816fffffffffffffffffffffffffffffffff02191690836fffffffffffffffffffffffffffffffff1602179055505050505050565b600a8060000160009054906101000a900461ffff16908060000160029054906101000a900463ffffffff16908060000160069054906101000a900463ffffffff16908060010154905084565b6000600e60008373ffffffffffffffffffffffffffffffffffffffff1673ffffffffffffffffffffffffffffffffffffffff16815260200190815260200160002060000160009054906101000a90046fffffffffffffffffffffffffffffffff166fffffffffffffffffffffffffffffffff169050919050565b6000600560008473ffffffffffffffffffffffffffffffffffffffff1673ffffffffffffffffffffffffffffffffffffffff16815260200190815260200160002060008373ffffffffffffffffffffffffffffffffffffffff1673ffffffffffffffffffffffffffffffffffffffff16815260200190815260200160002060009054906101000a900460ff16905092915050565b600061281b82612055565b61282483611340565b61282e9190614ebb565b9050919050565b61271081565b612843612dc2565b600073ffffffffffffffffffffffffffffffffffffffff168173ffffffffffffffffffffffffffffffffffffffff16036128b2576040517f08c379a00000000000000000000000000000000000000000000000000000000081526004016128a99061537b565b60405180910390fd5b6128bb81612e7d565b50565b60007f01ffc9a7000000000000000000000000000000000000000000000000000000007bffffffffffffffffffffffffffffffffffffffffffffffffffffffff1916827bffffffffffffffffffffffffffffffffffffffffffffffffffffffff1916149050919050565b612931816132f8565b612970576040517f08c379a000000000000000000000000000000000000000000000000000000000815260040161296790614a0c565b60405180910390fd5b50565b600033905090565b816004600083815260200190815260200160002060006101000a81548173ffffffffffffffffffffffffffffffffffffffff021916908373ffffffffffffffffffffffffffffffffffffffff160217905550808273ffffffffffffffffffffffffffffffffffffffff166129ee83611194565b73ffffffffffffffffffffffffffffffffffffffff167f8c5be1e5ebec7d5bd14f71427d1e84f3dd0314c0f7b2291e5b200ac8c7c3b92560405160405180910390a45050565b600080612a4083611194565b90508073ffffffffffffffffffffffffffffffffffffffff168473ffffffffffffffffffffffffffffffffffffffff161480612a825750612a81818561277c565b5b80612ac057508373ffffffffffffffffffffffffffffffffffffffff16612aa884610bf5565b73ffffffffffffffffffffffffffffffffffffffff16145b91505092915050565b8273ffffffffffffffffffffffffffffffffffffffff16612ae982611194565b73ffffffffffffffffffffffffffffffffffffffff1614612b3f576040517f08c379a0000000000000000000000000000000000000000000000000000000008152600401612b369061540d565b60405180910390fd5b600073ffffffffffffffffffffffffffffffffffffffff168273ffffffffffffffffffffffffffffffffffffffff1603612bae576040517f08c379a0000000000000000000000000000000000000000000000000000000008152600401612ba59061549f565b60405180910390fd5b612bbb8383836001613339565b8273ffffffffffffffffffffffffffffffffffffffff16612bdb82611194565b73ffffffffffffffffffffffffffffffffffffffff1614612c31576040517f08c379a0000000000000000000000000000000000000000000000000000000008152600401612c289061540d565b60405180910390fd5b6004600082815260200190815260200160002060006101000a81549073ffffffffffffffffffffffffffffffffffffffff02191690556001600360008573ffffffffffffffffffffffffffffffffffffffff1673ffffffffffffffffffffffffffffffffffffffff168152602001908152602001600020600082825403925050819055506001600360008473ffffffffffffffffffffffffffffffffffffffff1673ffffffffffffffffffffffffffffffffffffffff16815260200190815260200160002060008282540192505081905550816002600083815260200190815260200160002060006101000a81548173ffffffffffffffffffffffffffffffffffffffff021916908373ffffffffffffffffffffffffffffffffffffffff160217905550808273ffffffffffffffffffffffffffffffffffffffff168473ffffffffffffffffffffffffffffffffffffffff167fddf252ad1be2c89b69c2b068fc378daa952ba7f163c4a11628f55a4df523b3ef60405160405180910390a4612dbd838383600161345f565b505050565b612dca612973565b73ffffffffffffffffffffffffffffffffffffffff16612de86113ba565b73ffffffffffffffffffffffffffffffffffffffff1614612e3e576040517f08c379a0000000000000000000000000000000000000000000000000000000008152600401612e359061550b565b60405180910390fd5b565b60006002600083815260200190815260200160002060009054906101000a900473ffffffffffffffffffffffffffffffffffffffff169050919050565b6000600660009054906101000a900473ffffffffffffffffffffffffffffffffffffffff16905081600660006101000a81548173ffffffffffffffffffffffffffffffffffffffff021916908373ffffffffffffffffffffffffffffffffffffffff1602179055508173ffffffffffffffffffffffffffffffffffffffff168173ffffffffffffffffffffffffffffffffffffffff167f8be0079c531659141344cd1fd0a4f28419497f9722a3daafe3b4186f6b6457e060405160405180910390a35050565b8173ffffffffffffffffffffffffffffffffffffffff168373ffffffffffffffffffffffffffffffffffffffff1603612fb1576040517f08c379a0000000000000000000000000000000000000000000000000000000008152600401612fa890615577565b60405180910390fd5b80600560008573ffffffffffffffffffffffffffffffffffffffff1673ffffffffffffffffffffffffffffffffffffffff16815260200190815260200160002060008473ffffffffffffffffffffffffffffffffffffffff1673ffffffffffffffffffffffffffffffffffffffff16815260200190815260200160002060006101000a81548160ff0219169083151502179055508173ffffffffffffffffffffffffffffffffffffffff168373ffffffffffffffffffffffffffffffffffffffff167f17307eab39ab6107e8899845ad3d59bd9653f200f220920489ca2b5937696c31836040516130a29190613a8e565b60405180910390a3505050565b6002600754036130f4576040517f08c379a00000000000000000000000000000000000000000000000000000000081526004016130eb906155e3565b60405180910390fd5b6002600781905550565b6001600781905550565b613113848484612ac9565b61311f84848484613465565b61315e576040517f08c379a000000000000000000000000000000000000000000000000000000000815260040161315590615675565b60405180910390fd5b50505050565b600081836131729190615695565b905092915050565b6131948282604051806020016040528060008152506135ec565b5050565b6060600980546131a7906144ef565b80601f01602080910402602001604051908101604052809291908181526020018280546131d3906144ef565b80156132205780601f106131f557610100808354040283529160200191613220565b820191906000526020600020905b81548152906001019060200180831161320357829003601f168201915b5050505050905090565b60606000600161323984613647565b01905060008167ffffffffffffffff8111156132585761325761408f565b5b6040519080825280601f01601f19166020018201604052801561328a5781602001600182028036833780820191505090505b509050600082602001820190505b6001156132ed578080600190039150507f3031323334353637383961626364656600000000000000000000000000000000600a86061a8153600a85816132e1576132e06156d7565b5b04945060008503613298575b819350505050919050565b60008073ffffffffffffffffffffffffffffffffffffffff1661331a83612e40565b73ffffffffffffffffffffffffffffffffffffffff1614159050919050565b600181111561345957600073ffffffffffffffffffffffffffffffffffffffff168473ffffffffffffffffffffffffffffffffffffffff16146133cd5780600360008673ffffffffffffffffffffffffffffffffffffffff1673ffffffffffffffffffffffffffffffffffffffff16815260200190815260200160002060008282546133c59190614673565b925050819055505b600073ffffffffffffffffffffffffffffffffffffffff168373ffffffffffffffffffffffffffffffffffffffff16146134585780600360008573ffffffffffffffffffffffffffffffffffffffff1673ffffffffffffffffffffffffffffffffffffffff16815260200190815260200160002060008282546134509190614ebb565b925050819055505b5b50505050565b50505050565b60006134868473ffffffffffffffffffffffffffffffffffffffff1661379a565b156135df578373ffffffffffffffffffffffffffffffffffffffff1663150b7a026134af612973565b8786866040518563ffffffff1660e01b81526004016134d1949392919061575b565b6020604051808303816000875af192505050801561350d57506040513d601f19601f8201168201806040525081019061350a91906157bc565b60015b61358f573d806000811461353d576040519150601f19603f3d011682016040523d82523d6000602084013e613542565b606091505b506000815103613587576040517f08c379a000000000000000000000000000000000000000000000000000000000815260040161357e90615675565b60405180910390fd5b805181602001fd5b63150b7a0260e01b7bffffffffffffffffffffffffffffffffffffffffffffffffffffffff1916817bffffffffffffffffffffffffffffffffffffffffffffffffffffffff1916149150506135e4565b600190505b949350505050565b6135f683836137bd565b6136036000848484613465565b613642576040517f08c379a000000000000000000000000000000000000000000000000000000000815260040161363990615675565b60405180910390fd5b505050565b600080600090507a184f03e93ff9f4daa797ed6e38ed64bf6a1f01000000000000000083106136a5577a184f03e93ff9f4daa797ed6e38ed64bf6a1f010000000000000000838161369b5761369a6156d7565b5b0492506040810190505b6d04ee2d6d415b85acef810000000083106136e2576d04ee2d6d415b85acef810000000083816136d8576136d76156d7565b5b0492506020810190505b662386f26fc10000831061371157662386f26fc100008381613707576137066156d7565b5b0492506010810190505b6305f5e100831061373a576305f5e10083816137305761372f6156d7565b5b0492506008810190505b612710831061375f576127108381613755576137546156d7565b5b0492506004810190505b606483106137825760648381613778576137776156d7565b5b0492506002810190505b600a8310613791576001810190505b80915050919050565b6000808273ffffffffffffffffffffffffffffffffffffffff163b119050919050565b600073ffffffffffffffffffffffffffffffffffffffff168273ffffffffffffffffffffffffffffffffffffffff160361382c576040517f08c379a000000000000000000000000000000000000000000000000000000000815260040161382390615835565b60405180910390fd5b613835816132f8565b15613875576040517f08c379a000000000000000000000000000000000000000000000000000000000815260040161386c906158a1565b60405180910390fd5b613883600083836001613339565b61388c816132f8565b156138cc576040517f08c379a00000000000000000000000000000000000000000000000000000000081526004016138c3906158a1565b60405180910390fd5b6001600360008473ffffffffffffffffffffffffffffffffffffffff1673ffffffffffffffffffffffffffffffffffffffff16815260200190815260200160002060008282540192505081905550816002600083815260200190815260200160002060006101000a81548173ffffffffffffffffffffffffffffffffffffffff021916908373ffffffffffffffffffffffffffffffffffffffff160217905550808273ffffffffffffffffffffffffffffffffffffffff16600073ffffffffffffffffffffffffffffffffffffffff167fddf252ad1be2c89b69c2b068fc378daa952ba7f163c4a11628f55a4df523b3ef60405160405180910390a46139d660008383600161345f565b5050565b6000604051905090565b600080fd5b600080fd5b60007fffffffff0000000000000000000000000000000000000000000000000000000082169050919050565b613a23816139ee565b8114613a2e57600080fd5b50565b600081359050613a4081613a1a565b92915050565b600060208284031215613a5c57613a5b6139e4565b5b6000613a6a84828501613a31565b91505092915050565b60008115159050919050565b613a8881613a73565b82525050565b6000602082019050613aa36000830184613a7f565b92915050565b600067ffffffffffffffff82169050919050565b613ac681613aa9565b82525050565b6000602082019050613ae16000830184613abd565b92915050565b600081519050919050565b600082825260208201905092915050565b60005b83811015613b21578082015181840152602081019050613b06565b60008484015250505050565b6000601f19601f8301169050919050565b6000613b4982613ae7565b613b538185613af2565b9350613b63818560208601613b03565b613b6c81613b2d565b840191505092915050565b60006020820190508181036000830152613b918184613b3e565b905092915050565b6000819050919050565b613bac81613b99565b8114613bb757600080fd5b50565b600081359050613bc981613ba3565b92915050565b600060208284031215613be557613be46139e4565b5b6000613bf384828501613bba565b91505092915050565b600073ffffffffffffffffffffffffffffffffffffffff82169050919050565b6000613c2782613bfc565b9050919050565b613c3781613c1c565b82525050565b6000602082019050613c526000830184613c2e565b92915050565b613c6181613c1c565b8114613c6c57600080fd5b50565b600081359050613c7e81613c58565b92915050565b60008060408385031215613c9b57613c9a6139e4565b5b6000613ca985828601613c6f565b9250506020613cba85828601613bba565b9150509250929050565b613ccd81613b99565b82525050565b6000602082019050613ce86000830184613cc4565b92915050565b600060208284031215613d0457613d036139e4565b5b6000613d1284828501613c6f565b91505092915050565b600080600060608486031215613d3457613d336139e4565b5b6000613d4286828701613c6f565b9350506020613d5386828701613c6f565b9250506040613d6486828701613bba565b9150509250925092565b600080fd5b600080fd5b600080fd5b60008083601f840112613d9357613d92613d6e565b5b8235905067ffffffffffffffff811115613db057613daf613d73565b5b602083019150836001820283011115613dcc57613dcb613d78565b5b9250929050565b60008060208385031215613dea57613de96139e4565b5b600083013567ffffffffffffffff811115613e0857613e076139e9565b5b613e1485828601613d7d565b92509250509250929050565b600061ffff82169050919050565b613e3781613e20565b8114613e4257600080fd5b50565b600081359050613e5481613e2e565b92915050565b600063ffffffff82169050919050565b613e7381613e5a565b8114613e7e57600080fd5b50565b600081359050613e9081613e6a565b92915050565b600080600060608486031215613eaf57613eae6139e4565b5b6000613ebd86828701613e45565b9350506020613ece86828701613bba565b9250506040613edf86828701613e81565b9150509250925092565b60006fffffffffffffffffffffffffffffffff82169050919050565b613f0e81613ee9565b82525050565b6000608082019050613f296000830187613f05565b613f366020830186613f05565b613f436040830185613f05565b613f506060830184613f05565b95945050505050565b613f6281613a73565b8114613f6d57600080fd5b50565b600081359050613f7f81613f59565b92915050565b60008060408385031215613f9c57613f9b6139e4565b5b6000613faa85828601613c6f565b9250506020613fbb85828601613f70565b9150509250929050565b613fce81613e20565b82525050565b613fdd81613e5a565b82525050565b6000608082019050613ff86000830187613fc5565b6140056020830186613fd4565b6140126040830185613fd4565b61401f6060830184613cc4565b95945050505050565b60008060008060808587031215614042576140416139e4565b5b600061405087828801613e45565b945050602061406187828801613bba565b935050604061407287828801613e81565b925050606061408387828801613e81565b91505092959194509250565b7f4e487b7100000000000000000000000000000000000000000000000000000000600052604160045260246000fd5b6140c782613b2d565b810181811067ffffffffffffffff821117156140e6576140e561408f565b5b80604052505050565b60006140f96139da565b905061410582826140be565b919050565b600067ffffffffffffffff8211156141255761412461408f565b5b602082029050602081019050919050565b60006141496141448461410a565b6140ef565b9050808382526020820190506020840283018581111561416c5761416b613d78565b5b835b8181101561419557806141818882613c6f565b84526020840193505060208101905061416e565b5050509392505050565b600082601f8301126141b4576141b3613d6e565b5b81356141c4848260208601614136565b91505092915050565b600067ffffffffffffffff8211156141e8576141e761408f565b5b602082029050602081019050919050565b600061420c614207846141cd565b6140ef565b9050808382526020820190506020840283018581111561422f5761422e613d78565b5b835b8181101561425857806142448882613bba565b845260208401935050602081019050614231565b5050509392505050565b600082601f83011261427757614276613d6e565b5b81356142878482602086016141f9565b91505092915050565b600080604083850312156142a7576142a66139e4565b5b600083013567ffffffffffffffff8111156142c5576142c46139e9565b5b6142d18582860161419f565b925050602083013567ffffffffffffffff8111156142f2576142f16139e9565b5b6142fe85828601614262565b9150509250929050565b600080fd5b600067ffffffffffffffff8211156143285761432761408f565b5b61433182613b2d565b9050602081019050919050565b82818337600083830152505050565b600061436061435b8461430d565b6140ef565b90508281526020810184848401111561437c5761437b614308565b5b61438784828561433e565b509392505050565b600082601f8301126143a4576143a3613d6e565b5b81356143b484826020860161434d565b91505092915050565b600080600080608085870312156143d7576143d66139e4565b5b60006143e587828801613c6f565b94505060206143f687828801613c6f565b935050604061440787828801613bba565b925050606085013567ffffffffffffffff811115614428576144276139e9565b5b6144348782880161438f565b91505092959194509250565b60008060408385031215614457576144566139e4565b5b600061446585828601613bba565b925050602061447685828601613bba565b9150509250929050565b60008060408385031215614497576144966139e4565b5b60006144a585828601613c6f565b92505060206144b685828601613c6f565b9150509250929050565b7f4e487b7100000000000000000000000000000000000000000000000000000000600052602260045260246000fd5b6000600282049050600182168061450757607f821691505b60208210810361451a576145196144c0565b5b50919050565b7f4552433732313a20617070726f76616c20746f2063757272656e74206f776e6560008201527f7200000000000000000000000000000000000000000000000000000000000000602082015250565b600061457c602183613af2565b915061458782614520565b604082019050919050565b600060208201905081810360008301526145ab8161456f565b9050919050565b7f4552433732313a20617070726f76652063616c6c6572206973206e6f7420746f60008201527f6b656e206f776e6572206f7220617070726f76656420666f7220616c6c000000602082015250565b600061460e603d83613af2565b9150614619826145b2565b604082019050919050565b6000602082019050818103600083015261463d81614601565b9050919050565b7f4e487b7100000000000000000000000000000000000000000000000000000000600052601160045260246000fd5b600061467e82613b99565b915061468983613b99565b92508282039050818111156146a1576146a0614644565b5b92915050565b7f4552433732313a2063616c6c6572206973206e6f7420746f6b656e206f776e6560008201527f72206f7220617070726f76656400000000000000000000000000000000000000602082015250565b6000614703602d83613af2565b915061470e826146a7565b604082019050919050565b60006020820190508181036000830152614732816146f6565b9050919050565b600082905092915050565b60008190508160005260206000209050919050565b60006020601f8301049050919050565b600082821b905092915050565b6000600883026147a67fffffffffffffffffffffffffffffffffffffffffffffffffffffffffffffffff82614769565b6147b08683614769565b95508019841693508086168417925050509392505050565b6000819050919050565b60006147ed6147e86147e384613b99565b6147c8565b613b99565b9050919050565b6000819050919050565b614807836147d2565b61481b614813826147f4565b848454614776565b825550505050565b600090565b614830614823565b61483b8184846147fe565b505050565b5b8181101561485f57614854600082614828565b600181019050614841565b5050565b601f8211156148a45761487581614744565b61487e84614759565b8101602085101561488d578190505b6148a161489985614759565b830182614840565b50505b505050565b600082821c905092915050565b60006148c7600019846008026148a9565b1980831691505092915050565b60006148e083836148b6565b9150826002028217905092915050565b6148fa8383614739565b67ffffffffffffffff8111156149135761491261408f565b5b61491d82546144ef565b614928828285614863565b6000601f8311600181146149575760008415614945578287013590505b61494f85826148d4565b8655506149b7565b601f19841661496586614744565b60005b8281101561498d57848901358255600182019150602085019450602081019050614968565b868310156149aa57848901356149a6601f8916826148b6565b8355505b6001600288020188555050505b50505050505050565b7f4552433732313a20696e76616c696420746f6b656e2049440000000000000000600082015250565b60006149f6601883613af2565b9150614a01826149c0565b602082019050919050565b60006020820190508181036000830152614a25816149e9565b9050919050565b7f4552433732313a2061646472657373207a65726f206973206e6f74206120766160008201527f6c6964206f776e65720000000000000000000000000000000000000000000000602082015250565b6000614a88602983613af2565b9150614a9382614a2c565b604082019050919050565b60006020820190508181036000830152614ab781614a7b565b9050919050565b600081905092915050565b50565b6000614ad9600083614abe565b9150614ae482614ac9565b600082019050919050565b6000614afa82614acc565b9150819050919050565b7f5472616e73666572206661696c65642e00000000000000000000000000000000600082015250565b6000614b3a601083613af2565b9150614b4582614b04565b602082019050919050565b60006020820190508181036000830152614b6981614b2d565b9050919050565b7f63616e6e6f74206d616b6520636f6c6c656374696f6e2073697a6520736d616c60008201527f6c6572207468616e20737570706c790000000000000000000000000000000000602082015250565b6000614bcc602f83613af2565b9150614bd782614b70565b604082019050919050565b60006020820190508181036000830152614bfb81614bbf565b9050919050565b7f61646472657373657320646f6573206e6f74206d61746368206e756d536c6f7460008201527f73206c656e677468000000000000000000000000000000000000000000000000602082015250565b6000614c5e602883613af2565b9150614c6982614c02565b604082019050919050565b60006020820190508181036000830152614c8d81614c51565b9050919050565b7f4e487b7100000000000000000000000000000000000000000000000000000000600052603260045260246000fd5b6000614cce82613b99565b91507fffffffffffffffffffffffffffffffffffffffffffffffffffffffffffffffff8203614d0057614cff614644565b5b600182019050919050565b7f5468652063616c6c657220697320616e6f7468657220636f6e74726163740000600082015250565b6000614d41601e83613af2565b9150614d4c82614d0b565b602082019050919050565b60006020820190508181036000830152614d7081614d34565b9050919050565b7f6d696e7420697320706175736564000000000000000000000000000000000000600082015250565b6000614dad600e83613af2565b9150614db882614d77565b602082019050919050565b60006020820190508181036000830152614ddc81614da0565b9050919050565b7f616c6c6f776c6973742073616c6520686173206e6f7420626567756e20796574600082015250565b6000614e19602083613af2565b9150614e2482614de3565b602082019050919050565b60006020820190508181036000830152614e4881614e0c565b9050919050565b7f6e6f7420656c696769626c6520666f7220616c6c6f776c697374206d696e7400600082015250565b6000614e85601f83613af2565b9150614e9082614e4f565b602082019050919050565b60006020820190508181036000830152614eb481614e78565b9050919050565b6000614ec682613b99565b9150614ed183613b99565b9250828201905080821115614ee957614ee8614644565b5b92915050565b7f72656163686564206d617820737570706c790000000000000000000000000000600082015250565b6000614f25601283613af2565b9150614f3082614eef565b602082019050919050565b60006020820190508181036000830152614f5481614f18565b9050919050565b7f796f75206861766520657863656564656420746865206d6178206e756d62657260008201527f206f6620616c6c6f776c69737420746f6b656e7320796f752063616e206d696e60208201527f7400000000000000000000000000000000000000000000000000000000000000604082015250565b6000614fdd604183613af2565b9150614fe882614f5b565b606082019050919050565b6000602082019050818103600083015261500c81614fd0565b9050919050565b7f6e6f7420656e6f75676820657468657220746f20636f6d706c6574652070757260008201527f63686173652e0000000000000000000000000000000000000000000000000000602082015250565b600061506f602683613af2565b915061507a82615013565b604082019050919050565b6000602082019050818103600083015261509e81615062565b9050919050565b60006150b082613aa9565b915067ffffffffffffffff82036150ca576150c9614644565b5b600182019050919050565b60006150e082613ee9565b91506150eb83613ee9565b925082820190506fffffffffffffffffffffffffffffffff81111561511357615112614644565b5b92915050565b600081905092915050565b600061512f82613ae7565b6151398185615119565b9350615149818560208601613b03565b80840191505092915050565b60006151618285615124565b915061516d8284615124565b91508190509392505050565b7f63616c6c6564207769746820696e636f7272656374207075626c69632073616c60008201527f65206b6579000000000000000000000000000000000000000000000000000000602082015250565b60006151d5602583613af2565b91506151e082615179565b604082019050919050565b60006020820190508181036000830152615204816151c8565b9050919050565b7f7075626c69632073616c6520686173206e6f7420626567756e20796574000000600082015250565b6000615241601d83613af2565b915061524c8261520b565b602082019050919050565b6000602082019050818103600083015261527081615234565b9050919050565b7f796f75206861766520657863656564656420746865206d6178206e756d62657260008201527f206f6620746f6b656e7320796f752063616e206d696e74000000000000000000602082015250565b60006152d3603783613af2565b91506152de82615277565b604082019050919050565b60006020820190508181036000830152615302816152c6565b9050919050565b7f4f776e61626c653a206e6577206f776e657220697320746865207a65726f206160008201527f6464726573730000000000000000000000000000000000000000000000000000602082015250565b6000615365602683613af2565b915061537082615309565b604082019050919050565b6000602082019050818103600083015261539481615358565b9050919050565b7f4552433732313a207472616e736665722066726f6d20696e636f72726563742060008201527f6f776e6572000000000000000000000000000000000000000000000000000000602082015250565b60006153f7602583613af2565b91506154028261539b565b604082019050919050565b60006020820190508181036000830152615426816153ea565b9050919050565b7f4552433732313a207472616e7366657220746f20746865207a65726f2061646460008201527f7265737300000000000000000000000000000000000000000000000000000000602082015250565b6000615489602483613af2565b91506154948261542d565b604082019050919050565b600060208201905081810360008301526154b88161547c565b9050919050565b7f4f776e61626c653a2063616c6c6572206973206e6f7420746865206f776e6572600082015250565b60006154f5602083613af2565b9150615500826154bf565b602082019050919050565b60006020820190508181036000830152615524816154e8565b9050919050565b7f4552433732313a20617070726f766520746f2063616c6c657200000000000000600082015250565b6000615561601983613af2565b915061556c8261552b565b602082019050919050565b6000602082019050818103600083015261559081615554565b9050919050565b7f5265656e7472616e637947756172643a207265656e7472616e742063616c6c00600082015250565b60006155cd601f83613af2565b91506155d882615597565b602082019050919050565b600060208201905081810360008301526155fc816155c0565b9050919050565b7f4552433732313a207472616e7366657220746f206e6f6e20455243373231526560008201527f63656976657220696d706c656d656e7465720000000000000000000000000000602082015250565b600061565f603283613af2565b915061566a82615603565b604082019050919050565b6000602082019050818103600083015261568e81615652565b9050919050565b60006156a082613b99565b91506156ab83613b99565b92508282026156b981613b99565b915082820484148315176156d0576156cf614644565b5b5092915050565b7f4e487b7100000000000000000000000000000000000000000000000000000000600052601260045260246000fd5b600081519050919050565b600082825260208201905092915050565b600061572d82615706565b6157378185615711565b9350615747818560208601613b03565b61575081613b2d565b840191505092915050565b60006080820190506157706000830187613c2e565b61577d6020830186613c2e565b61578a6040830185613cc4565b818103606083015261579c8184615722565b905095945050505050565b6000815190506157b681613a1a565b92915050565b6000602082840312156157d2576157d16139e4565b5b60006157e0848285016157a7565b91505092915050565b7f4552433732313a206d696e7420746f20746865207a65726f2061646472657373600082015250565b600061581f602083613af2565b915061582a826157e9565b602082019050919050565b6000602082019050818103600083015261584e81615812565b9050919050565b7f4552433732313a20746f6b656e20616c7265616479206d696e74656400000000600082015250565b600061588b601c83613af2565b915061589682615855565b602082019050919050565b600060208201905081810360008301526158ba8161587e565b905091905056fea264697066735822122000c9142ca168bfd597450c0c99f3e56f66fb2838d4dc0c98c9a27cf7cc32267264736f6c63430008110033",
  "immutableReferences": {},
  "source": "//SPDX-License-Identifier: MIT\npragma solidity ^0.8.17;\n\nimport \"@openzeppelin/contracts/token/ERC721/ERC721.sol\";\nimport \"@openzeppelin/contracts/access/Ownable.sol\";\nimport \"@openzeppelin/contracts/utils/math/SafeMath.sol\";\nimport \"@openzeppelin/contracts/utils/Strings.sol\";\nimport \"@openzeppelin/contracts/security/ReentrancyGuard.sol\";\n\ncontract NineSeals is ERC721,Ownable,ReentrancyGuard{\n\n    using SafeMath for uint256;\n\n    uint64 public constant DEFAULT_MAX_BATCH_SIZE = 5;\n    uint64 public constant DEFAULT_COLLECTION_SIZE = 10000;\n\n    // uint8 public constant MAX_WL_PURCHASE_TOKENS = 3;\n    // uint8 public constant MAX_PUBLIC_PURCHASE_TOKENS = 5;    \n    // // uint16 public constant MAX_TOKENS = 444;    \n    // uint32 public PRESALE_DURATION = 1 days;\n\n    bool private _mintPaused;\n\n    uint64 private _tokenCounter;\n\n    uint64 public _totalAllowedTokens;\n\n    string private _baseTokenURI;\n    \n    // uint256 public preSaleStartTimestamp;\n\n    // bytes32 private merkleRootOne =\n    //     0xc891c5b4634598d1ed7cf4a3743ca20a33fc03bb10bcd7c45fe801e1434ba356;\n\n    struct SaleConfig {\n        uint16 maxBatchSize;\n        uint32 saleKey;\n        uint32 saleStartTime;\n        uint256 salePrice;        \n    }\n\n    SaleConfig public allowlistSaleConfig;\n\n    SaleConfig public publicSaleConfig;\n\n    struct Mintoor {  \n        uint128 tokenBalance;  \n        uint128 maxAllowlistTokens; \n        uint128 allowlistBalance; \n        uint128 maxPublicSaleTokens;\n    }\n\n    mapping(address => Mintoor) public mintoors;\n    \n    constructor( \n        string memory name, \n        string memory symbol\n    ) ERC721(name, symbol) ReentrancyGuard(){\n        _tokenCounter = 0;\n        _totalAllowedTokens = DEFAULT_COLLECTION_SIZE;\n        // _baseTokenURI = initialURI;\n    }\n\n    modifier callerIsUser() {\n        require(tx.origin == msg.sender, \"The caller is another contract\");\n        _;\n    }\n\n    // Mint: Allowlist\n    function allowlistMint(uint256 quantity) external payable callerIsUser {\n        SaleConfig memory config = allowlistSaleConfig;        \n        uint256 salePrice = uint256(config.salePrice);\n        Mintoor memory mintoor = mintoors[msg.sender];\n        \n        require(!isMintPaused(), \"mint is paused\");\n        require(isAllowlistSaleOn(), \"allowlist sale has not begun yet\");\n        require(mintoor.maxAllowlistTokens > 0, \"not eligible for allowlist mint\");\n        require(totalSupply() + quantity <= _totalAllowedTokens, \"reached max supply\");\n        require(quantity <= allowlistTokensRemaining(msg.sender), \"you have exceeded the max number of allowlist tokens you can mint\");\n        require(msg.value >= salePrice.mul(quantity), \"not enough ether to complete purchase.\");\n\n        for(uint256 i = 0; i < quantity; i++) {\n            _safeMint(msg.sender, _tokenCounter);\n            _tokenCounter++;\n        }\n\n        mintoors[msg.sender].tokenBalance += uint128(quantity);\n        mintoors[msg.sender].allowlistBalance += uint128(quantity);\n    }\n\n    // Mint: Public\n    function publicSaleMint(uint256 quantity, uint256 callerPublicSaleKey) external payable callerIsUser {\n        SaleConfig memory config = publicSaleConfig;\n        uint256 saleKey = uint256(config.saleKey);\n        uint256 salePrice = uint256(config.salePrice);\n        \n        require(saleKey == callerPublicSaleKey, \"called with incorrect public sale key\");\n        require(!isMintPaused(), \"mint is paused\");\n        require(isPublicSaleOn(), \"public sale has not begun yet\");\n        require(totalSupply() + quantity <= _totalAllowedTokens, \"reached max supply\");\n        require(quantity <= publicSaleTokensRemaining(msg.sender), \"you have exceeded the max number of tokens you can mint\");\n        require(msg.value >= salePrice.mul(quantity), \"not enough ether to complete purchase.\");\n\n        for(uint256 i = 0; i < quantity; i++) {\n            _safeMint(msg.sender, _tokenCounter);\n            _tokenCounter++;\n        }\n\n        mintoors[msg.sender].tokenBalance += uint128(quantity);\n    }\n\n    function seedAllowlist(address[] memory addresses, uint256[] memory numSlots) external onlyOwner {\n        require(addresses.length == numSlots.length, \"addresses does not match numSlots length\");\n        for (uint256 i = 0; i < addresses.length; i++) {\n            mintoors[addresses[i]].maxAllowlistTokens = uint128(numSlots[i]);\n        }\n    }\n\n    function initializeAllowlistSale(uint16 maxBatchSize, uint256 salePrice, uint32 saleStartTime) external onlyOwner {\n        allowlistSaleConfig.maxBatchSize = maxBatchSize;\n        allowlistSaleConfig.saleStartTime = saleStartTime;\n        allowlistSaleConfig.salePrice = salePrice;\n    }\n\n    function initializePublicSale(uint16 maxBatchSize, uint256 salePrice, uint32 saleStartTime, uint32 saleKey) external onlyOwner {\n        publicSaleConfig.maxBatchSize = maxBatchSize;\n        publicSaleConfig.saleKey = saleKey;\n        publicSaleConfig.saleStartTime = saleStartTime;\n        publicSaleConfig.salePrice = salePrice;\n    }\n\n    function setCollectionSize(uint256 collectionSize) external onlyOwner {\n        require(_totalAllowedTokens >= totalSupply(), \"cannot make collection size smaller than supply\");\n        _totalAllowedTokens = uint64(collectionSize);\n    }\n\n    function totalSupply() public view returns (uint256) {\n        return _tokenCounter;\n    }\n\n    \n    function _baseURI() internal view virtual override returns (string memory) {\n        return _baseTokenURI;\n    }\n\n    function setBaseURI(string calldata baseURI) external onlyOwner {\n        _baseTokenURI = baseURI;\n    }\n\n    function withdrawMoney() external onlyOwner nonReentrant {\n        (bool success, ) = msg.sender.call{value: address(this).balance}(\"\");\n        require(success, \"Transfer failed.\");\n    }\n\n    function collectionSize() public view returns (uint256) {\n        return _totalAllowedTokens;\n    }\n    \n    function numberMinted(address owner) public view returns (uint256) {\n        return uint256(mintoors[owner].tokenBalance);\n    }\n\n    function maxMintableTokens(address owner) public view returns (uint256) {\n        return allowlistSlots(owner) + publicSaleSlots(owner);\n    }\n\n    function publicSaleSlots(address owner) public view returns (uint256) {\n        Mintoor memory mintoor = mintoors[owner];\n        return mintoor.maxPublicSaleTokens != 0 ? uint256(mintoor.maxPublicSaleTokens) : uint256(DEFAULT_MAX_BATCH_SIZE);\n    }\n\n    function publicSaleTokensRemaining(address owner) public view returns (uint256) {\n        return maxMintableTokens(owner) - numberMinted(owner);\n    }\n\n    function allowlistSlots(address owner) public view returns (uint256) {\n        return uint256(mintoors[owner].maxAllowlistTokens);\n    }\n\n    function allowlistTokensRemaining(address owner) public view returns (uint256) {\n        Mintoor memory mintoor = mintoors[owner];\n        return uint256(mintoor.maxAllowlistTokens) - uint256(mintoor.allowlistBalance);\n    }\n\n    function getAllowlistSaleDuration() public view returns (uint256) {\n        SaleConfig memory config = allowlistSaleConfig; \n        return block.timestamp - config.saleStartTime;\n    }\n\n    function isAllowlistSaleOn() public view returns (bool) {\n        SaleConfig memory config = allowlistSaleConfig; \n        return !isPublicSaleOn() && config.saleStartTime > 0 && block.timestamp >= config.saleStartTime;\n    }\n\n    function isPublicSaleOn() public view returns (bool) {\n        SaleConfig memory config = publicSaleConfig; \n        return config.saleStartTime > 0 && block.timestamp >= config.saleStartTime;\n    }\n\n    function isSaleClosed() public view returns (bool) {\n        return totalSupply() > 0 && totalSupply() >= collectionSize();\n    }\n\n    function isMintPaused() public view returns (bool) {\n        return _mintPaused;\n    }\n\n    function getMintPrice() public view returns (uint256) {\n        if (isPublicSaleOn()) {\n           return publicSaleConfig.salePrice;\n        } else if (isAllowlistSaleOn()) {\n            return allowlistSaleConfig.salePrice;\n        } else {\n            return 0;\n        }\n    }\n}",
  "sourcePath": "/Users/bash/Sites/nineseals/main/contracts/NineSeals.sol",
  "compiler": {
    "name": "solc",
    "version": "0.8.17+commit.8df45f5f.Emscripten.clang"
  },
  "schemaVersion": "3.4.11",
  "updatedAt": "2023-01-14T05:14:15.848Z",
  "networkType": "ethereum",
  "devdoc": {
    "kind": "dev",
    "methods": {
      "approve(address,uint256)": {
        "details": "See {IERC721-approve}."
      },
      "balanceOf(address)": {
        "details": "See {IERC721-balanceOf}."
      },
      "getApproved(uint256)": {
        "details": "See {IERC721-getApproved}."
      },
      "isApprovedForAll(address,address)": {
        "details": "See {IERC721-isApprovedForAll}."
      },
      "name()": {
        "details": "See {IERC721Metadata-name}."
      },
      "owner()": {
        "details": "Returns the address of the current owner."
      },
      "ownerOf(uint256)": {
        "details": "See {IERC721-ownerOf}."
      },
      "renounceOwnership()": {
        "details": "Leaves the contract without owner. It will not be possible to call `onlyOwner` functions anymore. Can only be called by the current owner. NOTE: Renouncing ownership will leave the contract without an owner, thereby removing any functionality that is only available to the owner."
      },
      "safeTransferFrom(address,address,uint256)": {
        "details": "See {IERC721-safeTransferFrom}."
      },
      "safeTransferFrom(address,address,uint256,bytes)": {
        "details": "See {IERC721-safeTransferFrom}."
      },
      "setApprovalForAll(address,bool)": {
        "details": "See {IERC721-setApprovalForAll}."
      },
      "supportsInterface(bytes4)": {
        "details": "See {IERC165-supportsInterface}."
      },
      "symbol()": {
        "details": "See {IERC721Metadata-symbol}."
      },
      "tokenURI(uint256)": {
        "details": "See {IERC721Metadata-tokenURI}."
      },
      "transferFrom(address,address,uint256)": {
        "details": "See {IERC721-transferFrom}."
      },
      "transferOwnership(address)": {
        "details": "Transfers ownership of the contract to a new account (`newOwner`). Can only be called by the current owner."
      }
    },
    "version": 1
  },
  "userdoc": {
    "kind": "user",
    "methods": {},
    "version": 1
  }
}