{
  "contractName": "NineSeals",
  "abi": [
    {
      "inputs": [
        {
          "internalType": "string",
          "name": "name",
          "type": "string"
        },
        {
          "internalType": "string",
          "name": "symbol",
          "type": "string"
        }
      ],
      "stateMutability": "nonpayable",
      "type": "constructor"
    },
    {
      "anonymous": false,
      "inputs": [
        {
          "indexed": true,
          "internalType": "address",
          "name": "owner",
          "type": "address"
        },
        {
          "indexed": true,
          "internalType": "address",
          "name": "approved",
          "type": "address"
        },
        {
          "indexed": true,
          "internalType": "uint256",
          "name": "tokenId",
          "type": "uint256"
        }
      ],
      "name": "Approval",
      "type": "event"
    },
    {
      "anonymous": false,
      "inputs": [
        {
          "indexed": true,
          "internalType": "address",
          "name": "owner",
          "type": "address"
        },
        {
          "indexed": true,
          "internalType": "address",
          "name": "operator",
          "type": "address"
        },
        {
          "indexed": false,
          "internalType": "bool",
          "name": "approved",
          "type": "bool"
        }
      ],
      "name": "ApprovalForAll",
      "type": "event"
    },
    {
      "anonymous": false,
      "inputs": [
        {
          "indexed": true,
          "internalType": "address",
          "name": "previousOwner",
          "type": "address"
        },
        {
          "indexed": true,
          "internalType": "address",
          "name": "newOwner",
          "type": "address"
        }
      ],
      "name": "OwnershipTransferred",
      "type": "event"
    },
    {
      "anonymous": false,
      "inputs": [
        {
          "indexed": true,
          "internalType": "address",
          "name": "from",
          "type": "address"
        },
        {
          "indexed": true,
          "internalType": "address",
          "name": "to",
          "type": "address"
        },
        {
          "indexed": true,
          "internalType": "uint256",
          "name": "tokenId",
          "type": "uint256"
        }
      ],
      "name": "Transfer",
      "type": "event"
    },
    {
      "inputs": [],
      "name": "DEFAULT_COLLECTION_SIZE",
      "outputs": [
        {
          "internalType": "uint64",
          "name": "",
          "type": "uint64"
        }
      ],
      "stateMutability": "view",
      "type": "function",
      "constant": true
    },
    {
      "inputs": [],
      "name": "DEFAULT_MAX_BATCH_SIZE",
      "outputs": [
        {
          "internalType": "uint64",
          "name": "",
          "type": "uint64"
        }
      ],
      "stateMutability": "view",
      "type": "function",
      "constant": true
    },
    {
      "inputs": [],
      "name": "allowlistSaleConfig",
      "outputs": [
        {
          "internalType": "uint16",
          "name": "maxBatchSize",
          "type": "uint16"
        },
        {
          "internalType": "uint32",
          "name": "saleKey",
          "type": "uint32"
        },
        {
          "internalType": "uint32",
          "name": "saleStartTime",
          "type": "uint32"
        },
        {
          "internalType": "uint256",
          "name": "salePrice",
          "type": "uint256"
        }
      ],
      "stateMutability": "view",
      "type": "function",
      "constant": true
    },
    {
      "inputs": [
        {
          "internalType": "address",
          "name": "to",
          "type": "address"
        },
        {
          "internalType": "uint256",
          "name": "tokenId",
          "type": "uint256"
        }
      ],
      "name": "approve",
      "outputs": [],
      "stateMutability": "nonpayable",
      "type": "function"
    },
    {
      "inputs": [
        {
          "internalType": "address",
          "name": "owner",
          "type": "address"
        }
      ],
      "name": "balanceOf",
      "outputs": [
        {
          "internalType": "uint256",
          "name": "",
          "type": "uint256"
        }
      ],
      "stateMutability": "view",
      "type": "function",
      "constant": true
    },
    {
      "inputs": [
        {
          "internalType": "uint256",
          "name": "tokenId",
          "type": "uint256"
        }
      ],
      "name": "getApproved",
      "outputs": [
        {
          "internalType": "address",
          "name": "",
          "type": "address"
        }
      ],
      "stateMutability": "view",
      "type": "function",
      "constant": true
    },
    {
      "inputs": [
        {
          "internalType": "address",
          "name": "owner",
          "type": "address"
        },
        {
          "internalType": "address",
          "name": "operator",
          "type": "address"
        }
      ],
      "name": "isApprovedForAll",
      "outputs": [
        {
          "internalType": "bool",
          "name": "",
          "type": "bool"
        }
      ],
      "stateMutability": "view",
      "type": "function",
      "constant": true
    },
    {
      "inputs": [
        {
          "internalType": "address",
          "name": "",
          "type": "address"
        }
      ],
      "name": "mintoors",
      "outputs": [
        {
          "internalType": "uint128",
          "name": "tokenBalance",
          "type": "uint128"
        },
        {
          "internalType": "uint128",
          "name": "maxAllowlistTokens",
          "type": "uint128"
        },
        {
          "internalType": "uint128",
          "name": "allowlistBalance",
          "type": "uint128"
        },
        {
          "internalType": "uint128",
          "name": "maxPublicSaleTokens",
          "type": "uint128"
        }
      ],
      "stateMutability": "view",
      "type": "function",
      "constant": true
    },
    {
      "inputs": [],
      "name": "name",
      "outputs": [
        {
          "internalType": "string",
          "name": "",
          "type": "string"
        }
      ],
      "stateMutability": "view",
      "type": "function",
      "constant": true
    },
    {
      "inputs": [],
      "name": "owner",
      "outputs": [
        {
          "internalType": "address",
          "name": "",
          "type": "address"
        }
      ],
      "stateMutability": "view",
      "type": "function",
      "constant": true
    },
    {
      "inputs": [
        {
          "internalType": "uint256",
          "name": "tokenId",
          "type": "uint256"
        }
      ],
      "name": "ownerOf",
      "outputs": [
        {
          "internalType": "address",
          "name": "",
          "type": "address"
        }
      ],
      "stateMutability": "view",
      "type": "function",
      "constant": true
    },
    {
      "inputs": [],
      "name": "publicSaleConfig",
      "outputs": [
        {
          "internalType": "uint16",
          "name": "maxBatchSize",
          "type": "uint16"
        },
        {
          "internalType": "uint32",
          "name": "saleKey",
          "type": "uint32"
        },
        {
          "internalType": "uint32",
          "name": "saleStartTime",
          "type": "uint32"
        },
        {
          "internalType": "uint256",
          "name": "salePrice",
          "type": "uint256"
        }
      ],
      "stateMutability": "view",
      "type": "function",
      "constant": true
    },
    {
      "inputs": [],
      "name": "renounceOwnership",
      "outputs": [],
      "stateMutability": "nonpayable",
      "type": "function"
    },
    {
      "inputs": [
        {
          "internalType": "address",
          "name": "from",
          "type": "address"
        },
        {
          "internalType": "address",
          "name": "to",
          "type": "address"
        },
        {
          "internalType": "uint256",
          "name": "tokenId",
          "type": "uint256"
        }
      ],
      "name": "safeTransferFrom",
      "outputs": [],
      "stateMutability": "nonpayable",
      "type": "function"
    },
    {
      "inputs": [
        {
          "internalType": "address",
          "name": "from",
          "type": "address"
        },
        {
          "internalType": "address",
          "name": "to",
          "type": "address"
        },
        {
          "internalType": "uint256",
          "name": "tokenId",
          "type": "uint256"
        },
        {
          "internalType": "bytes",
          "name": "data",
          "type": "bytes"
        }
      ],
      "name": "safeTransferFrom",
      "outputs": [],
      "stateMutability": "nonpayable",
      "type": "function"
    },
    {
      "inputs": [
        {
          "internalType": "address",
          "name": "operator",
          "type": "address"
        },
        {
          "internalType": "bool",
          "name": "approved",
          "type": "bool"
        }
      ],
      "name": "setApprovalForAll",
      "outputs": [],
      "stateMutability": "nonpayable",
      "type": "function"
    },
    {
      "inputs": [
        {
          "internalType": "bytes4",
          "name": "interfaceId",
          "type": "bytes4"
        }
      ],
      "name": "supportsInterface",
      "outputs": [
        {
          "internalType": "bool",
          "name": "",
          "type": "bool"
        }
      ],
      "stateMutability": "view",
      "type": "function",
      "constant": true
    },
    {
      "inputs": [],
      "name": "symbol",
      "outputs": [
        {
          "internalType": "string",
          "name": "",
          "type": "string"
        }
      ],
      "stateMutability": "view",
      "type": "function",
      "constant": true
    },
    {
      "inputs": [
        {
          "internalType": "uint256",
          "name": "tokenId",
          "type": "uint256"
        }
      ],
      "name": "tokenURI",
      "outputs": [
        {
          "internalType": "string",
          "name": "",
          "type": "string"
        }
      ],
      "stateMutability": "view",
      "type": "function",
      "constant": true
    },
    {
      "inputs": [
        {
          "internalType": "address",
          "name": "from",
          "type": "address"
        },
        {
          "internalType": "address",
          "name": "to",
          "type": "address"
        },
        {
          "internalType": "uint256",
          "name": "tokenId",
          "type": "uint256"
        }
      ],
      "name": "transferFrom",
      "outputs": [],
      "stateMutability": "nonpayable",
      "type": "function"
    },
    {
      "inputs": [
        {
          "internalType": "address",
          "name": "newOwner",
          "type": "address"
        }
      ],
      "name": "transferOwnership",
      "outputs": [],
      "stateMutability": "nonpayable",
      "type": "function"
    },
    {
      "inputs": [
        {
          "internalType": "uint256",
          "name": "quantity",
          "type": "uint256"
        }
      ],
      "name": "ownerMint",
      "outputs": [],
      "stateMutability": "nonpayable",
      "type": "function"
    },
    {
      "inputs": [
        {
          "internalType": "uint256",
          "name": "quantity",
          "type": "uint256"
        }
      ],
      "name": "allowlistMint",
      "outputs": [],
      "stateMutability": "payable",
      "type": "function",
      "payable": true
    },
    {
      "inputs": [
        {
          "internalType": "uint256",
          "name": "quantity",
          "type": "uint256"
        },
        {
          "internalType": "uint256",
          "name": "callerPublicSaleKey",
          "type": "uint256"
        }
      ],
      "name": "publicSaleMint",
      "outputs": [],
      "stateMutability": "payable",
      "type": "function",
      "payable": true
    },
    {
      "inputs": [
        {
          "internalType": "address[]",
          "name": "addresses",
          "type": "address[]"
        },
        {
          "internalType": "uint256[]",
          "name": "numSlots",
          "type": "uint256[]"
        }
      ],
      "name": "seedAllowlist",
      "outputs": [],
      "stateMutability": "nonpayable",
      "type": "function"
    },
    {
      "inputs": [
        {
          "internalType": "address[]",
          "name": "addresses",
          "type": "address[]"
        },
        {
          "internalType": "uint256[]",
          "name": "numSlots",
          "type": "uint256[]"
        }
      ],
      "name": "updateMaxMints",
      "outputs": [],
      "stateMutability": "nonpayable",
      "type": "function"
    },
    {
      "inputs": [
        {
          "internalType": "uint16",
          "name": "maxBatchSize",
          "type": "uint16"
        },
        {
          "internalType": "uint256",
          "name": "salePrice",
          "type": "uint256"
        },
        {
          "internalType": "uint32",
          "name": "saleStartTime",
          "type": "uint32"
        }
      ],
      "name": "initializeAllowlistSale",
      "outputs": [],
      "stateMutability": "nonpayable",
      "type": "function"
    },
    {
      "inputs": [
        {
          "internalType": "uint16",
          "name": "maxBatchSize",
          "type": "uint16"
        },
        {
          "internalType": "uint256",
          "name": "salePrice",
          "type": "uint256"
        },
        {
          "internalType": "uint32",
          "name": "saleStartTime",
          "type": "uint32"
        },
        {
          "internalType": "uint32",
          "name": "saleKey",
          "type": "uint32"
        }
      ],
      "name": "initializePublicSale",
      "outputs": [],
      "stateMutability": "nonpayable",
      "type": "function"
    },
    {
      "inputs": [
        {
          "internalType": "uint256",
          "name": "_collectionSize",
          "type": "uint256"
        }
      ],
      "name": "setCollectionSize",
      "outputs": [],
      "stateMutability": "nonpayable",
      "type": "function"
    },
    {
      "inputs": [],
      "name": "totalSupply",
      "outputs": [
        {
          "internalType": "uint256",
          "name": "",
          "type": "uint256"
        }
      ],
      "stateMutability": "view",
      "type": "function",
      "constant": true
    },
    {
      "inputs": [
        {
          "internalType": "string",
          "name": "baseURI",
          "type": "string"
        }
      ],
      "name": "setBaseURI",
      "outputs": [],
      "stateMutability": "nonpayable",
      "type": "function"
    },
    {
      "inputs": [],
      "name": "withdrawMoney",
      "outputs": [],
      "stateMutability": "nonpayable",
      "type": "function"
    },
    {
      "inputs": [],
      "name": "collectionSize",
      "outputs": [
        {
          "internalType": "uint256",
          "name": "",
          "type": "uint256"
        }
      ],
      "stateMutability": "view",
      "type": "function",
      "constant": true
    },
    {
      "inputs": [
        {
          "internalType": "address",
          "name": "owner",
          "type": "address"
        }
      ],
      "name": "numberMinted",
      "outputs": [
        {
          "internalType": "uint256",
          "name": "",
          "type": "uint256"
        }
      ],
      "stateMutability": "view",
      "type": "function",
      "constant": true
    },
    {
      "inputs": [
        {
          "internalType": "address",
          "name": "owner",
          "type": "address"
        }
      ],
      "name": "maxMintableTokens",
      "outputs": [
        {
          "internalType": "uint256",
          "name": "",
          "type": "uint256"
        }
      ],
      "stateMutability": "view",
      "type": "function",
      "constant": true
    },
    {
      "inputs": [
        {
          "internalType": "address",
          "name": "owner",
          "type": "address"
        }
      ],
      "name": "publicSaleSlots",
      "outputs": [
        {
          "internalType": "uint256",
          "name": "",
          "type": "uint256"
        }
      ],
      "stateMutability": "view",
      "type": "function",
      "constant": true
    },
    {
      "inputs": [
        {
          "internalType": "address",
          "name": "owner",
          "type": "address"
        }
      ],
      "name": "publicSaleTokensRemaining",
      "outputs": [
        {
          "internalType": "uint256",
          "name": "",
          "type": "uint256"
        }
      ],
      "stateMutability": "view",
      "type": "function",
      "constant": true
    },
    {
      "inputs": [
        {
          "internalType": "address",
          "name": "owner",
          "type": "address"
        }
      ],
      "name": "allowlistSlots",
      "outputs": [
        {
          "internalType": "uint256",
          "name": "",
          "type": "uint256"
        }
      ],
      "stateMutability": "view",
      "type": "function",
      "constant": true
    },
    {
      "inputs": [
        {
          "internalType": "address",
          "name": "owner",
          "type": "address"
        }
      ],
      "name": "allowlistTokensRemaining",
      "outputs": [
        {
          "internalType": "uint256",
          "name": "",
          "type": "uint256"
        }
      ],
      "stateMutability": "view",
      "type": "function",
      "constant": true
    },
    {
      "inputs": [],
      "name": "getAllowlistSaleDuration",
      "outputs": [
        {
          "internalType": "uint256",
          "name": "",
          "type": "uint256"
        }
      ],
      "stateMutability": "view",
      "type": "function",
      "constant": true
    },
    {
      "inputs": [],
      "name": "getSaleStatus",
      "outputs": [
        {
          "internalType": "uint8",
          "name": "",
          "type": "uint8"
        }
      ],
      "stateMutability": "view",
      "type": "function",
      "constant": true
    },
    {
      "inputs": [],
      "name": "isAllowlistSaleOn",
      "outputs": [
        {
          "internalType": "bool",
          "name": "",
          "type": "bool"
        }
      ],
      "stateMutability": "view",
      "type": "function",
      "constant": true
    },
    {
      "inputs": [],
      "name": "isPublicSaleOn",
      "outputs": [
        {
          "internalType": "bool",
          "name": "",
          "type": "bool"
        }
      ],
      "stateMutability": "view",
      "type": "function",
      "constant": true
    },
    {
      "inputs": [],
      "name": "isSaleClosed",
      "outputs": [
        {
          "internalType": "bool",
          "name": "",
          "type": "bool"
        }
      ],
      "stateMutability": "view",
      "type": "function",
      "constant": true
    },
    {
      "inputs": [],
      "name": "isMintPaused",
      "outputs": [
        {
          "internalType": "bool",
          "name": "",
          "type": "bool"
        }
      ],
      "stateMutability": "view",
      "type": "function",
      "constant": true
    },
    {
      "inputs": [
        {
          "internalType": "bool",
          "name": "isPaused",
          "type": "bool"
        }
      ],
      "name": "pauseMint",
      "outputs": [],
      "stateMutability": "nonpayable",
      "type": "function"
    },
    {
      "inputs": [],
      "name": "getMintPrice",
      "outputs": [
        {
          "internalType": "uint256",
          "name": "",
          "type": "uint256"
        }
      ],
      "stateMutability": "view",
      "type": "function",
      "constant": true
    },
    {
      "inputs": [
        {
          "internalType": "address",
          "name": "owner",
          "type": "address"
        }
      ],
      "name": "getUserConfig",
      "outputs": [
        {
          "internalType": "uint256",
          "name": "userAllowlistSlots",
          "type": "uint256"
        },
        {
          "internalType": "uint256",
          "name": "userAllowlistRemaining",
          "type": "uint256"
        },
        {
          "internalType": "uint256",
          "name": "userPublicSlots",
          "type": "uint256"
        },
        {
          "internalType": "uint256",
          "name": "userPublicRemaining",
          "type": "uint256"
        },
        {
          "internalType": "uint256",
          "name": "userTokenBalance",
          "type": "uint256"
        }
      ],
      "stateMutability": "view",
      "type": "function",
      "constant": true
    }
  ],
  "bytecode": "0x60806040523480156200001157600080fd5b50604051620064eb380380620064eb833981810160405281019062000037919062000345565b818181600090816200004a919062000615565b5080600190816200005c919062000615565b5050506200007f62000073620000e460201b60201c565b620000ec60201b60201c565b60016007819055506001600860016101000a81548167ffffffffffffffff021916908367ffffffffffffffff160217905550612710600860096101000a81548167ffffffffffffffff021916908367ffffffffffffffff1602179055505050620006fc565b600033905090565b6000600660009054906101000a900473ffffffffffffffffffffffffffffffffffffffff16905081600660006101000a81548173ffffffffffffffffffffffffffffffffffffffff021916908373ffffffffffffffffffffffffffffffffffffffff1602179055508173ffffffffffffffffffffffffffffffffffffffff168173ffffffffffffffffffffffffffffffffffffffff167f8be0079c531659141344cd1fd0a4f28419497f9722a3daafe3b4186f6b6457e060405160405180910390a35050565b6000604051905090565b600080fd5b600080fd5b600080fd5b600080fd5b6000601f19601f8301169050919050565b7f4e487b7100000000000000000000000000000000000000000000000000000000600052604160045260246000fd5b6200021b82620001d0565b810181811067ffffffffffffffff821117156200023d576200023c620001e1565b5b80604052505050565b600062000252620001b2565b905062000260828262000210565b919050565b600067ffffffffffffffff821115620002835762000282620001e1565b5b6200028e82620001d0565b9050602081019050919050565b60005b83811015620002bb5780820151818401526020810190506200029e565b60008484015250505050565b6000620002de620002d88462000265565b62000246565b905082815260208101848484011115620002fd57620002fc620001cb565b5b6200030a8482856200029b565b509392505050565b600082601f8301126200032a5762000329620001c6565b5b81516200033c848260208601620002c7565b91505092915050565b600080604083850312156200035f576200035e620001bc565b5b600083015167ffffffffffffffff81111562000380576200037f620001c1565b5b6200038e8582860162000312565b925050602083015167ffffffffffffffff811115620003b257620003b1620001c1565b5b620003c08582860162000312565b9150509250929050565b600081519050919050565b7f4e487b7100000000000000000000000000000000000000000000000000000000600052602260045260246000fd5b600060028204905060018216806200041d57607f821691505b602082108103620004335762000432620003d5565b5b50919050565b60008190508160005260206000209050919050565b60006020601f8301049050919050565b600082821b905092915050565b6000600883026200049d7fffffffffffffffffffffffffffffffffffffffffffffffffffffffffffffffff826200045e565b620004a986836200045e565b95508019841693508086168417925050509392505050565b6000819050919050565b6000819050919050565b6000620004f6620004f0620004ea84620004c1565b620004cb565b620004c1565b9050919050565b6000819050919050565b6200051283620004d5565b6200052a6200052182620004fd565b8484546200046b565b825550505050565b600090565b6200054162000532565b6200054e81848462000507565b505050565b5b8181101562000576576200056a60008262000537565b60018101905062000554565b5050565b601f821115620005c5576200058f8162000439565b6200059a846200044e565b81016020851015620005aa578190505b620005c2620005b9856200044e565b83018262000553565b50505b505050565b600082821c905092915050565b6000620005ea60001984600802620005ca565b1980831691505092915050565b6000620006058383620005d7565b9150826002028217905092915050565b6200062082620003ca565b67ffffffffffffffff8111156200063c576200063b620001e1565b5b62000648825462000404565b620006558282856200057a565b600060209050601f8311600181146200068d576000841562000678578287015190505b620006848582620005f7565b865550620006f4565b601f1984166200069d8662000439565b60005b82811015620006c757848901518255600182019150602085019450602081019050620006a0565b86831015620006e75784890151620006e3601f891682620005d7565b8355505b6001600288020188555050505b505050505050565b615ddf806200070c6000396000f3fe6080604052600436106102935760003560e01c80639fb1dc141161015a578063c40c2815116100c1578063e985e9c51161007a578063e985e9c514610a2f578063f12732a214610a6c578063f19e75d414610aa9578063f24096a914610ad2578063f2fde38b14610afd578063f30e6e7714610b2657610293565b8063c40c281514610905578063c87b56dd14610942578063cb91d8b31461097f578063d5e2eb551461099b578063dc33e681146109c9578063e7bfc89c14610a0657610293565b8063aca8ffe711610113578063aca8ffe714610806578063b05863d51461082f578063b88d4fde14610858578063b936f97a14610881578063c180526a146108ac578063c3222849146108c857610293565b80639fb1dc1414610704578063a22cb46514610744578063a3fd2c441461076d578063a7f93ebd1461079b578063a81030aa146107c6578063ac446002146107ef57610293565b806342842e0e116101fe578063715018a6116101b7578063715018a61461060657806381d174961461061d5780638c202048146106465780638c3c4b34146106835780638da5cb5b146106ae57806395d89b41146106d957610293565b806342842e0e146104e457806345c0f5331461050d57806355f804b3146105385780635deaa5f4146105615780636352211e1461058c57806370a08231146105c957610293565b806318160ddd1161025057806318160ddd146103d25780631ac3fff1146103fd5780631e1a268b1461042857806323393c401461045357806323b872dd146104905780633f5e4741146104b957610293565b806301ffc9a71461029857806306fdde03146102d5578063081812fc14610300578063095ea7b31461033d57806315839b301461036657806316626ab914610391575b600080fd5b3480156102a457600080fd5b506102bf60048036038101906102ba9190613e3b565b610b4f565b6040516102cc9190613e83565b60405180910390f35b3480156102e157600080fd5b506102ea610c31565b6040516102f79190613f2e565b60405180910390f35b34801561030c57600080fd5b5061032760048036038101906103229190613f86565b610cc3565b6040516103349190613ff4565b60405180910390f35b34801561034957600080fd5b50610364600480360381019061035f919061403b565b610d09565b005b34801561037257600080fd5b5061037b610e20565b6040516103889190613e83565b60405180910390f35b34801561039d57600080fd5b506103b860048036038101906103b3919061407b565b610e37565b6040516103c99594939291906140b7565b60405180910390f35b3480156103de57600080fd5b506103e7610e9c565b6040516103f4919061410a565b60405180910390f35b34801561040957600080fd5b50610412610ed0565b60405161041f919061410a565b60405180910390f35b34801561043457600080fd5b5061043d610f74565b60405161044a9190613e83565b60405180910390f35b34801561045f57600080fd5b5061047a6004803603810190610475919061407b565b610f8d565b604051610487919061410a565b60405180910390f35b34801561049c57600080fd5b506104b760048036038101906104b29190614125565b611144565b005b3480156104c557600080fd5b506104ce6111a4565b6040516104db9190613e83565b60405180910390f35b3480156104f057600080fd5b5061050b60048036038101906105069190614125565b611256565b005b34801561051957600080fd5b50610522611276565b60405161052f919061410a565b60405180910390f35b34801561054457600080fd5b5061055f600480360381019061055a91906141dd565b61129e565b005b34801561056d57600080fd5b506105766112bc565b604051610583919061424d565b60405180910390f35b34801561059857600080fd5b506105b360048036038101906105ae9190613f86565b6112c1565b6040516105c09190613ff4565b60405180910390f35b3480156105d557600080fd5b506105f060048036038101906105eb919061407b565b611347565b6040516105fd919061410a565b60405180910390f35b34801561061257600080fd5b5061061b6113fe565b005b34801561062957600080fd5b50610644600480360381019061063f91906142de565b611412565b005b34801561065257600080fd5b5061066d6004803603810190610668919061407b565b61146d565b60405161067a919061410a565b60405180910390f35b34801561068f57600080fd5b506106986114e7565b6040516106a5919061434d565b60405180910390f35b3480156106ba57600080fd5b506106c3611549565b6040516106d09190613ff4565b60405180910390f35b3480156106e557600080fd5b506106ee611573565b6040516106fb9190613f2e565b60405180910390f35b34801561071057600080fd5b5061072b6004803603810190610726919061407b565b611605565b60405161073b9493929190614393565b60405180910390f35b34801561075057600080fd5b5061076b60048036038101906107669190614404565b6116a5565b005b34801561077957600080fd5b506107826116bb565b6040516107929493929190614462565b60405180910390f35b3480156107a757600080fd5b506107b0611707565b6040516107bd919061410a565b60405180910390f35b3480156107d257600080fd5b506107ed60048036038101906107e891906144a7565b611745565b005b3480156107fb57600080fd5b506108046117c5565b005b34801561081257600080fd5b5061082d60048036038101906108289190613f86565b61188c565b005b34801561083b57600080fd5b506108566004803603810190610851919061470f565b61190a565b005b34801561086457600080fd5b5061087f600480360381019061087a919061483c565b611a27565b005b34801561088d57600080fd5b50610896611a89565b6040516108a39190613e83565b60405180910390f35b6108c660048036038101906108c19190613f86565b611b4c565b005b3480156108d457600080fd5b506108ef60048036038101906108ea919061407b565b61219f565b6040516108fc919061410a565b60405180910390f35b34801561091157600080fd5b5061092c6004803603810190610927919061407b565b6121c4565b604051610939919061410a565b60405180910390f35b34801561094e57600080fd5b5061096960048036038101906109649190613f86565b61238a565b6040516109769190613f2e565b60405180910390f35b610999600480360381019061099491906148bf565b6123f2565b005b3480156109a757600080fd5b506109b0612825565b6040516109c09493929190614462565b60405180910390f35b3480156109d557600080fd5b506109f060048036038101906109eb919061407b565b612871565b6040516109fd919061410a565b60405180910390f35b348015610a1257600080fd5b50610a2d6004803603810190610a28919061470f565b6128eb565b005b348015610a3b57600080fd5b50610a566004803603810190610a5191906148ff565b612a08565b604051610a639190613e83565b60405180910390f35b348015610a7857600080fd5b50610a936004803603810190610a8e919061407b565b612a9c565b604051610aa0919061410a565b60405180910390f35b348015610ab557600080fd5b50610ad06004803603810190610acb9190613f86565b612ac1565b005b348015610ade57600080fd5b50610ae7612c05565b604051610af4919061424d565b60405180910390f35b348015610b0957600080fd5b50610b246004803603810190610b1f919061407b565b612c0b565b005b348015610b3257600080fd5b50610b4d6004803603810190610b48919061493f565b612c8e565b005b60007f80ac58cd000000000000000000000000000000000000000000000000000000007bffffffffffffffffffffffffffffffffffffffffffffffffffffffff1916827bffffffffffffffffffffffffffffffffffffffffffffffffffffffff19161480610c1a57507f5b5e139f000000000000000000000000000000000000000000000000000000007bffffffffffffffffffffffffffffffffffffffffffffffffffffffff1916827bffffffffffffffffffffffffffffffffffffffffffffffffffffffff1916145b80610c2a5750610c2982612cb3565b5b9050919050565b606060008054610c409061499b565b80601f0160208091040260200160405190810160405280929190818152602001828054610c6c9061499b565b8015610cb95780601f10610c8e57610100808354040283529160200191610cb9565b820191906000526020600020905b815481529060010190602001808311610c9c57829003601f168201915b5050505050905090565b6000610cce82612d1d565b6004600083815260200190815260200160002060009054906101000a900473ffffffffffffffffffffffffffffffffffffffff169050919050565b6000610d14826112c1565b90508073ffffffffffffffffffffffffffffffffffffffff168373ffffffffffffffffffffffffffffffffffffffff1603610d84576040517f08c379a0000000000000000000000000000000000000000000000000000000008152600401610d7b90614a3e565b60405180910390fd5b8073ffffffffffffffffffffffffffffffffffffffff16610da3612d68565b73ffffffffffffffffffffffffffffffffffffffff161480610dd25750610dd181610dcc612d68565b612a08565b5b610e11576040517f08c379a0000000000000000000000000000000000000000000000000000000008152600401610e0890614ad0565b60405180910390fd5b610e1b8383612d70565b505050565b6000600860009054906101000a900460ff16905090565b600080600080600080610e498761146d565b90506000610e5688610f8d565b90506000610e6389612a9c565b90506000610e708a61219f565b90506000610e7d8b612871565b9050848484848499509950995099509950505050505091939590929450565b60006001600860019054906101000a900467ffffffffffffffff16610ec19190614b1f565b67ffffffffffffffff16905090565b600080600a6040518060800160405290816000820160009054906101000a900461ffff1661ffff1661ffff1681526020016000820160029054906101000a900463ffffffff1663ffffffff1663ffffffff1681526020016000820160069054906101000a900463ffffffff1663ffffffff1663ffffffff1681526020016001820154815250509050806040015163ffffffff1642610f6e9190614b5b565b91505090565b6000610f7e611276565b610f86610e9c565b1015905090565b600080600e60008473ffffffffffffffffffffffffffffffffffffffff1673ffffffffffffffffffffffffffffffffffffffff1681526020019081526020016000206040518060800160405290816000820160009054906101000a90046fffffffffffffffffffffffffffffffff166fffffffffffffffffffffffffffffffff166fffffffffffffffffffffffffffffffff1681526020016000820160109054906101000a90046fffffffffffffffffffffffffffffffff166fffffffffffffffffffffffffffffffff166fffffffffffffffffffffffffffffffff1681526020016001820160009054906101000a90046fffffffffffffffffffffffffffffffff166fffffffffffffffffffffffffffffffff166fffffffffffffffffffffffffffffffff1681526020016001820160109054906101000a90046fffffffffffffffffffffffffffffffff166fffffffffffffffffffffffffffffffff166fffffffffffffffffffffffffffffffff1681525050905080604001516fffffffffffffffffffffffffffffffff1681602001516fffffffffffffffffffffffffffffffff1661113c9190614b5b565b915050919050565b61115561114f612d68565b82612e29565b611194576040517f08c379a000000000000000000000000000000000000000000000000000000000815260040161118b90614c01565b60405180910390fd5b61119f838383612ebe565b505050565b600080600c6040518060800160405290816000820160009054906101000a900461ffff1661ffff1661ffff1681526020016000820160029054906101000a900463ffffffff1663ffffffff1663ffffffff1681526020016000820160069054906101000a900463ffffffff1663ffffffff1663ffffffff16815260200160018201548152505090506000816040015163ffffffff161180156112505750806040015163ffffffff164210155b91505090565b61127183838360405180602001604052806000815250611a27565b505050565b6000600860099054906101000a900467ffffffffffffffff1667ffffffffffffffff16905090565b6112a66131b7565b8181600991826112b7929190614dd8565b505050565b600581565b6000806112cd83613235565b9050600073ffffffffffffffffffffffffffffffffffffffff168173ffffffffffffffffffffffffffffffffffffffff160361133e576040517f08c379a000000000000000000000000000000000000000000000000000000000815260040161133590614ef4565b60405180910390fd5b80915050919050565b60008073ffffffffffffffffffffffffffffffffffffffff168273ffffffffffffffffffffffffffffffffffffffff16036113b7576040517f08c379a00000000000000000000000000000000000000000000000000000000081526004016113ae90614f86565b60405180910390fd5b600360008373ffffffffffffffffffffffffffffffffffffffff1673ffffffffffffffffffffffffffffffffffffffff168152602001908152602001600020549050919050565b6114066131b7565b6114106000613272565b565b61141a6131b7565b82600a60000160006101000a81548161ffff021916908361ffff16021790555080600a60000160066101000a81548163ffffffff021916908363ffffffff16021790555081600a60010181905550505050565b6000600e60008373ffffffffffffffffffffffffffffffffffffffff1673ffffffffffffffffffffffffffffffffffffffff16815260200190815260200160002060000160109054906101000a90046fffffffffffffffffffffffffffffffff166fffffffffffffffffffffffffffffffff169050919050565b60006114f1610f74565b156114ff5760039050611546565b611507610e20565b156115155760049050611546565b61151d6111a4565b1561152b5760029050611546565b611533611a89565b156115415760019050611546565b600090505b90565b6000600660009054906101000a900473ffffffffffffffffffffffffffffffffffffffff16905090565b6060600180546115829061499b565b80601f01602080910402602001604051908101604052809291908181526020018280546115ae9061499b565b80156115fb5780601f106115d0576101008083540402835291602001916115fb565b820191906000526020600020905b8154815290600101906020018083116115de57829003601f168201915b5050505050905090565b600e6020528060005260406000206000915090508060000160009054906101000a90046fffffffffffffffffffffffffffffffff16908060000160109054906101000a90046fffffffffffffffffffffffffffffffff16908060010160009054906101000a90046fffffffffffffffffffffffffffffffff16908060010160109054906101000a90046fffffffffffffffffffffffffffffffff16905084565b6116b76116b0612d68565b8383613338565b5050565b600c8060000160009054906101000a900461ffff16908060000160029054906101000a900463ffffffff16908060000160069054906101000a900463ffffffff16908060010154905084565b60006117116111a4565b1561172357600c600101549050611742565b61172b611a89565b1561173d57600a600101549050611742565b600090505b90565b61174d6131b7565b83600c60000160006101000a81548161ffff021916908361ffff16021790555080600c60000160026101000a81548163ffffffff021916908363ffffffff16021790555081600c60000160066101000a81548163ffffffff021916908363ffffffff16021790555082600c6001018190555050505050565b6117cd6131b7565b6117d56134a4565b60003373ffffffffffffffffffffffffffffffffffffffff16476040516117fb90614fd7565b60006040518083038185875af1925050503d8060008114611838576040519150601f19603f3d011682016040523d82523d6000602084013e61183d565b606091505b5050905080611881576040517f08c379a000000000000000000000000000000000000000000000000000000000815260040161187890615038565b60405180910390fd5b5061188a6134f3565b565b6118946131b7565b61189c610e9c565b8110156118de576040517f08c379a00000000000000000000000000000000000000000000000000000000081526004016118d5906150ca565b60405180910390fd5b80600860096101000a81548167ffffffffffffffff021916908367ffffffffffffffff16021790555050565b6119126131b7565b8051825114611956576040517f08c379a000000000000000000000000000000000000000000000000000000000815260040161194d9061515c565b60405180910390fd5b60005b8251811015611a22578181815181106119755761197461517c565b5b6020026020010151600e60008584815181106119945761199361517c565b5b602002602001015173ffffffffffffffffffffffffffffffffffffffff1673ffffffffffffffffffffffffffffffffffffffff16815260200190815260200160002060000160106101000a8154816fffffffffffffffffffffffffffffffff02191690836fffffffffffffffffffffffffffffffff1602179055508080611a1a906151ab565b915050611959565b505050565b611a38611a32612d68565b83612e29565b611a77576040517f08c379a0000000000000000000000000000000000000000000000000000000008152600401611a6e90614c01565b60405180910390fd5b611a83848484846134fd565b50505050565b600080600a6040518060800160405290816000820160009054906101000a900461ffff1661ffff1661ffff1681526020016000820160029054906101000a900463ffffffff1663ffffffff1663ffffffff1681526020016000820160069054906101000a900463ffffffff1663ffffffff1663ffffffff1681526020016001820154815250509050611b196111a4565b158015611b3057506000816040015163ffffffff16115b8015611b465750806040015163ffffffff164210155b91505090565b3373ffffffffffffffffffffffffffffffffffffffff163273ffffffffffffffffffffffffffffffffffffffff1614611bba576040517f08c379a0000000000000000000000000000000000000000000000000000000008152600401611bb19061523f565b60405180910390fd5b6000600a6040518060800160405290816000820160009054906101000a900461ffff1661ffff1661ffff1681526020016000820160029054906101000a900463ffffffff1663ffffffff1663ffffffff1681526020016000820160069054906101000a900463ffffffff1663ffffffff1663ffffffff16815260200160018201548152505090506000816060015190506000600e60003373ffffffffffffffffffffffffffffffffffffffff1673ffffffffffffffffffffffffffffffffffffffff1681526020019081526020016000206040518060800160405290816000820160009054906101000a90046fffffffffffffffffffffffffffffffff166fffffffffffffffffffffffffffffffff166fffffffffffffffffffffffffffffffff1681526020016000820160109054906101000a90046fffffffffffffffffffffffffffffffff166fffffffffffffffffffffffffffffffff166fffffffffffffffffffffffffffffffff1681526020016001820160009054906101000a90046fffffffffffffffffffffffffffffffff166fffffffffffffffffffffffffffffffff166fffffffffffffffffffffffffffffffff1681526020016001820160109054906101000a90046fffffffffffffffffffffffffffffffff166fffffffffffffffffffffffffffffffff166fffffffffffffffffffffffffffffffff16815250509050611dc8610e20565b15611e08576040517f08c379a0000000000000000000000000000000000000000000000000000000008152600401611dff906152ab565b60405180910390fd5b611e10611a89565b611e4f576040517f08c379a0000000000000000000000000000000000000000000000000000000008152600401611e4690615317565b60405180910390fd5b600081602001516fffffffffffffffffffffffffffffffff1611611ea8576040517f08c379a0000000000000000000000000000000000000000000000000000000008152600401611e9f90615383565b60405180910390fd5b600860099054906101000a900467ffffffffffffffff1667ffffffffffffffff1684611ed2610e9c565b611edc91906153a3565b1115611f1d576040517f08c379a0000000000000000000000000000000000000000000000000000000008152600401611f1490615423565b60405180910390fd5b611f2633610f8d565b841115611f68576040517f08c379a0000000000000000000000000000000000000000000000000000000008152600401611f5f906154db565b60405180910390fd5b611f7b848361355990919063ffffffff16565b341015611fbd576040517f08c379a0000000000000000000000000000000000000000000000000000000008152600401611fb49061556d565b60405180910390fd5b60005b8481101561205257611ff233600860019054906101000a900467ffffffffffffffff1667ffffffffffffffff1661356f565b6008600181819054906101000a900467ffffffffffffffff16809291906120189061558d565b91906101000a81548167ffffffffffffffff021916908367ffffffffffffffff16021790555050808061204a906151ab565b915050611fc0565b5083600e60003373ffffffffffffffffffffffffffffffffffffffff1673ffffffffffffffffffffffffffffffffffffffff16815260200190815260200160002060000160008282829054906101000a90046fffffffffffffffffffffffffffffffff166120c091906155bd565b92506101000a8154816fffffffffffffffffffffffffffffffff02191690836fffffffffffffffffffffffffffffffff16021790555083600e60003373ffffffffffffffffffffffffffffffffffffffff1673ffffffffffffffffffffffffffffffffffffffff16815260200190815260200160002060010160008282829054906101000a90046fffffffffffffffffffffffffffffffff1661216391906155bd565b92506101000a8154816fffffffffffffffffffffffffffffffff02191690836fffffffffffffffffffffffffffffffff16021790555050505050565b60006121aa82612871565b6121b383612a9c565b6121bd9190614b5b565b9050919050565b600080600e60008473ffffffffffffffffffffffffffffffffffffffff1673ffffffffffffffffffffffffffffffffffffffff1681526020019081526020016000206040518060800160405290816000820160009054906101000a90046fffffffffffffffffffffffffffffffff166fffffffffffffffffffffffffffffffff166fffffffffffffffffffffffffffffffff1681526020016000820160109054906101000a90046fffffffffffffffffffffffffffffffff166fffffffffffffffffffffffffffffffff166fffffffffffffffffffffffffffffffff1681526020016001820160009054906101000a90046fffffffffffffffffffffffffffffffff166fffffffffffffffffffffffffffffffff166fffffffffffffffffffffffffffffffff1681526020016001820160109054906101000a90046fffffffffffffffffffffffffffffffff166fffffffffffffffffffffffffffffffff166fffffffffffffffffffffffffffffffff16815250509050600081606001516fffffffffffffffffffffffffffffffff160361236a57600567ffffffffffffffff16612382565b80606001516fffffffffffffffffffffffffffffffff165b915050919050565b606061239582612d1d565b600061239f61358d565b905060008151116123bf57604051806020016040528060008152506123ea565b806123c98461361f565b6040516020016123da92919061563d565b6040516020818303038152906040525b915050919050565b3373ffffffffffffffffffffffffffffffffffffffff163273ffffffffffffffffffffffffffffffffffffffff1614612460576040517f08c379a00000000000000000000000000000000000000000000000000000000081526004016124579061523f565b60405180910390fd5b6000600c6040518060800160405290816000820160009054906101000a900461ffff1661ffff1661ffff1681526020016000820160029054906101000a900463ffffffff1663ffffffff1663ffffffff1681526020016000820160069054906101000a900463ffffffff1663ffffffff1663ffffffff16815260200160018201548152505090506000816020015163ffffffff169050600082606001519050838214612541576040517f08c379a0000000000000000000000000000000000000000000000000000000008152600401612538906156d3565b60405180910390fd5b612549610e20565b15612589576040517f08c379a0000000000000000000000000000000000000000000000000000000008152600401612580906152ab565b60405180910390fd5b6125916111a4565b6125d0576040517f08c379a00000000000000000000000000000000000000000000000000000000081526004016125c79061573f565b60405180910390fd5b600860099054906101000a900467ffffffffffffffff1667ffffffffffffffff16856125fa610e9c565b61260491906153a3565b1115612645576040517f08c379a000000000000000000000000000000000000000000000000000000000815260040161263c90615423565b60405180910390fd5b61264e3361219f565b851115612690576040517f08c379a0000000000000000000000000000000000000000000000000000000008152600401612687906157d1565b60405180910390fd5b6126a3858261355990919063ffffffff16565b3410156126e5576040517f08c379a00000000000000000000000000000000000000000000000000000000081526004016126dc9061556d565b60405180910390fd5b60005b8581101561277a5761271a33600860019054906101000a900467ffffffffffffffff1667ffffffffffffffff1661356f565b6008600181819054906101000a900467ffffffffffffffff16809291906127409061558d565b91906101000a81548167ffffffffffffffff021916908367ffffffffffffffff160217905550508080612772906151ab565b9150506126e8565b5084600e60003373ffffffffffffffffffffffffffffffffffffffff1673ffffffffffffffffffffffffffffffffffffffff16815260200190815260200160002060000160008282829054906101000a90046fffffffffffffffffffffffffffffffff166127e891906155bd565b92506101000a8154816fffffffffffffffffffffffffffffffff02191690836fffffffffffffffffffffffffffffffff1602179055505050505050565b600a8060000160009054906101000a900461ffff16908060000160029054906101000a900463ffffffff16908060000160069054906101000a900463ffffffff16908060010154905084565b6000600e60008373ffffffffffffffffffffffffffffffffffffffff1673ffffffffffffffffffffffffffffffffffffffff16815260200190815260200160002060000160009054906101000a90046fffffffffffffffffffffffffffffffff166fffffffffffffffffffffffffffffffff169050919050565b6128f36131b7565b8051825114612937576040517f08c379a000000000000000000000000000000000000000000000000000000000815260040161292e9061515c565b60405180910390fd5b60005b8251811015612a03578181815181106129565761295561517c565b5b6020026020010151600e60008584815181106129755761297461517c565b5b602002602001015173ffffffffffffffffffffffffffffffffffffffff1673ffffffffffffffffffffffffffffffffffffffff16815260200190815260200160002060010160106101000a8154816fffffffffffffffffffffffffffffffff02191690836fffffffffffffffffffffffffffffffff16021790555080806129fb906151ab565b91505061293a565b505050565b6000600560008473ffffffffffffffffffffffffffffffffffffffff1673ffffffffffffffffffffffffffffffffffffffff16815260200190815260200160002060008373ffffffffffffffffffffffffffffffffffffffff1673ffffffffffffffffffffffffffffffffffffffff16815260200190815260200160002060009054906101000a900460ff16905092915050565b6000612aa7826121c4565b612ab08361146d565b612aba91906153a3565b9050919050565b612ac96131b7565b60005b81811015612b5e57612afe33600860019054906101000a900467ffffffffffffffff1667ffffffffffffffff1661356f565b6008600181819054906101000a900467ffffffffffffffff1680929190612b249061558d565b91906101000a81548167ffffffffffffffff021916908367ffffffffffffffff160217905550508080612b56906151ab565b915050612acc565b5080600e60003373ffffffffffffffffffffffffffffffffffffffff1673ffffffffffffffffffffffffffffffffffffffff16815260200190815260200160002060000160008282829054906101000a90046fffffffffffffffffffffffffffffffff16612bcc91906155bd565b92506101000a8154816fffffffffffffffffffffffffffffffff02191690836fffffffffffffffffffffffffffffffff16021790555050565b61271081565b612c136131b7565b600073ffffffffffffffffffffffffffffffffffffffff168173ffffffffffffffffffffffffffffffffffffffff1603612c82576040517f08c379a0000000000000000000000000000000000000000000000000000000008152600401612c7990615863565b60405180910390fd5b612c8b81613272565b50565b612c966131b7565b80600860006101000a81548160ff02191690831515021790555050565b60007f01ffc9a7000000000000000000000000000000000000000000000000000000007bffffffffffffffffffffffffffffffffffffffffffffffffffffffff1916827bffffffffffffffffffffffffffffffffffffffffffffffffffffffff1916149050919050565b612d26816136ed565b612d65576040517f08c379a0000000000000000000000000000000000000000000000000000000008152600401612d5c90614ef4565b60405180910390fd5b50565b600033905090565b816004600083815260200190815260200160002060006101000a81548173ffffffffffffffffffffffffffffffffffffffff021916908373ffffffffffffffffffffffffffffffffffffffff160217905550808273ffffffffffffffffffffffffffffffffffffffff16612de3836112c1565b73ffffffffffffffffffffffffffffffffffffffff167f8c5be1e5ebec7d5bd14f71427d1e84f3dd0314c0f7b2291e5b200ac8c7c3b92560405160405180910390a45050565b600080612e35836112c1565b90508073ffffffffffffffffffffffffffffffffffffffff168473ffffffffffffffffffffffffffffffffffffffff161480612e775750612e768185612a08565b5b80612eb557508373ffffffffffffffffffffffffffffffffffffffff16612e9d84610cc3565b73ffffffffffffffffffffffffffffffffffffffff16145b91505092915050565b8273ffffffffffffffffffffffffffffffffffffffff16612ede826112c1565b73ffffffffffffffffffffffffffffffffffffffff1614612f34576040517f08c379a0000000000000000000000000000000000000000000000000000000008152600401612f2b906158f5565b60405180910390fd5b600073ffffffffffffffffffffffffffffffffffffffff168273ffffffffffffffffffffffffffffffffffffffff1603612fa3576040517f08c379a0000000000000000000000000000000000000000000000000000000008152600401612f9a90615987565b60405180910390fd5b612fb0838383600161372e565b8273ffffffffffffffffffffffffffffffffffffffff16612fd0826112c1565b73ffffffffffffffffffffffffffffffffffffffff1614613026576040517f08c379a000000000000000000000000000000000000000000000000000000000815260040161301d906158f5565b60405180910390fd5b6004600082815260200190815260200160002060006101000a81549073ffffffffffffffffffffffffffffffffffffffff02191690556001600360008573ffffffffffffffffffffffffffffffffffffffff1673ffffffffffffffffffffffffffffffffffffffff168152602001908152602001600020600082825403925050819055506001600360008473ffffffffffffffffffffffffffffffffffffffff1673ffffffffffffffffffffffffffffffffffffffff16815260200190815260200160002060008282540192505081905550816002600083815260200190815260200160002060006101000a81548173ffffffffffffffffffffffffffffffffffffffff021916908373ffffffffffffffffffffffffffffffffffffffff160217905550808273ffffffffffffffffffffffffffffffffffffffff168473ffffffffffffffffffffffffffffffffffffffff167fddf252ad1be2c89b69c2b068fc378daa952ba7f163c4a11628f55a4df523b3ef60405160405180910390a46131b28383836001613854565b505050565b6131bf612d68565b73ffffffffffffffffffffffffffffffffffffffff166131dd611549565b73ffffffffffffffffffffffffffffffffffffffff1614613233576040517f08c379a000000000000000000000000000000000000000000000000000000000815260040161322a906159f3565b60405180910390fd5b565b60006002600083815260200190815260200160002060009054906101000a900473ffffffffffffffffffffffffffffffffffffffff169050919050565b6000600660009054906101000a900473ffffffffffffffffffffffffffffffffffffffff16905081600660006101000a81548173ffffffffffffffffffffffffffffffffffffffff021916908373ffffffffffffffffffffffffffffffffffffffff1602179055508173ffffffffffffffffffffffffffffffffffffffff168173ffffffffffffffffffffffffffffffffffffffff167f8be0079c531659141344cd1fd0a4f28419497f9722a3daafe3b4186f6b6457e060405160405180910390a35050565b8173ffffffffffffffffffffffffffffffffffffffff168373ffffffffffffffffffffffffffffffffffffffff16036133a6576040517f08c379a000000000000000000000000000000000000000000000000000000000815260040161339d90615a5f565b60405180910390fd5b80600560008573ffffffffffffffffffffffffffffffffffffffff1673ffffffffffffffffffffffffffffffffffffffff16815260200190815260200160002060008473ffffffffffffffffffffffffffffffffffffffff1673ffffffffffffffffffffffffffffffffffffffff16815260200190815260200160002060006101000a81548160ff0219169083151502179055508173ffffffffffffffffffffffffffffffffffffffff168373ffffffffffffffffffffffffffffffffffffffff167f17307eab39ab6107e8899845ad3d59bd9653f200f220920489ca2b5937696c31836040516134979190613e83565b60405180910390a3505050565b6002600754036134e9576040517f08c379a00000000000000000000000000000000000000000000000000000000081526004016134e090615acb565b60405180910390fd5b6002600781905550565b6001600781905550565b613508848484612ebe565b6135148484848461385a565b613553576040517f08c379a000000000000000000000000000000000000000000000000000000000815260040161354a90615b5d565b60405180910390fd5b50505050565b600081836135679190615b7d565b905092915050565b6135898282604051806020016040528060008152506139e1565b5050565b60606009805461359c9061499b565b80601f01602080910402602001604051908101604052809291908181526020018280546135c89061499b565b80156136155780601f106135ea57610100808354040283529160200191613615565b820191906000526020600020905b8154815290600101906020018083116135f857829003601f168201915b5050505050905090565b60606000600161362e84613a3c565b01905060008167ffffffffffffffff81111561364d5761364c61450e565b5b6040519080825280601f01601f19166020018201604052801561367f5781602001600182028036833780820191505090505b509050600082602001820190505b6001156136e2578080600190039150507f3031323334353637383961626364656600000000000000000000000000000000600a86061a8153600a85816136d6576136d5615bbf565b5b0494506000850361368d575b819350505050919050565b60008073ffffffffffffffffffffffffffffffffffffffff1661370f83613235565b73ffffffffffffffffffffffffffffffffffffffff1614159050919050565b600181111561384e57600073ffffffffffffffffffffffffffffffffffffffff168473ffffffffffffffffffffffffffffffffffffffff16146137c25780600360008673ffffffffffffffffffffffffffffffffffffffff1673ffffffffffffffffffffffffffffffffffffffff16815260200190815260200160002060008282546137ba9190614b5b565b925050819055505b600073ffffffffffffffffffffffffffffffffffffffff168373ffffffffffffffffffffffffffffffffffffffff161461384d5780600360008573ffffffffffffffffffffffffffffffffffffffff1673ffffffffffffffffffffffffffffffffffffffff168152602001908152602001600020600082825461384591906153a3565b925050819055505b5b50505050565b50505050565b600061387b8473ffffffffffffffffffffffffffffffffffffffff16613b8f565b156139d4578373ffffffffffffffffffffffffffffffffffffffff1663150b7a026138a4612d68565b8786866040518563ffffffff1660e01b81526004016138c69493929190615c43565b6020604051808303816000875af192505050801561390257506040513d601f19601f820116820180604052508101906138ff9190615ca4565b60015b613984573d8060008114613932576040519150601f19603f3d011682016040523d82523d6000602084013e613937565b606091505b50600081510361397c576040517f08c379a000000000000000000000000000000000000000000000000000000000815260040161397390615b5d565b60405180910390fd5b805181602001fd5b63150b7a0260e01b7bffffffffffffffffffffffffffffffffffffffffffffffffffffffff1916817bffffffffffffffffffffffffffffffffffffffffffffffffffffffff1916149150506139d9565b600190505b949350505050565b6139eb8383613bb2565b6139f8600084848461385a565b613a37576040517f08c379a0000000000000000000000000000000000000000000000000000000008152600401613a2e90615b5d565b60405180910390fd5b505050565b600080600090507a184f03e93ff9f4daa797ed6e38ed64bf6a1f0100000000000000008310613a9a577a184f03e93ff9f4daa797ed6e38ed64bf6a1f0100000000000000008381613a9057613a8f615bbf565b5b0492506040810190505b6d04ee2d6d415b85acef81000000008310613ad7576d04ee2d6d415b85acef81000000008381613acd57613acc615bbf565b5b0492506020810190505b662386f26fc100008310613b0657662386f26fc100008381613afc57613afb615bbf565b5b0492506010810190505b6305f5e1008310613b2f576305f5e1008381613b2557613b24615bbf565b5b0492506008810190505b6127108310613b54576127108381613b4a57613b49615bbf565b5b0492506004810190505b60648310613b775760648381613b6d57613b6c615bbf565b5b0492506002810190505b600a8310613b86576001810190505b80915050919050565b6000808273ffffffffffffffffffffffffffffffffffffffff163b119050919050565b600073ffffffffffffffffffffffffffffffffffffffff168273ffffffffffffffffffffffffffffffffffffffff1603613c21576040517f08c379a0000000000000000000000000000000000000000000000000000000008152600401613c1890615d1d565b60405180910390fd5b613c2a816136ed565b15613c6a576040517f08c379a0000000000000000000000000000000000000000000000000000000008152600401613c6190615d89565b60405180910390fd5b613c7860008383600161372e565b613c81816136ed565b15613cc1576040517f08c379a0000000000000000000000000000000000000000000000000000000008152600401613cb890615d89565b60405180910390fd5b6001600360008473ffffffffffffffffffffffffffffffffffffffff1673ffffffffffffffffffffffffffffffffffffffff16815260200190815260200160002060008282540192505081905550816002600083815260200190815260200160002060006101000a81548173ffffffffffffffffffffffffffffffffffffffff021916908373ffffffffffffffffffffffffffffffffffffffff160217905550808273ffffffffffffffffffffffffffffffffffffffff16600073ffffffffffffffffffffffffffffffffffffffff167fddf252ad1be2c89b69c2b068fc378daa952ba7f163c4a11628f55a4df523b3ef60405160405180910390a4613dcb600083836001613854565b5050565b6000604051905090565b600080fd5b600080fd5b60007fffffffff0000000000000000000000000000000000000000000000000000000082169050919050565b613e1881613de3565b8114613e2357600080fd5b50565b600081359050613e3581613e0f565b92915050565b600060208284031215613e5157613e50613dd9565b5b6000613e5f84828501613e26565b91505092915050565b60008115159050919050565b613e7d81613e68565b82525050565b6000602082019050613e986000830184613e74565b92915050565b600081519050919050565b600082825260208201905092915050565b60005b83811015613ed8578082015181840152602081019050613ebd565b60008484015250505050565b6000601f19601f8301169050919050565b6000613f0082613e9e565b613f0a8185613ea9565b9350613f1a818560208601613eba565b613f2381613ee4565b840191505092915050565b60006020820190508181036000830152613f488184613ef5565b905092915050565b6000819050919050565b613f6381613f50565b8114613f6e57600080fd5b50565b600081359050613f8081613f5a565b92915050565b600060208284031215613f9c57613f9b613dd9565b5b6000613faa84828501613f71565b91505092915050565b600073ffffffffffffffffffffffffffffffffffffffff82169050919050565b6000613fde82613fb3565b9050919050565b613fee81613fd3565b82525050565b60006020820190506140096000830184613fe5565b92915050565b61401881613fd3565b811461402357600080fd5b50565b6000813590506140358161400f565b92915050565b6000806040838503121561405257614051613dd9565b5b600061406085828601614026565b925050602061407185828601613f71565b9150509250929050565b60006020828403121561409157614090613dd9565b5b600061409f84828501614026565b91505092915050565b6140b181613f50565b82525050565b600060a0820190506140cc60008301886140a8565b6140d960208301876140a8565b6140e660408301866140a8565b6140f360608301856140a8565b61410060808301846140a8565b9695505050505050565b600060208201905061411f60008301846140a8565b92915050565b60008060006060848603121561413e5761413d613dd9565b5b600061414c86828701614026565b935050602061415d86828701614026565b925050604061416e86828701613f71565b9150509250925092565b600080fd5b600080fd5b600080fd5b60008083601f84011261419d5761419c614178565b5b8235905067ffffffffffffffff8111156141ba576141b961417d565b5b6020830191508360018202830111156141d6576141d5614182565b5b9250929050565b600080602083850312156141f4576141f3613dd9565b5b600083013567ffffffffffffffff81111561421257614211613dde565b5b61421e85828601614187565b92509250509250929050565b600067ffffffffffffffff82169050919050565b6142478161422a565b82525050565b6000602082019050614262600083018461423e565b92915050565b600061ffff82169050919050565b61427f81614268565b811461428a57600080fd5b50565b60008135905061429c81614276565b92915050565b600063ffffffff82169050919050565b6142bb816142a2565b81146142c657600080fd5b50565b6000813590506142d8816142b2565b92915050565b6000806000606084860312156142f7576142f6613dd9565b5b60006143058682870161428d565b935050602061431686828701613f71565b9250506040614327868287016142c9565b9150509250925092565b600060ff82169050919050565b61434781614331565b82525050565b6000602082019050614362600083018461433e565b92915050565b60006fffffffffffffffffffffffffffffffff82169050919050565b61438d81614368565b82525050565b60006080820190506143a86000830187614384565b6143b56020830186614384565b6143c26040830185614384565b6143cf6060830184614384565b95945050505050565b6143e181613e68565b81146143ec57600080fd5b50565b6000813590506143fe816143d8565b92915050565b6000806040838503121561441b5761441a613dd9565b5b600061442985828601614026565b925050602061443a858286016143ef565b9150509250929050565b61444d81614268565b82525050565b61445c816142a2565b82525050565b60006080820190506144776000830187614444565b6144846020830186614453565b6144916040830185614453565b61449e60608301846140a8565b95945050505050565b600080600080608085870312156144c1576144c0613dd9565b5b60006144cf8782880161428d565b94505060206144e087828801613f71565b93505060406144f1878288016142c9565b9250506060614502878288016142c9565b91505092959194509250565b7f4e487b7100000000000000000000000000000000000000000000000000000000600052604160045260246000fd5b61454682613ee4565b810181811067ffffffffffffffff821117156145655761456461450e565b5b80604052505050565b6000614578613dcf565b9050614584828261453d565b919050565b600067ffffffffffffffff8211156145a4576145a361450e565b5b602082029050602081019050919050565b60006145c86145c384614589565b61456e565b905080838252602082019050602084028301858111156145eb576145ea614182565b5b835b8181101561461457806146008882614026565b8452602084019350506020810190506145ed565b5050509392505050565b600082601f83011261463357614632614178565b5b81356146438482602086016145b5565b91505092915050565b600067ffffffffffffffff8211156146675761466661450e565b5b602082029050602081019050919050565b600061468b6146868461464c565b61456e565b905080838252602082019050602084028301858111156146ae576146ad614182565b5b835b818110156146d757806146c38882613f71565b8452602084019350506020810190506146b0565b5050509392505050565b600082601f8301126146f6576146f5614178565b5b8135614706848260208601614678565b91505092915050565b6000806040838503121561472657614725613dd9565b5b600083013567ffffffffffffffff81111561474457614743613dde565b5b6147508582860161461e565b925050602083013567ffffffffffffffff81111561477157614770613dde565b5b61477d858286016146e1565b9150509250929050565b600080fd5b600067ffffffffffffffff8211156147a7576147a661450e565b5b6147b082613ee4565b9050602081019050919050565b82818337600083830152505050565b60006147df6147da8461478c565b61456e565b9050828152602081018484840111156147fb576147fa614787565b5b6148068482856147bd565b509392505050565b600082601f83011261482357614822614178565b5b81356148338482602086016147cc565b91505092915050565b6000806000806080858703121561485657614855613dd9565b5b600061486487828801614026565b945050602061487587828801614026565b935050604061488687828801613f71565b925050606085013567ffffffffffffffff8111156148a7576148a6613dde565b5b6148b38782880161480e565b91505092959194509250565b600080604083850312156148d6576148d5613dd9565b5b60006148e485828601613f71565b92505060206148f585828601613f71565b9150509250929050565b6000806040838503121561491657614915613dd9565b5b600061492485828601614026565b925050602061493585828601614026565b9150509250929050565b60006020828403121561495557614954613dd9565b5b6000614963848285016143ef565b91505092915050565b7f4e487b7100000000000000000000000000000000000000000000000000000000600052602260045260246000fd5b600060028204905060018216806149b357607f821691505b6020821081036149c6576149c561496c565b5b50919050565b7f4552433732313a20617070726f76616c20746f2063757272656e74206f776e6560008201527f7200000000000000000000000000000000000000000000000000000000000000602082015250565b6000614a28602183613ea9565b9150614a33826149cc565b604082019050919050565b60006020820190508181036000830152614a5781614a1b565b9050919050565b7f4552433732313a20617070726f76652063616c6c6572206973206e6f7420746f60008201527f6b656e206f776e6572206f7220617070726f76656420666f7220616c6c000000602082015250565b6000614aba603d83613ea9565b9150614ac582614a5e565b604082019050919050565b60006020820190508181036000830152614ae981614aad565b9050919050565b7f4e487b7100000000000000000000000000000000000000000000000000000000600052601160045260246000fd5b6000614b2a8261422a565b9150614b358361422a565b9250828203905067ffffffffffffffff811115614b5557614b54614af0565b5b92915050565b6000614b6682613f50565b9150614b7183613f50565b9250828203905081811115614b8957614b88614af0565b5b92915050565b7f4552433732313a2063616c6c6572206973206e6f7420746f6b656e206f776e6560008201527f72206f7220617070726f76656400000000000000000000000000000000000000602082015250565b6000614beb602d83613ea9565b9150614bf682614b8f565b604082019050919050565b60006020820190508181036000830152614c1a81614bde565b9050919050565b600082905092915050565b60008190508160005260206000209050919050565b60006020601f8301049050919050565b600082821b905092915050565b600060088302614c8e7fffffffffffffffffffffffffffffffffffffffffffffffffffffffffffffffff82614c51565b614c988683614c51565b95508019841693508086168417925050509392505050565b6000819050919050565b6000614cd5614cd0614ccb84613f50565b614cb0565b613f50565b9050919050565b6000819050919050565b614cef83614cba565b614d03614cfb82614cdc565b848454614c5e565b825550505050565b600090565b614d18614d0b565b614d23818484614ce6565b505050565b5b81811015614d4757614d3c600082614d10565b600181019050614d29565b5050565b601f821115614d8c57614d5d81614c2c565b614d6684614c41565b81016020851015614d75578190505b614d89614d8185614c41565b830182614d28565b50505b505050565b600082821c905092915050565b6000614daf60001984600802614d91565b1980831691505092915050565b6000614dc88383614d9e565b9150826002028217905092915050565b614de28383614c21565b67ffffffffffffffff811115614dfb57614dfa61450e565b5b614e05825461499b565b614e10828285614d4b565b6000601f831160018114614e3f5760008415614e2d578287013590505b614e378582614dbc565b865550614e9f565b601f198416614e4d86614c2c565b60005b82811015614e7557848901358255600182019150602085019450602081019050614e50565b86831015614e925784890135614e8e601f891682614d9e565b8355505b6001600288020188555050505b50505050505050565b7f4552433732313a20696e76616c696420746f6b656e2049440000000000000000600082015250565b6000614ede601883613ea9565b9150614ee982614ea8565b602082019050919050565b60006020820190508181036000830152614f0d81614ed1565b9050919050565b7f4552433732313a2061646472657373207a65726f206973206e6f74206120766160008201527f6c6964206f776e65720000000000000000000000000000000000000000000000602082015250565b6000614f70602983613ea9565b9150614f7b82614f14565b604082019050919050565b60006020820190508181036000830152614f9f81614f63565b9050919050565b600081905092915050565b50565b6000614fc1600083614fa6565b9150614fcc82614fb1565b600082019050919050565b6000614fe282614fb4565b9150819050919050565b7f5472616e73666572206661696c65642e00000000000000000000000000000000600082015250565b6000615022601083613ea9565b915061502d82614fec565b602082019050919050565b6000602082019050818103600083015261505181615015565b9050919050565b7f63616e6e6f74206d616b6520636f6c6c656374696f6e2073697a6520736d616c60008201527f6c6572207468616e20737570706c790000000000000000000000000000000000602082015250565b60006150b4602f83613ea9565b91506150bf82615058565b604082019050919050565b600060208201905081810360008301526150e3816150a7565b9050919050565b7f61646472657373657320646f6573206e6f74206d61746368206e756d536c6f7460008201527f73206c656e677468000000000000000000000000000000000000000000000000602082015250565b6000615146602883613ea9565b9150615151826150ea565b604082019050919050565b6000602082019050818103600083015261517581615139565b9050919050565b7f4e487b7100000000000000000000000000000000000000000000000000000000600052603260045260246000fd5b60006151b682613f50565b91507fffffffffffffffffffffffffffffffffffffffffffffffffffffffffffffffff82036151e8576151e7614af0565b5b600182019050919050565b7f5468652063616c6c657220697320616e6f7468657220636f6e74726163740000600082015250565b6000615229601e83613ea9565b9150615234826151f3565b602082019050919050565b600060208201905081810360008301526152588161521c565b9050919050565b7f6d696e7420697320706175736564000000000000000000000000000000000000600082015250565b6000615295600e83613ea9565b91506152a08261525f565b602082019050919050565b600060208201905081810360008301526152c481615288565b9050919050565b7f616c6c6f776c6973742073616c6520686173206e6f7420626567756e20796574600082015250565b6000615301602083613ea9565b915061530c826152cb565b602082019050919050565b60006020820190508181036000830152615330816152f4565b9050919050565b7f6e6f7420656c696769626c6520666f7220616c6c6f776c697374206d696e7400600082015250565b600061536d601f83613ea9565b915061537882615337565b602082019050919050565b6000602082019050818103600083015261539c81615360565b9050919050565b60006153ae82613f50565b91506153b983613f50565b92508282019050808211156153d1576153d0614af0565b5b92915050565b7f72656163686564206d617820737570706c790000000000000000000000000000600082015250565b600061540d601283613ea9565b9150615418826153d7565b602082019050919050565b6000602082019050818103600083015261543c81615400565b9050919050565b7f796f75206861766520657863656564656420746865206d6178206e756d62657260008201527f206f6620616c6c6f776c69737420746f6b656e7320796f752063616e206d696e60208201527f7400000000000000000000000000000000000000000000000000000000000000604082015250565b60006154c5604183613ea9565b91506154d082615443565b606082019050919050565b600060208201905081810360008301526154f4816154b8565b9050919050565b7f6e6f7420656e6f75676820657468657220746f20636f6d706c6574652070757260008201527f63686173652e0000000000000000000000000000000000000000000000000000602082015250565b6000615557602683613ea9565b9150615562826154fb565b604082019050919050565b600060208201905081810360008301526155868161554a565b9050919050565b60006155988261422a565b915067ffffffffffffffff82036155b2576155b1614af0565b5b600182019050919050565b60006155c882614368565b91506155d383614368565b925082820190506fffffffffffffffffffffffffffffffff8111156155fb576155fa614af0565b5b92915050565b600081905092915050565b600061561782613e9e565b6156218185615601565b9350615631818560208601613eba565b80840191505092915050565b6000615649828561560c565b9150615655828461560c565b91508190509392505050565b7f63616c6c6564207769746820696e636f7272656374207075626c69632073616c60008201527f65206b6579000000000000000000000000000000000000000000000000000000602082015250565b60006156bd602583613ea9565b91506156c882615661565b604082019050919050565b600060208201905081810360008301526156ec816156b0565b9050919050565b7f7075626c69632073616c6520686173206e6f7420626567756e20796574000000600082015250565b6000615729601d83613ea9565b9150615734826156f3565b602082019050919050565b600060208201905081810360008301526157588161571c565b9050919050565b7f796f75206861766520657863656564656420746865206d6178206e756d62657260008201527f206f6620746f6b656e7320796f752063616e206d696e74000000000000000000602082015250565b60006157bb603783613ea9565b91506157c68261575f565b604082019050919050565b600060208201905081810360008301526157ea816157ae565b9050919050565b7f4f776e61626c653a206e6577206f776e657220697320746865207a65726f206160008201527f6464726573730000000000000000000000000000000000000000000000000000602082015250565b600061584d602683613ea9565b9150615858826157f1565b604082019050919050565b6000602082019050818103600083015261587c81615840565b9050919050565b7f4552433732313a207472616e736665722066726f6d20696e636f72726563742060008201527f6f776e6572000000000000000000000000000000000000000000000000000000602082015250565b60006158df602583613ea9565b91506158ea82615883565b604082019050919050565b6000602082019050818103600083015261590e816158d2565b9050919050565b7f4552433732313a207472616e7366657220746f20746865207a65726f2061646460008201527f7265737300000000000000000000000000000000000000000000000000000000602082015250565b6000615971602483613ea9565b915061597c82615915565b604082019050919050565b600060208201905081810360008301526159a081615964565b9050919050565b7f4f776e61626c653a2063616c6c6572206973206e6f7420746865206f776e6572600082015250565b60006159dd602083613ea9565b91506159e8826159a7565b602082019050919050565b60006020820190508181036000830152615a0c816159d0565b9050919050565b7f4552433732313a20617070726f766520746f2063616c6c657200000000000000600082015250565b6000615a49601983613ea9565b9150615a5482615a13565b602082019050919050565b60006020820190508181036000830152615a7881615a3c565b9050919050565b7f5265656e7472616e637947756172643a207265656e7472616e742063616c6c00600082015250565b6000615ab5601f83613ea9565b9150615ac082615a7f565b602082019050919050565b60006020820190508181036000830152615ae481615aa8565b9050919050565b7f4552433732313a207472616e7366657220746f206e6f6e20455243373231526560008201527f63656976657220696d706c656d656e7465720000000000000000000000000000602082015250565b6000615b47603283613ea9565b9150615b5282615aeb565b604082019050919050565b60006020820190508181036000830152615b7681615b3a565b9050919050565b6000615b8882613f50565b9150615b9383613f50565b9250828202615ba181613f50565b91508282048414831517615bb857615bb7614af0565b5b5092915050565b7f4e487b7100000000000000000000000000000000000000000000000000000000600052601260045260246000fd5b600081519050919050565b600082825260208201905092915050565b6000615c1582615bee565b615c1f8185615bf9565b9350615c2f818560208601613eba565b615c3881613ee4565b840191505092915050565b6000608082019050615c586000830187613fe5565b615c656020830186613fe5565b615c7260408301856140a8565b8181036060830152615c848184615c0a565b905095945050505050565b600081519050615c9e81613e0f565b92915050565b600060208284031215615cba57615cb9613dd9565b5b6000615cc884828501615c8f565b91505092915050565b7f4552433732313a206d696e7420746f20746865207a65726f2061646472657373600082015250565b6000615d07602083613ea9565b9150615d1282615cd1565b602082019050919050565b60006020820190508181036000830152615d3681615cfa565b9050919050565b7f4552433732313a20746f6b656e20616c7265616479206d696e74656400000000600082015250565b6000615d73601c83613ea9565b9150615d7e82615d3d565b602082019050919050565b60006020820190508181036000830152615da281615d66565b905091905056fea2646970667358221220770804ebb4980eeef9dc5c3ab1a607ce36098dc62d63cb6edcb931fc5d9ff9a264736f6c63430008110033",
  "immutableReferences": {},
  "source": "//SPDX-License-Identifier: MIT\npragma solidity ^0.8.17;\n\nimport \"@openzeppelin/contracts/token/ERC721/ERC721.sol\";\nimport \"@openzeppelin/contracts/access/Ownable.sol\";\nimport \"@openzeppelin/contracts/utils/math/SafeMath.sol\";\nimport \"@openzeppelin/contracts/utils/Strings.sol\";\nimport \"@openzeppelin/contracts/security/ReentrancyGuard.sol\";\n\ncontract NineSeals is ERC721,Ownable,ReentrancyGuard{\n\n    using SafeMath for uint256;\n\n    uint64 public constant DEFAULT_MAX_BATCH_SIZE = 5;\n    uint64 public constant DEFAULT_COLLECTION_SIZE = 10000;\n\n    uint8 private constant SALE_STATUS_NOT_STARTED = 0;\n    uint8 private constant SALE_STATUS_ALLOWLIST = 1;\n    uint8 private constant SALE_STATUS_PUBLIC = 2;\n    uint8 private constant SALE_STATUS_DONE = 3;\n    uint8 private constant SALE_STATUS_PAUSED = 4;\n\n    bool private _mintPaused;\n\n    uint64 private _tokenCounter;\n\n    uint64 private _totalAllowedTokens;\n\n    string private _baseTokenURI;\n\n    struct SaleConfig {\n        uint16 maxBatchSize;\n        uint32 saleKey;\n        uint32 saleStartTime;\n        uint256 salePrice;        \n    }\n\n    SaleConfig public allowlistSaleConfig;\n\n    SaleConfig public publicSaleConfig;\n\n    struct Mintoor {  \n        uint128 tokenBalance;  \n        uint128 maxAllowlistTokens; \n        uint128 allowlistBalance; \n        uint128 maxPublicSaleTokens;\n    }\n\n    mapping(address => Mintoor) public mintoors;\n    \n    constructor( \n        string memory name, \n        string memory symbol\n    ) ERC721(name, symbol) ReentrancyGuard(){\n        _tokenCounter = 1;\n        _totalAllowedTokens = DEFAULT_COLLECTION_SIZE;\n    }\n\n    modifier callerIsUser() {\n        require(tx.origin == msg.sender, \"The caller is another contract\");\n        _;\n    }\n\n    // Mint: Owner\n    function ownerMint(uint256 quantity) external onlyOwner {\n        for(uint256 i = 0; i < quantity; i++) {\n            _safeMint(msg.sender, _tokenCounter);\n            _tokenCounter++;\n        }\n\n        mintoors[msg.sender].tokenBalance += uint128(quantity);\n    }\n\n    // Mint: Allowlist\n    function allowlistMint(uint256 quantity) external payable callerIsUser {\n        SaleConfig memory config = allowlistSaleConfig;        \n        uint256 salePrice = uint256(config.salePrice);\n        Mintoor memory mintoor = mintoors[msg.sender];\n        \n        require(!isMintPaused(), \"mint is paused\");\n        require(isAllowlistSaleOn(), \"allowlist sale has not begun yet\");\n        require(mintoor.maxAllowlistTokens > 0, \"not eligible for allowlist mint\");\n        require(totalSupply() + quantity <= _totalAllowedTokens, \"reached max supply\");\n        require(quantity <= allowlistTokensRemaining(msg.sender), \"you have exceeded the max number of allowlist tokens you can mint\");\n        require(msg.value >= salePrice.mul(quantity), \"not enough ether to complete purchase.\");\n\n        for(uint256 i = 0; i < quantity; i++) {\n            _safeMint(msg.sender, _tokenCounter);\n            _tokenCounter++;\n        }\n\n        mintoors[msg.sender].tokenBalance += uint128(quantity);\n        mintoors[msg.sender].allowlistBalance += uint128(quantity);\n    }\n\n    // Mint: Public\n    function publicSaleMint(uint256 quantity, uint256 callerPublicSaleKey) external payable callerIsUser {\n        SaleConfig memory config = publicSaleConfig;\n        uint256 saleKey = uint256(config.saleKey);\n        uint256 salePrice = uint256(config.salePrice);\n        \n        require(saleKey == callerPublicSaleKey, \"called with incorrect public sale key\");\n        require(!isMintPaused(), \"mint is paused\");\n        require(isPublicSaleOn(), \"public sale has not begun yet\");\n        require(totalSupply() + quantity <= _totalAllowedTokens, \"reached max supply\");\n        require(quantity <= publicSaleTokensRemaining(msg.sender), \"you have exceeded the max number of tokens you can mint\");\n        require(msg.value >= salePrice.mul(quantity), \"not enough ether to complete purchase.\");\n\n        for(uint256 i = 0; i < quantity; i++) {\n            _safeMint(msg.sender, _tokenCounter);\n            _tokenCounter++;\n        }\n\n        mintoors[msg.sender].tokenBalance += uint128(quantity);\n    }\n\n    function seedAllowlist(address[] memory addresses, uint256[] memory numSlots) external onlyOwner {\n        require(addresses.length == numSlots.length, \"addresses does not match numSlots length\");\n        for (uint256 i = 0; i < addresses.length; i++) {\n            mintoors[addresses[i]].maxAllowlistTokens = uint128(numSlots[i]);\n        }\n    }\n\n    function updateMaxMints(address[] memory addresses, uint256[] memory numSlots) external onlyOwner {\n        require(addresses.length == numSlots.length, \"addresses does not match numSlots length\");\n        for (uint256 i = 0; i < addresses.length; i++) {\n            mintoors[addresses[i]].maxPublicSaleTokens = uint128(numSlots[i]);\n        }\n    }\n\n    function initializeAllowlistSale(uint16 maxBatchSize, uint256 salePrice, uint32 saleStartTime) external onlyOwner {\n        allowlistSaleConfig.maxBatchSize = maxBatchSize;\n        allowlistSaleConfig.saleStartTime = saleStartTime;\n        allowlistSaleConfig.salePrice = salePrice;\n    }\n\n    function initializePublicSale(uint16 maxBatchSize, uint256 salePrice, uint32 saleStartTime, uint32 saleKey) external onlyOwner {\n        publicSaleConfig.maxBatchSize = maxBatchSize;\n        publicSaleConfig.saleKey = saleKey;\n        publicSaleConfig.saleStartTime = saleStartTime;\n        publicSaleConfig.salePrice = salePrice;\n    }\n\n    function setCollectionSize(uint256 _collectionSize) external onlyOwner {\n        require(_collectionSize >= totalSupply(), \"cannot make collection size smaller than supply\");\n        _totalAllowedTokens = uint64(_collectionSize);\n    }\n\n    function totalSupply() public view returns (uint256) {\n        return (_tokenCounter - 1);\n    }\n\n    \n    function _baseURI() internal view virtual override returns (string memory) {\n        return _baseTokenURI;\n    }\n\n    function setBaseURI(string calldata baseURI) external onlyOwner {\n        _baseTokenURI = baseURI;\n    }\n\n    function withdrawMoney() external onlyOwner nonReentrant {\n        (bool success, ) = msg.sender.call{value: address(this).balance}(\"\");\n        require(success, \"Transfer failed.\");\n    }\n\n    function collectionSize() public view returns (uint256) {\n        return _totalAllowedTokens;\n    }\n    \n    function numberMinted(address owner) public view returns (uint256) {\n        return uint256(mintoors[owner].tokenBalance);\n    }\n\n    function maxMintableTokens(address owner) public view returns (uint256) {\n        return allowlistSlots(owner) + publicSaleSlots(owner);\n    }\n\n    function publicSaleSlots(address owner) public view returns (uint256) {\n        Mintoor memory mintoor = mintoors[owner];\n        return mintoor.maxPublicSaleTokens != 0 ? uint256(mintoor.maxPublicSaleTokens) : uint256(DEFAULT_MAX_BATCH_SIZE);\n    }\n\n    function publicSaleTokensRemaining(address owner) public view returns (uint256) {\n        return maxMintableTokens(owner) - numberMinted(owner);\n    }\n\n    function allowlistSlots(address owner) public view returns (uint256) {\n        return uint256(mintoors[owner].maxAllowlistTokens);\n    }\n\n    function allowlistTokensRemaining(address owner) public view returns (uint256) {\n        Mintoor memory mintoor = mintoors[owner];\n        return uint256(mintoor.maxAllowlistTokens) - uint256(mintoor.allowlistBalance);\n    }\n\n    function getAllowlistSaleDuration() public view returns (uint256) {\n        SaleConfig memory config = allowlistSaleConfig; \n        return block.timestamp - config.saleStartTime;\n    }\n\n    function getSaleStatus() public view returns (uint8) {\n        if (isSaleClosed()) {\n            return SALE_STATUS_DONE;\n        } else if (isMintPaused()) {\n            return SALE_STATUS_PAUSED;\n        } else if (isPublicSaleOn()) {\n            return SALE_STATUS_PUBLIC;\n        } else if (isAllowlistSaleOn()) {\n            return SALE_STATUS_ALLOWLIST;\n        } else {\n            return SALE_STATUS_NOT_STARTED;\n        }\n    }\n\n    function isAllowlistSaleOn() public view returns (bool) {\n        SaleConfig memory config = allowlistSaleConfig; \n        return !isPublicSaleOn() && config.saleStartTime > 0 && block.timestamp >= config.saleStartTime;\n    }\n\n    function isPublicSaleOn() public view returns (bool) {\n        SaleConfig memory config = publicSaleConfig; \n        return config.saleStartTime > 0 && block.timestamp >= config.saleStartTime;\n    }\n\n    function isSaleClosed() public view returns (bool) {\n        return totalSupply() >= collectionSize();\n    }\n\n    function isMintPaused() public view returns (bool) {\n        return _mintPaused;\n    }\n\n    function pauseMint(bool isPaused) external onlyOwner {\n        _mintPaused = isPaused;\n    }\n\n    function getMintPrice() public view returns (uint256) {\n        if (isPublicSaleOn()) {\n           return publicSaleConfig.salePrice;\n        } else if (isAllowlistSaleOn()) {\n            return allowlistSaleConfig.salePrice;\n        } else {\n            return 0;\n        }\n    }\n\n    function getUserConfig(address owner) public view returns (uint256 userAllowlistSlots, uint256 userAllowlistRemaining, uint256 userPublicSlots, uint256 userPublicRemaining, uint256 userTokenBalance) {\n        uint256 _allowlistSlots = allowlistSlots(owner);\n        uint256 _allowlistRemaining= allowlistTokensRemaining(owner);\n        uint256 _publicSlots = maxMintableTokens(owner);\n        uint256 _publicRemaining =  publicSaleTokensRemaining(owner);\n        uint256 _tokenBalance = numberMinted(owner);\n\n        return (_allowlistSlots, _allowlistRemaining, _publicSlots, _publicRemaining, _tokenBalance);\n    }\n}",
  "sourcePath": "/Users/bash/Sites/crypto/ethereum/nine-seals/contracts/NineSeals.sol",
  "compiler": {
    "name": "solc",
    "version": "0.8.17+commit.8df45f5f.Emscripten.clang"
  },
  "schemaVersion": "3.4.11",
  "updatedAt": "2023-01-22T18:36:41.798Z",
  "networkType": "ethereum",
  "devdoc": {
    "kind": "dev",
    "methods": {
      "approve(address,uint256)": {
        "details": "See {IERC721-approve}."
      },
      "balanceOf(address)": {
        "details": "See {IERC721-balanceOf}."
      },
      "getApproved(uint256)": {
        "details": "See {IERC721-getApproved}."
      },
      "isApprovedForAll(address,address)": {
        "details": "See {IERC721-isApprovedForAll}."
      },
      "name()": {
        "details": "See {IERC721Metadata-name}."
      },
      "owner()": {
        "details": "Returns the address of the current owner."
      },
      "ownerOf(uint256)": {
        "details": "See {IERC721-ownerOf}."
      },
      "renounceOwnership()": {
        "details": "Leaves the contract without owner. It will not be possible to call `onlyOwner` functions anymore. Can only be called by the current owner. NOTE: Renouncing ownership will leave the contract without an owner, thereby removing any functionality that is only available to the owner."
      },
      "safeTransferFrom(address,address,uint256)": {
        "details": "See {IERC721-safeTransferFrom}."
      },
      "safeTransferFrom(address,address,uint256,bytes)": {
        "details": "See {IERC721-safeTransferFrom}."
      },
      "setApprovalForAll(address,bool)": {
        "details": "See {IERC721-setApprovalForAll}."
      },
      "supportsInterface(bytes4)": {
        "details": "See {IERC165-supportsInterface}."
      },
      "symbol()": {
        "details": "See {IERC721Metadata-symbol}."
      },
      "tokenURI(uint256)": {
        "details": "See {IERC721Metadata-tokenURI}."
      },
      "transferFrom(address,address,uint256)": {
        "details": "See {IERC721-transferFrom}."
      },
      "transferOwnership(address)": {
        "details": "Transfers ownership of the contract to a new account (`newOwner`). Can only be called by the current owner."
      }
    },
    "version": 1
  },
  "userdoc": {
    "kind": "user",
    "methods": {},
    "version": 1
  }
}