{
  "contractName": "NineSeals",
  "abi": [
    {
      "inputs": [
        {
          "internalType": "string",
          "name": "name",
          "type": "string"
        },
        {
          "internalType": "string",
          "name": "symbol",
          "type": "string"
        }
      ],
      "stateMutability": "nonpayable",
      "type": "constructor"
    },
    {
      "anonymous": false,
      "inputs": [
        {
          "indexed": true,
          "internalType": "address",
          "name": "owner",
          "type": "address"
        },
        {
          "indexed": true,
          "internalType": "address",
          "name": "approved",
          "type": "address"
        },
        {
          "indexed": true,
          "internalType": "uint256",
          "name": "tokenId",
          "type": "uint256"
        }
      ],
      "name": "Approval",
      "type": "event"
    },
    {
      "anonymous": false,
      "inputs": [
        {
          "indexed": true,
          "internalType": "address",
          "name": "owner",
          "type": "address"
        },
        {
          "indexed": true,
          "internalType": "address",
          "name": "operator",
          "type": "address"
        },
        {
          "indexed": false,
          "internalType": "bool",
          "name": "approved",
          "type": "bool"
        }
      ],
      "name": "ApprovalForAll",
      "type": "event"
    },
    {
      "anonymous": false,
      "inputs": [
        {
          "indexed": true,
          "internalType": "address",
          "name": "previousOwner",
          "type": "address"
        },
        {
          "indexed": true,
          "internalType": "address",
          "name": "newOwner",
          "type": "address"
        }
      ],
      "name": "OwnershipTransferred",
      "type": "event"
    },
    {
      "anonymous": false,
      "inputs": [
        {
          "indexed": true,
          "internalType": "address",
          "name": "from",
          "type": "address"
        },
        {
          "indexed": true,
          "internalType": "address",
          "name": "to",
          "type": "address"
        },
        {
          "indexed": true,
          "internalType": "uint256",
          "name": "tokenId",
          "type": "uint256"
        }
      ],
      "name": "Transfer",
      "type": "event"
    },
    {
      "inputs": [],
      "name": "DEFAULT_COLLECTION_SIZE",
      "outputs": [
        {
          "internalType": "uint64",
          "name": "",
          "type": "uint64"
        }
      ],
      "stateMutability": "view",
      "type": "function",
      "constant": true
    },
    {
      "inputs": [],
      "name": "DEFAULT_MAX_BATCH_SIZE",
      "outputs": [
        {
          "internalType": "uint64",
          "name": "",
          "type": "uint64"
        }
      ],
      "stateMutability": "view",
      "type": "function",
      "constant": true
    },
    {
      "inputs": [],
      "name": "_totalAllowedTokens",
      "outputs": [
        {
          "internalType": "uint64",
          "name": "",
          "type": "uint64"
        }
      ],
      "stateMutability": "view",
      "type": "function",
      "constant": true
    },
    {
      "inputs": [],
      "name": "allowlistSaleConfig",
      "outputs": [
        {
          "internalType": "uint16",
          "name": "maxBatchSize",
          "type": "uint16"
        },
        {
          "internalType": "uint32",
          "name": "saleKey",
          "type": "uint32"
        },
        {
          "internalType": "uint32",
          "name": "saleStartTime",
          "type": "uint32"
        },
        {
          "internalType": "uint256",
          "name": "salePrice",
          "type": "uint256"
        }
      ],
      "stateMutability": "view",
      "type": "function",
      "constant": true
    },
    {
      "inputs": [
        {
          "internalType": "address",
          "name": "to",
          "type": "address"
        },
        {
          "internalType": "uint256",
          "name": "tokenId",
          "type": "uint256"
        }
      ],
      "name": "approve",
      "outputs": [],
      "stateMutability": "nonpayable",
      "type": "function"
    },
    {
      "inputs": [
        {
          "internalType": "address",
          "name": "owner",
          "type": "address"
        }
      ],
      "name": "balanceOf",
      "outputs": [
        {
          "internalType": "uint256",
          "name": "",
          "type": "uint256"
        }
      ],
      "stateMutability": "view",
      "type": "function",
      "constant": true
    },
    {
      "inputs": [
        {
          "internalType": "uint256",
          "name": "tokenId",
          "type": "uint256"
        }
      ],
      "name": "getApproved",
      "outputs": [
        {
          "internalType": "address",
          "name": "",
          "type": "address"
        }
      ],
      "stateMutability": "view",
      "type": "function",
      "constant": true
    },
    {
      "inputs": [
        {
          "internalType": "address",
          "name": "owner",
          "type": "address"
        },
        {
          "internalType": "address",
          "name": "operator",
          "type": "address"
        }
      ],
      "name": "isApprovedForAll",
      "outputs": [
        {
          "internalType": "bool",
          "name": "",
          "type": "bool"
        }
      ],
      "stateMutability": "view",
      "type": "function",
      "constant": true
    },
    {
      "inputs": [
        {
          "internalType": "address",
          "name": "",
          "type": "address"
        }
      ],
      "name": "mintoors",
      "outputs": [
        {
          "internalType": "uint128",
          "name": "tokenBalance",
          "type": "uint128"
        },
        {
          "internalType": "uint128",
          "name": "maxAllowlistTokens",
          "type": "uint128"
        },
        {
          "internalType": "uint128",
          "name": "allowlistBalance",
          "type": "uint128"
        },
        {
          "internalType": "uint128",
          "name": "maxPublicSaleTokens",
          "type": "uint128"
        }
      ],
      "stateMutability": "view",
      "type": "function",
      "constant": true
    },
    {
      "inputs": [],
      "name": "name",
      "outputs": [
        {
          "internalType": "string",
          "name": "",
          "type": "string"
        }
      ],
      "stateMutability": "view",
      "type": "function",
      "constant": true
    },
    {
      "inputs": [],
      "name": "owner",
      "outputs": [
        {
          "internalType": "address",
          "name": "",
          "type": "address"
        }
      ],
      "stateMutability": "view",
      "type": "function",
      "constant": true
    },
    {
      "inputs": [
        {
          "internalType": "uint256",
          "name": "tokenId",
          "type": "uint256"
        }
      ],
      "name": "ownerOf",
      "outputs": [
        {
          "internalType": "address",
          "name": "",
          "type": "address"
        }
      ],
      "stateMutability": "view",
      "type": "function",
      "constant": true
    },
    {
      "inputs": [],
      "name": "publicSaleConfig",
      "outputs": [
        {
          "internalType": "uint16",
          "name": "maxBatchSize",
          "type": "uint16"
        },
        {
          "internalType": "uint32",
          "name": "saleKey",
          "type": "uint32"
        },
        {
          "internalType": "uint32",
          "name": "saleStartTime",
          "type": "uint32"
        },
        {
          "internalType": "uint256",
          "name": "salePrice",
          "type": "uint256"
        }
      ],
      "stateMutability": "view",
      "type": "function",
      "constant": true
    },
    {
      "inputs": [],
      "name": "renounceOwnership",
      "outputs": [],
      "stateMutability": "nonpayable",
      "type": "function"
    },
    {
      "inputs": [
        {
          "internalType": "address",
          "name": "from",
          "type": "address"
        },
        {
          "internalType": "address",
          "name": "to",
          "type": "address"
        },
        {
          "internalType": "uint256",
          "name": "tokenId",
          "type": "uint256"
        }
      ],
      "name": "safeTransferFrom",
      "outputs": [],
      "stateMutability": "nonpayable",
      "type": "function"
    },
    {
      "inputs": [
        {
          "internalType": "address",
          "name": "from",
          "type": "address"
        },
        {
          "internalType": "address",
          "name": "to",
          "type": "address"
        },
        {
          "internalType": "uint256",
          "name": "tokenId",
          "type": "uint256"
        },
        {
          "internalType": "bytes",
          "name": "data",
          "type": "bytes"
        }
      ],
      "name": "safeTransferFrom",
      "outputs": [],
      "stateMutability": "nonpayable",
      "type": "function"
    },
    {
      "inputs": [
        {
          "internalType": "address",
          "name": "operator",
          "type": "address"
        },
        {
          "internalType": "bool",
          "name": "approved",
          "type": "bool"
        }
      ],
      "name": "setApprovalForAll",
      "outputs": [],
      "stateMutability": "nonpayable",
      "type": "function"
    },
    {
      "inputs": [
        {
          "internalType": "bytes4",
          "name": "interfaceId",
          "type": "bytes4"
        }
      ],
      "name": "supportsInterface",
      "outputs": [
        {
          "internalType": "bool",
          "name": "",
          "type": "bool"
        }
      ],
      "stateMutability": "view",
      "type": "function",
      "constant": true
    },
    {
      "inputs": [],
      "name": "symbol",
      "outputs": [
        {
          "internalType": "string",
          "name": "",
          "type": "string"
        }
      ],
      "stateMutability": "view",
      "type": "function",
      "constant": true
    },
    {
      "inputs": [
        {
          "internalType": "uint256",
          "name": "tokenId",
          "type": "uint256"
        }
      ],
      "name": "tokenURI",
      "outputs": [
        {
          "internalType": "string",
          "name": "",
          "type": "string"
        }
      ],
      "stateMutability": "view",
      "type": "function",
      "constant": true
    },
    {
      "inputs": [
        {
          "internalType": "address",
          "name": "from",
          "type": "address"
        },
        {
          "internalType": "address",
          "name": "to",
          "type": "address"
        },
        {
          "internalType": "uint256",
          "name": "tokenId",
          "type": "uint256"
        }
      ],
      "name": "transferFrom",
      "outputs": [],
      "stateMutability": "nonpayable",
      "type": "function"
    },
    {
      "inputs": [
        {
          "internalType": "address",
          "name": "newOwner",
          "type": "address"
        }
      ],
      "name": "transferOwnership",
      "outputs": [],
      "stateMutability": "nonpayable",
      "type": "function"
    },
    {
      "inputs": [
        {
          "internalType": "uint256",
          "name": "quantity",
          "type": "uint256"
        }
      ],
      "name": "allowlistMint",
      "outputs": [],
      "stateMutability": "payable",
      "type": "function",
      "payable": true
    },
    {
      "inputs": [
        {
          "internalType": "uint256",
          "name": "quantity",
          "type": "uint256"
        },
        {
          "internalType": "uint256",
          "name": "callerPublicSaleKey",
          "type": "uint256"
        }
      ],
      "name": "publicSaleMint",
      "outputs": [],
      "stateMutability": "payable",
      "type": "function",
      "payable": true
    },
    {
      "inputs": [
        {
          "internalType": "address[]",
          "name": "addresses",
          "type": "address[]"
        },
        {
          "internalType": "uint256[]",
          "name": "numSlots",
          "type": "uint256[]"
        }
      ],
      "name": "seedAllowlist",
      "outputs": [],
      "stateMutability": "nonpayable",
      "type": "function"
    },
    {
      "inputs": [
        {
          "internalType": "uint16",
          "name": "maxBatchSize",
          "type": "uint16"
        },
        {
          "internalType": "uint256",
          "name": "salePrice",
          "type": "uint256"
        },
        {
          "internalType": "uint32",
          "name": "saleStartTime",
          "type": "uint32"
        }
      ],
      "name": "initializeAllowlistSale",
      "outputs": [],
      "stateMutability": "nonpayable",
      "type": "function"
    },
    {
      "inputs": [
        {
          "internalType": "uint16",
          "name": "maxBatchSize",
          "type": "uint16"
        },
        {
          "internalType": "uint256",
          "name": "salePrice",
          "type": "uint256"
        },
        {
          "internalType": "uint32",
          "name": "saleStartTime",
          "type": "uint32"
        },
        {
          "internalType": "uint32",
          "name": "saleKey",
          "type": "uint32"
        }
      ],
      "name": "initializePublicSale",
      "outputs": [],
      "stateMutability": "nonpayable",
      "type": "function"
    },
    {
      "inputs": [
        {
          "internalType": "uint256",
          "name": "collectionSize",
          "type": "uint256"
        }
      ],
      "name": "setCollectionSize",
      "outputs": [],
      "stateMutability": "nonpayable",
      "type": "function"
    },
    {
      "inputs": [],
      "name": "totalSupply",
      "outputs": [
        {
          "internalType": "uint256",
          "name": "",
          "type": "uint256"
        }
      ],
      "stateMutability": "view",
      "type": "function",
      "constant": true
    },
    {
      "inputs": [
        {
          "internalType": "string",
          "name": "baseURI",
          "type": "string"
        }
      ],
      "name": "setBaseURI",
      "outputs": [],
      "stateMutability": "nonpayable",
      "type": "function"
    },
    {
      "inputs": [],
      "name": "withdrawMoney",
      "outputs": [],
      "stateMutability": "nonpayable",
      "type": "function"
    },
    {
      "inputs": [],
      "name": "collectionSize",
      "outputs": [
        {
          "internalType": "uint256",
          "name": "",
          "type": "uint256"
        }
      ],
      "stateMutability": "view",
      "type": "function",
      "constant": true
    },
    {
      "inputs": [
        {
          "internalType": "address",
          "name": "owner",
          "type": "address"
        }
      ],
      "name": "numberMinted",
      "outputs": [
        {
          "internalType": "uint256",
          "name": "",
          "type": "uint256"
        }
      ],
      "stateMutability": "view",
      "type": "function",
      "constant": true
    },
    {
      "inputs": [
        {
          "internalType": "address",
          "name": "owner",
          "type": "address"
        }
      ],
      "name": "maxMintableTokens",
      "outputs": [
        {
          "internalType": "uint256",
          "name": "",
          "type": "uint256"
        }
      ],
      "stateMutability": "view",
      "type": "function",
      "constant": true
    },
    {
      "inputs": [
        {
          "internalType": "address",
          "name": "owner",
          "type": "address"
        }
      ],
      "name": "publicSaleSlots",
      "outputs": [
        {
          "internalType": "uint256",
          "name": "",
          "type": "uint256"
        }
      ],
      "stateMutability": "view",
      "type": "function",
      "constant": true
    },
    {
      "inputs": [
        {
          "internalType": "address",
          "name": "owner",
          "type": "address"
        }
      ],
      "name": "publicSaleTokensRemaining",
      "outputs": [
        {
          "internalType": "uint256",
          "name": "",
          "type": "uint256"
        }
      ],
      "stateMutability": "view",
      "type": "function",
      "constant": true
    },
    {
      "inputs": [
        {
          "internalType": "address",
          "name": "owner",
          "type": "address"
        }
      ],
      "name": "allowlistSlots",
      "outputs": [
        {
          "internalType": "uint256",
          "name": "",
          "type": "uint256"
        }
      ],
      "stateMutability": "view",
      "type": "function",
      "constant": true
    },
    {
      "inputs": [
        {
          "internalType": "address",
          "name": "owner",
          "type": "address"
        }
      ],
      "name": "allowlistTokensRemaining",
      "outputs": [
        {
          "internalType": "uint256",
          "name": "",
          "type": "uint256"
        }
      ],
      "stateMutability": "view",
      "type": "function",
      "constant": true
    },
    {
      "inputs": [],
      "name": "getAllowlistSaleDuration",
      "outputs": [
        {
          "internalType": "uint256",
          "name": "",
          "type": "uint256"
        }
      ],
      "stateMutability": "view",
      "type": "function",
      "constant": true
    },
    {
      "inputs": [],
      "name": "isPublicSaleOn",
      "outputs": [
        {
          "internalType": "bool",
          "name": "",
          "type": "bool"
        }
      ],
      "stateMutability": "view",
      "type": "function",
      "constant": true
    }
  ],
  "bytecode": "0x60806040523480156200001157600080fd5b5060405162005c9a38038062005c9a833981810160405281019062000037919062000344565b818181600090816200004a919062000614565b5080600190816200005c919062000614565b5050506200007f62000073620000e360201b60201c565b620000eb60201b60201c565b60016007819055506000600860006101000a81548167ffffffffffffffff021916908367ffffffffffffffff1602179055506127106008806101000a81548167ffffffffffffffff021916908367ffffffffffffffff1602179055505050620006fb565b600033905090565b6000600660009054906101000a900473ffffffffffffffffffffffffffffffffffffffff16905081600660006101000a81548173ffffffffffffffffffffffffffffffffffffffff021916908373ffffffffffffffffffffffffffffffffffffffff1602179055508173ffffffffffffffffffffffffffffffffffffffff168173ffffffffffffffffffffffffffffffffffffffff167f8be0079c531659141344cd1fd0a4f28419497f9722a3daafe3b4186f6b6457e060405160405180910390a35050565b6000604051905090565b600080fd5b600080fd5b600080fd5b600080fd5b6000601f19601f8301169050919050565b7f4e487b7100000000000000000000000000000000000000000000000000000000600052604160045260246000fd5b6200021a82620001cf565b810181811067ffffffffffffffff821117156200023c576200023b620001e0565b5b80604052505050565b600062000251620001b1565b90506200025f82826200020f565b919050565b600067ffffffffffffffff821115620002825762000281620001e0565b5b6200028d82620001cf565b9050602081019050919050565b60005b83811015620002ba5780820151818401526020810190506200029d565b60008484015250505050565b6000620002dd620002d78462000264565b62000245565b905082815260208101848484011115620002fc57620002fb620001ca565b5b620003098482856200029a565b509392505050565b600082601f830112620003295762000328620001c5565b5b81516200033b848260208601620002c6565b91505092915050565b600080604083850312156200035e576200035d620001bb565b5b600083015167ffffffffffffffff8111156200037f576200037e620001c0565b5b6200038d8582860162000311565b925050602083015167ffffffffffffffff811115620003b157620003b0620001c0565b5b620003bf8582860162000311565b9150509250929050565b600081519050919050565b7f4e487b7100000000000000000000000000000000000000000000000000000000600052602260045260246000fd5b600060028204905060018216806200041c57607f821691505b602082108103620004325762000431620003d4565b5b50919050565b60008190508160005260206000209050919050565b60006020601f8301049050919050565b600082821b905092915050565b6000600883026200049c7fffffffffffffffffffffffffffffffffffffffffffffffffffffffffffffffff826200045d565b620004a886836200045d565b95508019841693508086168417925050509392505050565b6000819050919050565b6000819050919050565b6000620004f5620004ef620004e984620004c0565b620004ca565b620004c0565b9050919050565b6000819050919050565b6200051183620004d4565b620005296200052082620004fc565b8484546200046a565b825550505050565b600090565b6200054062000531565b6200054d81848462000506565b505050565b5b8181101562000575576200056960008262000536565b60018101905062000553565b5050565b601f821115620005c4576200058e8162000438565b62000599846200044d565b81016020851015620005a9578190505b620005c1620005b8856200044d565b83018262000552565b50505b505050565b600082821c905092915050565b6000620005e960001984600802620005c9565b1980831691505092915050565b6000620006048383620005d6565b9150826002028217905092915050565b6200061f82620003c9565b67ffffffffffffffff8111156200063b576200063a620001e0565b5b62000647825462000403565b6200065482828562000579565b600060209050601f8311600181146200068c576000841562000677578287015190505b620006838582620005f6565b865550620006f3565b601f1984166200069c8662000438565b60005b82811015620006c6578489015182556001820191506020850194506020810190506200069f565b86831015620006e65784890151620006e2601f891682620005d6565b8355505b6001600288020188555050505b505050505050565b61558f806200070b6000396000f3fe60806040526004361061023b5760003560e01c806395d89b411161012e578063c3222849116100ab578063dc33e6811161006f578063dc33e68114610884578063e985e9c5146108c1578063f12732a2146108fe578063f24096a91461093b578063f2fde38b146109665761023b565b8063c322284914610783578063c40c2815146107c0578063c87b56dd146107fd578063cb91d8b31461083a578063d5e2eb55146108565761023b565b8063ac446002116100f2578063ac446002146106d5578063aca8ffe7146106ec578063b05863d514610715578063b88d4fde1461073e578063c180526a146107675761023b565b806395d89b41146105ea5780639fb1dc1414610615578063a22cb46514610655578063a3fd2c441461067e578063a81030aa146106ac5761023b565b806342842e0e116101bc57806370a082311161018057806370a0823114610505578063715018a61461054257806381d17496146105595780638c202048146105825780638da5cb5b146105bf5761023b565b806342842e0e1461042057806345c0f5331461044957806355f804b3146104745780635deaa5f41461049d5780636352211e146104c85761023b565b806318160ddd1161020357806318160ddd146103395780631ac3fff11461036457806323393c401461038f57806323b872dd146103cc5780633f5e4741146103f55761023b565b806301ffc9a71461024057806305f1bc031461027d57806306fdde03146102a8578063081812fc146102d3578063095ea7b314610310575b600080fd5b34801561024c57600080fd5b506102676004803603810190610262919061374a565b61098f565b6040516102749190613792565b60405180910390f35b34801561028957600080fd5b50610292610a71565b60405161029f91906137d0565b60405180910390f35b3480156102b457600080fd5b506102bd610a89565b6040516102ca919061387b565b60405180910390f35b3480156102df57600080fd5b506102fa60048036038101906102f591906138d3565b610b1b565b6040516103079190613941565b60405180910390f35b34801561031c57600080fd5b5061033760048036038101906103329190613988565b610b61565b005b34801561034557600080fd5b5061034e610c78565b60405161035b91906139d7565b60405180910390f35b34801561037057600080fd5b50610379610ca0565b60405161038691906139d7565b60405180910390f35b34801561039b57600080fd5b506103b660048036038101906103b191906139f2565b610d44565b6040516103c391906139d7565b60405180910390f35b3480156103d857600080fd5b506103f360048036038101906103ee9190613a1f565b610efb565b005b34801561040157600080fd5b5061040a610f5b565b6040516104179190613792565b60405180910390f35b34801561042c57600080fd5b5061044760048036038101906104429190613a1f565b61100d565b005b34801561045557600080fd5b5061045e61102d565b60405161046b91906139d7565b60405180910390f35b34801561048057600080fd5b5061049b60048036038101906104969190613ad7565b611053565b005b3480156104a957600080fd5b506104b2611071565b6040516104bf91906137d0565b60405180910390f35b3480156104d457600080fd5b506104ef60048036038101906104ea91906138d3565b611076565b6040516104fc9190613941565b60405180910390f35b34801561051157600080fd5b5061052c600480360381019061052791906139f2565b6110fc565b60405161053991906139d7565b60405180910390f35b34801561054e57600080fd5b506105576111b3565b005b34801561056557600080fd5b50610580600480360381019061057b9190613b9a565b6111c7565b005b34801561058e57600080fd5b506105a960048036038101906105a491906139f2565b611222565b6040516105b691906139d7565b60405180910390f35b3480156105cb57600080fd5b506105d461129c565b6040516105e19190613941565b60405180910390f35b3480156105f657600080fd5b506105ff6112c6565b60405161060c919061387b565b60405180910390f35b34801561062157600080fd5b5061063c600480360381019061063791906139f2565b611358565b60405161064c9493929190613c18565b60405180910390f35b34801561066157600080fd5b5061067c60048036038101906106779190613c89565b6113f8565b005b34801561068a57600080fd5b5061069361140e565b6040516106a39493929190613ce7565b60405180910390f35b3480156106b857600080fd5b506106d360048036038101906106ce9190613d2c565b61145a565b005b3480156106e157600080fd5b506106ea6114da565b005b3480156106f857600080fd5b50610713600480360381019061070e91906138d3565b6115a1565b005b34801561072157600080fd5b5061073c60048036038101906107379190613f94565b61163c565b005b34801561074a57600080fd5b50610765600480360381019061076091906140c1565b611759565b005b610781600480360381019061077c91906138d3565b6117bb565b005b34801561078f57600080fd5b506107aa60048036038101906107a591906139f2565b611d7e565b6040516107b791906139d7565b60405180910390f35b3480156107cc57600080fd5b506107e760048036038101906107e291906139f2565b611da3565b6040516107f491906139d7565b60405180910390f35b34801561080957600080fd5b50610824600480360381019061081f91906138d3565b611f69565b604051610831919061387b565b60405180910390f35b610854600480360381019061084f9190614144565b611fd1565b005b34801561086257600080fd5b5061086b6123ba565b60405161087b9493929190613ce7565b60405180910390f35b34801561089057600080fd5b506108ab60048036038101906108a691906139f2565b612406565b6040516108b891906139d7565b60405180910390f35b3480156108cd57600080fd5b506108e860048036038101906108e39190614184565b612480565b6040516108f59190613792565b60405180910390f35b34801561090a57600080fd5b50610925600480360381019061092091906139f2565b612514565b60405161093291906139d7565b60405180910390f35b34801561094757600080fd5b50610950612539565b60405161095d91906137d0565b60405180910390f35b34801561097257600080fd5b5061098d600480360381019061098891906139f2565b61253f565b005b60007f80ac58cd000000000000000000000000000000000000000000000000000000007bffffffffffffffffffffffffffffffffffffffffffffffffffffffff1916827bffffffffffffffffffffffffffffffffffffffffffffffffffffffff19161480610a5a57507f5b5e139f000000000000000000000000000000000000000000000000000000007bffffffffffffffffffffffffffffffffffffffffffffffffffffffff1916827bffffffffffffffffffffffffffffffffffffffffffffffffffffffff1916145b80610a6a5750610a69826125c2565b5b9050919050565b60088054906101000a900467ffffffffffffffff1681565b606060008054610a98906141f3565b80601f0160208091040260200160405190810160405280929190818152602001828054610ac4906141f3565b8015610b115780601f10610ae657610100808354040283529160200191610b11565b820191906000526020600020905b815481529060010190602001808311610af457829003601f168201915b5050505050905090565b6000610b268261262c565b6004600083815260200190815260200160002060009054906101000a900473ffffffffffffffffffffffffffffffffffffffff169050919050565b6000610b6c82611076565b90508073ffffffffffffffffffffffffffffffffffffffff168373ffffffffffffffffffffffffffffffffffffffff1603610bdc576040517f08c379a0000000000000000000000000000000000000000000000000000000008152600401610bd390614296565b60405180910390fd5b8073ffffffffffffffffffffffffffffffffffffffff16610bfb612677565b73ffffffffffffffffffffffffffffffffffffffff161480610c2a5750610c2981610c24612677565b612480565b5b610c69576040517f08c379a0000000000000000000000000000000000000000000000000000000008152600401610c6090614328565b60405180910390fd5b610c73838361267f565b505050565b6000600860009054906101000a900467ffffffffffffffff1667ffffffffffffffff16905090565b600080600a6040518060800160405290816000820160009054906101000a900461ffff1661ffff1661ffff1681526020016000820160029054906101000a900463ffffffff1663ffffffff1663ffffffff1681526020016000820160069054906101000a900463ffffffff1663ffffffff1663ffffffff1681526020016001820154815250509050806040015163ffffffff1642610d3e9190614377565b91505090565b600080600e60008473ffffffffffffffffffffffffffffffffffffffff1673ffffffffffffffffffffffffffffffffffffffff1681526020019081526020016000206040518060800160405290816000820160009054906101000a90046fffffffffffffffffffffffffffffffff166fffffffffffffffffffffffffffffffff166fffffffffffffffffffffffffffffffff1681526020016000820160109054906101000a90046fffffffffffffffffffffffffffffffff166fffffffffffffffffffffffffffffffff166fffffffffffffffffffffffffffffffff1681526020016001820160009054906101000a90046fffffffffffffffffffffffffffffffff166fffffffffffffffffffffffffffffffff166fffffffffffffffffffffffffffffffff1681526020016001820160109054906101000a90046fffffffffffffffffffffffffffffffff166fffffffffffffffffffffffffffffffff166fffffffffffffffffffffffffffffffff1681525050905080604001516fffffffffffffffffffffffffffffffff1681602001516fffffffffffffffffffffffffffffffff16610ef39190614377565b915050919050565b610f0c610f06612677565b82612738565b610f4b576040517f08c379a0000000000000000000000000000000000000000000000000000000008152600401610f429061441d565b60405180910390fd5b610f568383836127cd565b505050565b600080600c6040518060800160405290816000820160009054906101000a900461ffff1661ffff1661ffff1681526020016000820160029054906101000a900463ffffffff1663ffffffff1663ffffffff1681526020016000820160069054906101000a900463ffffffff1663ffffffff1663ffffffff16815260200160018201548152505090506000816040015163ffffffff161180156110075750806040015163ffffffff164210155b91505090565b61102883838360405180602001604052806000815250611759565b505050565b600060088054906101000a900467ffffffffffffffff1667ffffffffffffffff16905090565b61105b612ac6565b81816009918261106c9291906145f4565b505050565b600581565b60008061108283612b44565b9050600073ffffffffffffffffffffffffffffffffffffffff168173ffffffffffffffffffffffffffffffffffffffff16036110f3576040517f08c379a00000000000000000000000000000000000000000000000000000000081526004016110ea90614710565b60405180910390fd5b80915050919050565b60008073ffffffffffffffffffffffffffffffffffffffff168273ffffffffffffffffffffffffffffffffffffffff160361116c576040517f08c379a0000000000000000000000000000000000000000000000000000000008152600401611163906147a2565b60405180910390fd5b600360008373ffffffffffffffffffffffffffffffffffffffff1673ffffffffffffffffffffffffffffffffffffffff168152602001908152602001600020549050919050565b6111bb612ac6565b6111c56000612b81565b565b6111cf612ac6565b82600a60000160006101000a81548161ffff021916908361ffff16021790555080600a60000160066101000a81548163ffffffff021916908363ffffffff16021790555081600a60010181905550505050565b6000600e60008373ffffffffffffffffffffffffffffffffffffffff1673ffffffffffffffffffffffffffffffffffffffff16815260200190815260200160002060000160109054906101000a90046fffffffffffffffffffffffffffffffff166fffffffffffffffffffffffffffffffff169050919050565b6000600660009054906101000a900473ffffffffffffffffffffffffffffffffffffffff16905090565b6060600180546112d5906141f3565b80601f0160208091040260200160405190810160405280929190818152602001828054611301906141f3565b801561134e5780601f106113235761010080835404028352916020019161134e565b820191906000526020600020905b81548152906001019060200180831161133157829003601f168201915b5050505050905090565b600e6020528060005260406000206000915090508060000160009054906101000a90046fffffffffffffffffffffffffffffffff16908060000160109054906101000a90046fffffffffffffffffffffffffffffffff16908060010160009054906101000a90046fffffffffffffffffffffffffffffffff16908060010160109054906101000a90046fffffffffffffffffffffffffffffffff16905084565b61140a611403612677565b8383612c47565b5050565b600c8060000160009054906101000a900461ffff16908060000160029054906101000a900463ffffffff16908060000160069054906101000a900463ffffffff16908060010154905084565b611462612ac6565b83600c60000160006101000a81548161ffff021916908361ffff16021790555080600c60000160026101000a81548163ffffffff021916908363ffffffff16021790555081600c60000160066101000a81548163ffffffff021916908363ffffffff16021790555082600c6001018190555050505050565b6114e2612ac6565b6114ea612db3565b60003373ffffffffffffffffffffffffffffffffffffffff1647604051611510906147f3565b60006040518083038185875af1925050503d806000811461154d576040519150601f19603f3d011682016040523d82523d6000602084013e611552565b606091505b5050905080611596576040517f08c379a000000000000000000000000000000000000000000000000000000000815260040161158d90614854565b60405180910390fd5b5061159f612e02565b565b6115a9612ac6565b6115b1610c78565b60088054906101000a900467ffffffffffffffff1667ffffffffffffffff161015611611576040517f08c379a0000000000000000000000000000000000000000000000000000000008152600401611608906148e6565b60405180910390fd5b806008806101000a81548167ffffffffffffffff021916908367ffffffffffffffff16021790555050565b611644612ac6565b8051825114611688576040517f08c379a000000000000000000000000000000000000000000000000000000000815260040161167f90614978565b60405180910390fd5b60005b8251811015611754578181815181106116a7576116a6614998565b5b6020026020010151600e60008584815181106116c6576116c5614998565b5b602002602001015173ffffffffffffffffffffffffffffffffffffffff1673ffffffffffffffffffffffffffffffffffffffff16815260200190815260200160002060000160106101000a8154816fffffffffffffffffffffffffffffffff02191690836fffffffffffffffffffffffffffffffff160217905550808061174c906149c7565b91505061168b565b505050565b61176a611764612677565b83612738565b6117a9576040517f08c379a00000000000000000000000000000000000000000000000000000000081526004016117a09061441d565b60405180910390fd5b6117b584848484612e0c565b50505050565b3373ffffffffffffffffffffffffffffffffffffffff163273ffffffffffffffffffffffffffffffffffffffff1614611829576040517f08c379a000000000000000000000000000000000000000000000000000000000815260040161182090614a5b565b60405180910390fd5b6000600a6040518060800160405290816000820160009054906101000a900461ffff1661ffff1661ffff1681526020016000820160029054906101000a900463ffffffff1663ffffffff1663ffffffff1681526020016000820160069054906101000a900463ffffffff1663ffffffff1663ffffffff16815260200160018201548152505090506000816060015190506000600e60003373ffffffffffffffffffffffffffffffffffffffff1673ffffffffffffffffffffffffffffffffffffffff1681526020019081526020016000206040518060800160405290816000820160009054906101000a90046fffffffffffffffffffffffffffffffff166fffffffffffffffffffffffffffffffff166fffffffffffffffffffffffffffffffff1681526020016000820160109054906101000a90046fffffffffffffffffffffffffffffffff166fffffffffffffffffffffffffffffffff166fffffffffffffffffffffffffffffffff1681526020016001820160009054906101000a90046fffffffffffffffffffffffffffffffff166fffffffffffffffffffffffffffffffff166fffffffffffffffffffffffffffffffff1681526020016001820160109054906101000a90046fffffffffffffffffffffffffffffffff166fffffffffffffffffffffffffffffffff166fffffffffffffffffffffffffffffffff1681525050905060008203611a72576040517f08c379a0000000000000000000000000000000000000000000000000000000008152600401611a6990614ac7565b60405180910390fd5b600081602001516fffffffffffffffffffffffffffffffff1611611acb576040517f08c379a0000000000000000000000000000000000000000000000000000000008152600401611ac290614b33565b60405180910390fd5b60088054906101000a900467ffffffffffffffff1667ffffffffffffffff1684611af3610c78565b611afd9190614b53565b1115611b3e576040517f08c379a0000000000000000000000000000000000000000000000000000000008152600401611b3590614bd3565b60405180910390fd5b611b4733610d44565b84611b5133612406565b611b5b9190614b53565b1115611b9c576040517f08c379a0000000000000000000000000000000000000000000000000000000008152600401611b9390614c8b565b60405180910390fd5b60005b84811015611c3157611bd133600860009054906101000a900467ffffffffffffffff1667ffffffffffffffff16612e68565b6008600081819054906101000a900467ffffffffffffffff1680929190611bf790614cab565b91906101000a81548167ffffffffffffffff021916908367ffffffffffffffff160217905550508080611c29906149c7565b915050611b9f565b5083600e60003373ffffffffffffffffffffffffffffffffffffffff1673ffffffffffffffffffffffffffffffffffffffff16815260200190815260200160002060000160008282829054906101000a90046fffffffffffffffffffffffffffffffff16611c9f9190614cdb565b92506101000a8154816fffffffffffffffffffffffffffffffff02191690836fffffffffffffffffffffffffffffffff16021790555083600e60003373ffffffffffffffffffffffffffffffffffffffff1673ffffffffffffffffffffffffffffffffffffffff16815260200190815260200160002060010160008282829054906101000a90046fffffffffffffffffffffffffffffffff16611d429190614cdb565b92506101000a8154816fffffffffffffffffffffffffffffffff02191690836fffffffffffffffffffffffffffffffff16021790555050505050565b6000611d8982612406565b611d9283612514565b611d9c9190614377565b9050919050565b600080600e60008473ffffffffffffffffffffffffffffffffffffffff1673ffffffffffffffffffffffffffffffffffffffff1681526020019081526020016000206040518060800160405290816000820160009054906101000a90046fffffffffffffffffffffffffffffffff166fffffffffffffffffffffffffffffffff166fffffffffffffffffffffffffffffffff1681526020016000820160109054906101000a90046fffffffffffffffffffffffffffffffff166fffffffffffffffffffffffffffffffff166fffffffffffffffffffffffffffffffff1681526020016001820160009054906101000a90046fffffffffffffffffffffffffffffffff166fffffffffffffffffffffffffffffffff166fffffffffffffffffffffffffffffffff1681526020016001820160109054906101000a90046fffffffffffffffffffffffffffffffff166fffffffffffffffffffffffffffffffff166fffffffffffffffffffffffffffffffff16815250509050600081606001516fffffffffffffffffffffffffffffffff1603611f4957600567ffffffffffffffff16611f61565b80606001516fffffffffffffffffffffffffffffffff165b915050919050565b6060611f748261262c565b6000611f7e612e86565b90506000815111611f9e5760405180602001604052806000815250611fc9565b80611fa884612f18565b604051602001611fb9929190614d5b565b6040516020818303038152906040525b915050919050565b3373ffffffffffffffffffffffffffffffffffffffff163273ffffffffffffffffffffffffffffffffffffffff161461203f576040517f08c379a000000000000000000000000000000000000000000000000000000000815260040161203690614a5b565b60405180910390fd5b6000600c6040518060800160405290816000820160009054906101000a900461ffff1661ffff1661ffff1681526020016000820160029054906101000a900463ffffffff1663ffffffff1663ffffffff1681526020016000820160069054906101000a900463ffffffff1663ffffffff1663ffffffff16815260200160018201548152505090506000816020015163ffffffff169050600082606001519050838214612120576040517f08c379a000000000000000000000000000000000000000000000000000000000815260040161211790614df1565b60405180910390fd5b612128610f5b565b612167576040517f08c379a000000000000000000000000000000000000000000000000000000000815260040161215e90614e5d565b60405180910390fd5b60088054906101000a900467ffffffffffffffff1667ffffffffffffffff168561218f610c78565b6121999190614b53565b11156121da576040517f08c379a00000000000000000000000000000000000000000000000000000000081526004016121d190614bd3565b60405180910390fd5b6121e333611d7e565b851115612225576040517f08c379a000000000000000000000000000000000000000000000000000000000815260040161221c90614eef565b60405180910390fd5b6122388582612fe690919063ffffffff16565b34101561227a576040517f08c379a000000000000000000000000000000000000000000000000000000000815260040161227190614f81565b60405180910390fd5b60005b8581101561230f576122af33600860009054906101000a900467ffffffffffffffff1667ffffffffffffffff16612e68565b6008600081819054906101000a900467ffffffffffffffff16809291906122d590614cab565b91906101000a81548167ffffffffffffffff021916908367ffffffffffffffff160217905550508080612307906149c7565b91505061227d565b5084600e60003373ffffffffffffffffffffffffffffffffffffffff1673ffffffffffffffffffffffffffffffffffffffff16815260200190815260200160002060000160008282829054906101000a90046fffffffffffffffffffffffffffffffff1661237d9190614cdb565b92506101000a8154816fffffffffffffffffffffffffffffffff02191690836fffffffffffffffffffffffffffffffff1602179055505050505050565b600a8060000160009054906101000a900461ffff16908060000160029054906101000a900463ffffffff16908060000160069054906101000a900463ffffffff16908060010154905084565b6000600e60008373ffffffffffffffffffffffffffffffffffffffff1673ffffffffffffffffffffffffffffffffffffffff16815260200190815260200160002060000160009054906101000a90046fffffffffffffffffffffffffffffffff166fffffffffffffffffffffffffffffffff169050919050565b6000600560008473ffffffffffffffffffffffffffffffffffffffff1673ffffffffffffffffffffffffffffffffffffffff16815260200190815260200160002060008373ffffffffffffffffffffffffffffffffffffffff1673ffffffffffffffffffffffffffffffffffffffff16815260200190815260200160002060009054906101000a900460ff16905092915050565b600061251f82611da3565b61252883611222565b6125329190614b53565b9050919050565b61271081565b612547612ac6565b600073ffffffffffffffffffffffffffffffffffffffff168173ffffffffffffffffffffffffffffffffffffffff16036125b6576040517f08c379a00000000000000000000000000000000000000000000000000000000081526004016125ad90615013565b60405180910390fd5b6125bf81612b81565b50565b60007f01ffc9a7000000000000000000000000000000000000000000000000000000007bffffffffffffffffffffffffffffffffffffffffffffffffffffffff1916827bffffffffffffffffffffffffffffffffffffffffffffffffffffffff1916149050919050565b61263581612ffc565b612674576040517f08c379a000000000000000000000000000000000000000000000000000000000815260040161266b90614710565b60405180910390fd5b50565b600033905090565b816004600083815260200190815260200160002060006101000a81548173ffffffffffffffffffffffffffffffffffffffff021916908373ffffffffffffffffffffffffffffffffffffffff160217905550808273ffffffffffffffffffffffffffffffffffffffff166126f283611076565b73ffffffffffffffffffffffffffffffffffffffff167f8c5be1e5ebec7d5bd14f71427d1e84f3dd0314c0f7b2291e5b200ac8c7c3b92560405160405180910390a45050565b60008061274483611076565b90508073ffffffffffffffffffffffffffffffffffffffff168473ffffffffffffffffffffffffffffffffffffffff16148061278657506127858185612480565b5b806127c457508373ffffffffffffffffffffffffffffffffffffffff166127ac84610b1b565b73ffffffffffffffffffffffffffffffffffffffff16145b91505092915050565b8273ffffffffffffffffffffffffffffffffffffffff166127ed82611076565b73ffffffffffffffffffffffffffffffffffffffff1614612843576040517f08c379a000000000000000000000000000000000000000000000000000000000815260040161283a906150a5565b60405180910390fd5b600073ffffffffffffffffffffffffffffffffffffffff168273ffffffffffffffffffffffffffffffffffffffff16036128b2576040517f08c379a00000000000000000000000000000000000000000000000000000000081526004016128a990615137565b60405180910390fd5b6128bf838383600161303d565b8273ffffffffffffffffffffffffffffffffffffffff166128df82611076565b73ffffffffffffffffffffffffffffffffffffffff1614612935576040517f08c379a000000000000000000000000000000000000000000000000000000000815260040161292c906150a5565b60405180910390fd5b6004600082815260200190815260200160002060006101000a81549073ffffffffffffffffffffffffffffffffffffffff02191690556001600360008573ffffffffffffffffffffffffffffffffffffffff1673ffffffffffffffffffffffffffffffffffffffff168152602001908152602001600020600082825403925050819055506001600360008473ffffffffffffffffffffffffffffffffffffffff1673ffffffffffffffffffffffffffffffffffffffff16815260200190815260200160002060008282540192505081905550816002600083815260200190815260200160002060006101000a81548173ffffffffffffffffffffffffffffffffffffffff021916908373ffffffffffffffffffffffffffffffffffffffff160217905550808273ffffffffffffffffffffffffffffffffffffffff168473ffffffffffffffffffffffffffffffffffffffff167fddf252ad1be2c89b69c2b068fc378daa952ba7f163c4a11628f55a4df523b3ef60405160405180910390a4612ac18383836001613163565b505050565b612ace612677565b73ffffffffffffffffffffffffffffffffffffffff16612aec61129c565b73ffffffffffffffffffffffffffffffffffffffff1614612b42576040517f08c379a0000000000000000000000000000000000000000000000000000000008152600401612b39906151a3565b60405180910390fd5b565b60006002600083815260200190815260200160002060009054906101000a900473ffffffffffffffffffffffffffffffffffffffff169050919050565b6000600660009054906101000a900473ffffffffffffffffffffffffffffffffffffffff16905081600660006101000a81548173ffffffffffffffffffffffffffffffffffffffff021916908373ffffffffffffffffffffffffffffffffffffffff1602179055508173ffffffffffffffffffffffffffffffffffffffff168173ffffffffffffffffffffffffffffffffffffffff167f8be0079c531659141344cd1fd0a4f28419497f9722a3daafe3b4186f6b6457e060405160405180910390a35050565b8173ffffffffffffffffffffffffffffffffffffffff168373ffffffffffffffffffffffffffffffffffffffff1603612cb5576040517f08c379a0000000000000000000000000000000000000000000000000000000008152600401612cac9061520f565b60405180910390fd5b80600560008573ffffffffffffffffffffffffffffffffffffffff1673ffffffffffffffffffffffffffffffffffffffff16815260200190815260200160002060008473ffffffffffffffffffffffffffffffffffffffff1673ffffffffffffffffffffffffffffffffffffffff16815260200190815260200160002060006101000a81548160ff0219169083151502179055508173ffffffffffffffffffffffffffffffffffffffff168373ffffffffffffffffffffffffffffffffffffffff167f17307eab39ab6107e8899845ad3d59bd9653f200f220920489ca2b5937696c3183604051612da69190613792565b60405180910390a3505050565b600260075403612df8576040517f08c379a0000000000000000000000000000000000000000000000000000000008152600401612def9061527b565b60405180910390fd5b6002600781905550565b6001600781905550565b612e178484846127cd565b612e2384848484613169565b612e62576040517f08c379a0000000000000000000000000000000000000000000000000000000008152600401612e599061530d565b60405180910390fd5b50505050565b612e828282604051806020016040528060008152506132f0565b5050565b606060098054612e95906141f3565b80601f0160208091040260200160405190810160405280929190818152602001828054612ec1906141f3565b8015612f0e5780601f10612ee357610100808354040283529160200191612f0e565b820191906000526020600020905b815481529060010190602001808311612ef157829003601f168201915b5050505050905090565b606060006001612f278461334b565b01905060008167ffffffffffffffff811115612f4657612f45613d93565b5b6040519080825280601f01601f191660200182016040528015612f785781602001600182028036833780820191505090505b509050600082602001820190505b600115612fdb578080600190039150507f3031323334353637383961626364656600000000000000000000000000000000600a86061a8153600a8581612fcf57612fce61532d565b5b04945060008503612f86575b819350505050919050565b60008183612ff4919061535c565b905092915050565b60008073ffffffffffffffffffffffffffffffffffffffff1661301e83612b44565b73ffffffffffffffffffffffffffffffffffffffff1614159050919050565b600181111561315d57600073ffffffffffffffffffffffffffffffffffffffff168473ffffffffffffffffffffffffffffffffffffffff16146130d15780600360008673ffffffffffffffffffffffffffffffffffffffff1673ffffffffffffffffffffffffffffffffffffffff16815260200190815260200160002060008282546130c99190614377565b925050819055505b600073ffffffffffffffffffffffffffffffffffffffff168373ffffffffffffffffffffffffffffffffffffffff161461315c5780600360008573ffffffffffffffffffffffffffffffffffffffff1673ffffffffffffffffffffffffffffffffffffffff16815260200190815260200160002060008282546131549190614b53565b925050819055505b5b50505050565b50505050565b600061318a8473ffffffffffffffffffffffffffffffffffffffff1661349e565b156132e3578373ffffffffffffffffffffffffffffffffffffffff1663150b7a026131b3612677565b8786866040518563ffffffff1660e01b81526004016131d594939291906153f3565b6020604051808303816000875af192505050801561321157506040513d601f19601f8201168201806040525081019061320e9190615454565b60015b613293573d8060008114613241576040519150601f19603f3d011682016040523d82523d6000602084013e613246565b606091505b50600081510361328b576040517f08c379a00000000000000000000000000000000000000000000000000000000081526004016132829061530d565b60405180910390fd5b805181602001fd5b63150b7a0260e01b7bffffffffffffffffffffffffffffffffffffffffffffffffffffffff1916817bffffffffffffffffffffffffffffffffffffffffffffffffffffffff1916149150506132e8565b600190505b949350505050565b6132fa83836134c1565b6133076000848484613169565b613346576040517f08c379a000000000000000000000000000000000000000000000000000000000815260040161333d9061530d565b60405180910390fd5b505050565b600080600090507a184f03e93ff9f4daa797ed6e38ed64bf6a1f01000000000000000083106133a9577a184f03e93ff9f4daa797ed6e38ed64bf6a1f010000000000000000838161339f5761339e61532d565b5b0492506040810190505b6d04ee2d6d415b85acef810000000083106133e6576d04ee2d6d415b85acef810000000083816133dc576133db61532d565b5b0492506020810190505b662386f26fc10000831061341557662386f26fc10000838161340b5761340a61532d565b5b0492506010810190505b6305f5e100831061343e576305f5e10083816134345761343361532d565b5b0492506008810190505b61271083106134635761271083816134595761345861532d565b5b0492506004810190505b60648310613486576064838161347c5761347b61532d565b5b0492506002810190505b600a8310613495576001810190505b80915050919050565b6000808273ffffffffffffffffffffffffffffffffffffffff163b119050919050565b600073ffffffffffffffffffffffffffffffffffffffff168273ffffffffffffffffffffffffffffffffffffffff1603613530576040517f08c379a0000000000000000000000000000000000000000000000000000000008152600401613527906154cd565b60405180910390fd5b61353981612ffc565b15613579576040517f08c379a000000000000000000000000000000000000000000000000000000000815260040161357090615539565b60405180910390fd5b61358760008383600161303d565b61359081612ffc565b156135d0576040517f08c379a00000000000000000000000000000000000000000000000000000000081526004016135c790615539565b60405180910390fd5b6001600360008473ffffffffffffffffffffffffffffffffffffffff1673ffffffffffffffffffffffffffffffffffffffff16815260200190815260200160002060008282540192505081905550816002600083815260200190815260200160002060006101000a81548173ffffffffffffffffffffffffffffffffffffffff021916908373ffffffffffffffffffffffffffffffffffffffff160217905550808273ffffffffffffffffffffffffffffffffffffffff16600073ffffffffffffffffffffffffffffffffffffffff167fddf252ad1be2c89b69c2b068fc378daa952ba7f163c4a11628f55a4df523b3ef60405160405180910390a46136da600083836001613163565b5050565b6000604051905090565b600080fd5b600080fd5b60007fffffffff0000000000000000000000000000000000000000000000000000000082169050919050565b613727816136f2565b811461373257600080fd5b50565b6000813590506137448161371e565b92915050565b6000602082840312156137605761375f6136e8565b5b600061376e84828501613735565b91505092915050565b60008115159050919050565b61378c81613777565b82525050565b60006020820190506137a76000830184613783565b92915050565b600067ffffffffffffffff82169050919050565b6137ca816137ad565b82525050565b60006020820190506137e560008301846137c1565b92915050565b600081519050919050565b600082825260208201905092915050565b60005b8381101561382557808201518184015260208101905061380a565b60008484015250505050565b6000601f19601f8301169050919050565b600061384d826137eb565b61385781856137f6565b9350613867818560208601613807565b61387081613831565b840191505092915050565b600060208201905081810360008301526138958184613842565b905092915050565b6000819050919050565b6138b08161389d565b81146138bb57600080fd5b50565b6000813590506138cd816138a7565b92915050565b6000602082840312156138e9576138e86136e8565b5b60006138f7848285016138be565b91505092915050565b600073ffffffffffffffffffffffffffffffffffffffff82169050919050565b600061392b82613900565b9050919050565b61393b81613920565b82525050565b60006020820190506139566000830184613932565b92915050565b61396581613920565b811461397057600080fd5b50565b6000813590506139828161395c565b92915050565b6000806040838503121561399f5761399e6136e8565b5b60006139ad85828601613973565b92505060206139be858286016138be565b9150509250929050565b6139d18161389d565b82525050565b60006020820190506139ec60008301846139c8565b92915050565b600060208284031215613a0857613a076136e8565b5b6000613a1684828501613973565b91505092915050565b600080600060608486031215613a3857613a376136e8565b5b6000613a4686828701613973565b9350506020613a5786828701613973565b9250506040613a68868287016138be565b9150509250925092565b600080fd5b600080fd5b600080fd5b60008083601f840112613a9757613a96613a72565b5b8235905067ffffffffffffffff811115613ab457613ab3613a77565b5b602083019150836001820283011115613ad057613acf613a7c565b5b9250929050565b60008060208385031215613aee57613aed6136e8565b5b600083013567ffffffffffffffff811115613b0c57613b0b6136ed565b5b613b1885828601613a81565b92509250509250929050565b600061ffff82169050919050565b613b3b81613b24565b8114613b4657600080fd5b50565b600081359050613b5881613b32565b92915050565b600063ffffffff82169050919050565b613b7781613b5e565b8114613b8257600080fd5b50565b600081359050613b9481613b6e565b92915050565b600080600060608486031215613bb357613bb26136e8565b5b6000613bc186828701613b49565b9350506020613bd2868287016138be565b9250506040613be386828701613b85565b9150509250925092565b60006fffffffffffffffffffffffffffffffff82169050919050565b613c1281613bed565b82525050565b6000608082019050613c2d6000830187613c09565b613c3a6020830186613c09565b613c476040830185613c09565b613c546060830184613c09565b95945050505050565b613c6681613777565b8114613c7157600080fd5b50565b600081359050613c8381613c5d565b92915050565b60008060408385031215613ca057613c9f6136e8565b5b6000613cae85828601613973565b9250506020613cbf85828601613c74565b9150509250929050565b613cd281613b24565b82525050565b613ce181613b5e565b82525050565b6000608082019050613cfc6000830187613cc9565b613d096020830186613cd8565b613d166040830185613cd8565b613d2360608301846139c8565b95945050505050565b60008060008060808587031215613d4657613d456136e8565b5b6000613d5487828801613b49565b9450506020613d65878288016138be565b9350506040613d7687828801613b85565b9250506060613d8787828801613b85565b91505092959194509250565b7f4e487b7100000000000000000000000000000000000000000000000000000000600052604160045260246000fd5b613dcb82613831565b810181811067ffffffffffffffff82111715613dea57613de9613d93565b5b80604052505050565b6000613dfd6136de565b9050613e098282613dc2565b919050565b600067ffffffffffffffff821115613e2957613e28613d93565b5b602082029050602081019050919050565b6000613e4d613e4884613e0e565b613df3565b90508083825260208201905060208402830185811115613e7057613e6f613a7c565b5b835b81811015613e995780613e858882613973565b845260208401935050602081019050613e72565b5050509392505050565b600082601f830112613eb857613eb7613a72565b5b8135613ec8848260208601613e3a565b91505092915050565b600067ffffffffffffffff821115613eec57613eeb613d93565b5b602082029050602081019050919050565b6000613f10613f0b84613ed1565b613df3565b90508083825260208201905060208402830185811115613f3357613f32613a7c565b5b835b81811015613f5c5780613f4888826138be565b845260208401935050602081019050613f35565b5050509392505050565b600082601f830112613f7b57613f7a613a72565b5b8135613f8b848260208601613efd565b91505092915050565b60008060408385031215613fab57613faa6136e8565b5b600083013567ffffffffffffffff811115613fc957613fc86136ed565b5b613fd585828601613ea3565b925050602083013567ffffffffffffffff811115613ff657613ff56136ed565b5b61400285828601613f66565b9150509250929050565b600080fd5b600067ffffffffffffffff82111561402c5761402b613d93565b5b61403582613831565b9050602081019050919050565b82818337600083830152505050565b600061406461405f84614011565b613df3565b9050828152602081018484840111156140805761407f61400c565b5b61408b848285614042565b509392505050565b600082601f8301126140a8576140a7613a72565b5b81356140b8848260208601614051565b91505092915050565b600080600080608085870312156140db576140da6136e8565b5b60006140e987828801613973565b94505060206140fa87828801613973565b935050604061410b878288016138be565b925050606085013567ffffffffffffffff81111561412c5761412b6136ed565b5b61413887828801614093565b91505092959194509250565b6000806040838503121561415b5761415a6136e8565b5b6000614169858286016138be565b925050602061417a858286016138be565b9150509250929050565b6000806040838503121561419b5761419a6136e8565b5b60006141a985828601613973565b92505060206141ba85828601613973565b9150509250929050565b7f4e487b7100000000000000000000000000000000000000000000000000000000600052602260045260246000fd5b6000600282049050600182168061420b57607f821691505b60208210810361421e5761421d6141c4565b5b50919050565b7f4552433732313a20617070726f76616c20746f2063757272656e74206f776e6560008201527f7200000000000000000000000000000000000000000000000000000000000000602082015250565b60006142806021836137f6565b915061428b82614224565b604082019050919050565b600060208201905081810360008301526142af81614273565b9050919050565b7f4552433732313a20617070726f76652063616c6c6572206973206e6f7420746f60008201527f6b656e206f776e6572206f7220617070726f76656420666f7220616c6c000000602082015250565b6000614312603d836137f6565b915061431d826142b6565b604082019050919050565b6000602082019050818103600083015261434181614305565b9050919050565b7f4e487b7100000000000000000000000000000000000000000000000000000000600052601160045260246000fd5b60006143828261389d565b915061438d8361389d565b92508282039050818111156143a5576143a4614348565b5b92915050565b7f4552433732313a2063616c6c6572206973206e6f7420746f6b656e206f776e6560008201527f72206f7220617070726f76656400000000000000000000000000000000000000602082015250565b6000614407602d836137f6565b9150614412826143ab565b604082019050919050565b60006020820190508181036000830152614436816143fa565b9050919050565b600082905092915050565b60008190508160005260206000209050919050565b60006020601f8301049050919050565b600082821b905092915050565b6000600883026144aa7fffffffffffffffffffffffffffffffffffffffffffffffffffffffffffffffff8261446d565b6144b4868361446d565b95508019841693508086168417925050509392505050565b6000819050919050565b60006144f16144ec6144e78461389d565b6144cc565b61389d565b9050919050565b6000819050919050565b61450b836144d6565b61451f614517826144f8565b84845461447a565b825550505050565b600090565b614534614527565b61453f818484614502565b505050565b5b818110156145635761455860008261452c565b600181019050614545565b5050565b601f8211156145a85761457981614448565b6145828461445d565b81016020851015614591578190505b6145a561459d8561445d565b830182614544565b50505b505050565b600082821c905092915050565b60006145cb600019846008026145ad565b1980831691505092915050565b60006145e483836145ba565b9150826002028217905092915050565b6145fe838361443d565b67ffffffffffffffff81111561461757614616613d93565b5b61462182546141f3565b61462c828285614567565b6000601f83116001811461465b5760008415614649578287013590505b61465385826145d8565b8655506146bb565b601f19841661466986614448565b60005b828110156146915784890135825560018201915060208501945060208101905061466c565b868310156146ae57848901356146aa601f8916826145ba565b8355505b6001600288020188555050505b50505050505050565b7f4552433732313a20696e76616c696420746f6b656e2049440000000000000000600082015250565b60006146fa6018836137f6565b9150614705826146c4565b602082019050919050565b60006020820190508181036000830152614729816146ed565b9050919050565b7f4552433732313a2061646472657373207a65726f206973206e6f74206120766160008201527f6c6964206f776e65720000000000000000000000000000000000000000000000602082015250565b600061478c6029836137f6565b915061479782614730565b604082019050919050565b600060208201905081810360008301526147bb8161477f565b9050919050565b600081905092915050565b50565b60006147dd6000836147c2565b91506147e8826147cd565b600082019050919050565b60006147fe826147d0565b9150819050919050565b7f5472616e73666572206661696c65642e00000000000000000000000000000000600082015250565b600061483e6010836137f6565b915061484982614808565b602082019050919050565b6000602082019050818103600083015261486d81614831565b9050919050565b7f63616e6e6f74206d616b6520636f6c6c656374696f6e2073697a6520736d616c60008201527f6c6572207468616e20737570706c790000000000000000000000000000000000602082015250565b60006148d0602f836137f6565b91506148db82614874565b604082019050919050565b600060208201905081810360008301526148ff816148c3565b9050919050565b7f61646472657373657320646f6573206e6f74206d61746368206e756d536c6f7460008201527f73206c656e677468000000000000000000000000000000000000000000000000602082015250565b60006149626028836137f6565b915061496d82614906565b604082019050919050565b6000602082019050818103600083015261499181614955565b9050919050565b7f4e487b7100000000000000000000000000000000000000000000000000000000600052603260045260246000fd5b60006149d28261389d565b91507fffffffffffffffffffffffffffffffffffffffffffffffffffffffffffffffff8203614a0457614a03614348565b5b600182019050919050565b7f5468652063616c6c657220697320616e6f7468657220636f6e74726163740000600082015250565b6000614a45601e836137f6565b9150614a5082614a0f565b602082019050919050565b60006020820190508181036000830152614a7481614a38565b9050919050565b7f616c6c6f776c6973742073616c6520686173206e6f7420626567756e20796574600082015250565b6000614ab16020836137f6565b9150614abc82614a7b565b602082019050919050565b60006020820190508181036000830152614ae081614aa4565b9050919050565b7f6e6f7420656c696769626c6520666f7220616c6c6f776c697374206d696e7400600082015250565b6000614b1d601f836137f6565b9150614b2882614ae7565b602082019050919050565b60006020820190508181036000830152614b4c81614b10565b9050919050565b6000614b5e8261389d565b9150614b698361389d565b9250828201905080821115614b8157614b80614348565b5b92915050565b7f72656163686564206d617820737570706c790000000000000000000000000000600082015250565b6000614bbd6012836137f6565b9150614bc882614b87565b602082019050919050565b60006020820190508181036000830152614bec81614bb0565b9050919050565b7f796f75206861766520657863656564656420746865206d6178206e756d62657260008201527f206f6620616c6c6f776c69737420746f6b656e7320796f752063616e206d696e60208201527f7400000000000000000000000000000000000000000000000000000000000000604082015250565b6000614c756041836137f6565b9150614c8082614bf3565b606082019050919050565b60006020820190508181036000830152614ca481614c68565b9050919050565b6000614cb6826137ad565b915067ffffffffffffffff8203614cd057614ccf614348565b5b600182019050919050565b6000614ce682613bed565b9150614cf183613bed565b925082820190506fffffffffffffffffffffffffffffffff811115614d1957614d18614348565b5b92915050565b600081905092915050565b6000614d35826137eb565b614d3f8185614d1f565b9350614d4f818560208601613807565b80840191505092915050565b6000614d678285614d2a565b9150614d738284614d2a565b91508190509392505050565b7f63616c6c6564207769746820696e636f7272656374207075626c69632073616c60008201527f65206b6579000000000000000000000000000000000000000000000000000000602082015250565b6000614ddb6025836137f6565b9150614de682614d7f565b604082019050919050565b60006020820190508181036000830152614e0a81614dce565b9050919050565b7f7075626c69632073616c6520686173206e6f7420626567756e20796574000000600082015250565b6000614e47601d836137f6565b9150614e5282614e11565b602082019050919050565b60006020820190508181036000830152614e7681614e3a565b9050919050565b7f796f75206861766520657863656564656420746865206d6178206e756d62657260008201527f206f6620746f6b656e7320796f752063616e206d696e74000000000000000000602082015250565b6000614ed96037836137f6565b9150614ee482614e7d565b604082019050919050565b60006020820190508181036000830152614f0881614ecc565b9050919050565b7f6e6f7420656e6f75676820657468657220746f20636f6d706c6574652070757260008201527f63686173652e0000000000000000000000000000000000000000000000000000602082015250565b6000614f6b6026836137f6565b9150614f7682614f0f565b604082019050919050565b60006020820190508181036000830152614f9a81614f5e565b9050919050565b7f4f776e61626c653a206e6577206f776e657220697320746865207a65726f206160008201527f6464726573730000000000000000000000000000000000000000000000000000602082015250565b6000614ffd6026836137f6565b915061500882614fa1565b604082019050919050565b6000602082019050818103600083015261502c81614ff0565b9050919050565b7f4552433732313a207472616e736665722066726f6d20696e636f72726563742060008201527f6f776e6572000000000000000000000000000000000000000000000000000000602082015250565b600061508f6025836137f6565b915061509a82615033565b604082019050919050565b600060208201905081810360008301526150be81615082565b9050919050565b7f4552433732313a207472616e7366657220746f20746865207a65726f2061646460008201527f7265737300000000000000000000000000000000000000000000000000000000602082015250565b60006151216024836137f6565b915061512c826150c5565b604082019050919050565b6000602082019050818103600083015261515081615114565b9050919050565b7f4f776e61626c653a2063616c6c6572206973206e6f7420746865206f776e6572600082015250565b600061518d6020836137f6565b915061519882615157565b602082019050919050565b600060208201905081810360008301526151bc81615180565b9050919050565b7f4552433732313a20617070726f766520746f2063616c6c657200000000000000600082015250565b60006151f96019836137f6565b9150615204826151c3565b602082019050919050565b60006020820190508181036000830152615228816151ec565b9050919050565b7f5265656e7472616e637947756172643a207265656e7472616e742063616c6c00600082015250565b6000615265601f836137f6565b91506152708261522f565b602082019050919050565b6000602082019050818103600083015261529481615258565b9050919050565b7f4552433732313a207472616e7366657220746f206e6f6e20455243373231526560008201527f63656976657220696d706c656d656e7465720000000000000000000000000000602082015250565b60006152f76032836137f6565b91506153028261529b565b604082019050919050565b60006020820190508181036000830152615326816152ea565b9050919050565b7f4e487b7100000000000000000000000000000000000000000000000000000000600052601260045260246000fd5b60006153678261389d565b91506153728361389d565b92508282026153808161389d565b9150828204841483151761539757615396614348565b5b5092915050565b600081519050919050565b600082825260208201905092915050565b60006153c58261539e565b6153cf81856153a9565b93506153df818560208601613807565b6153e881613831565b840191505092915050565b60006080820190506154086000830187613932565b6154156020830186613932565b61542260408301856139c8565b818103606083015261543481846153ba565b905095945050505050565b60008151905061544e8161371e565b92915050565b60006020828403121561546a576154696136e8565b5b60006154788482850161543f565b91505092915050565b7f4552433732313a206d696e7420746f20746865207a65726f2061646472657373600082015250565b60006154b76020836137f6565b91506154c282615481565b602082019050919050565b600060208201905081810360008301526154e6816154aa565b9050919050565b7f4552433732313a20746f6b656e20616c7265616479206d696e74656400000000600082015250565b6000615523601c836137f6565b915061552e826154ed565b602082019050919050565b6000602082019050818103600083015261555281615516565b905091905056fea264697066735822122080b629eeefc57c6f8ff4da26959176dee8fae96503477f58f95a66c10b23720364736f6c63430008110033",
  "immutableReferences": {},
  "source": "//SPDX-License-Identifier: MIT\npragma solidity ^0.8.17;\n\nimport \"@openzeppelin/contracts/token/ERC721/ERC721.sol\";\nimport \"@openzeppelin/contracts/access/Ownable.sol\";\nimport \"@openzeppelin/contracts/utils/math/SafeMath.sol\";\nimport \"@openzeppelin/contracts/utils/Strings.sol\";\nimport \"@openzeppelin/contracts/security/ReentrancyGuard.sol\";\n\ncontract NineSeals is ERC721,Ownable,ReentrancyGuard{\n\n    using SafeMath for uint256;\n\n    uint64 public constant DEFAULT_MAX_BATCH_SIZE = 5;\n    uint64 public constant DEFAULT_COLLECTION_SIZE = 10000;\n\n    // uint8 public constant MAX_WL_PURCHASE_TOKENS = 3;\n    // uint8 public constant MAX_PUBLIC_PURCHASE_TOKENS = 5;    \n    // // uint16 public constant MAX_TOKENS = 444;    \n    // uint32 public PRESALE_DURATION = 1 days;\n\n    uint64 private _tokenCounter;\n\n    uint64 public _totalAllowedTokens;\n\n    string private _baseTokenURI;\n    \n    // uint256 public preSaleStartTimestamp;\n\n    // bytes32 private merkleRootOne =\n    //     0xc891c5b4634598d1ed7cf4a3743ca20a33fc03bb10bcd7c45fe801e1434ba356;\n\n    struct SaleConfig {\n        uint16 maxBatchSize;\n        uint32 saleKey;\n        uint32 saleStartTime;\n        uint256 salePrice;        \n    }\n\n    SaleConfig public allowlistSaleConfig;\n\n    SaleConfig public publicSaleConfig;\n\n    struct Mintoor {  \n        uint128 tokenBalance;  \n        uint128 maxAllowlistTokens; \n        uint128 allowlistBalance; \n        uint128 maxPublicSaleTokens;\n    }\n\n    mapping(address => Mintoor) public mintoors;\n    \n    constructor( \n        string memory name, \n        string memory symbol\n    ) ERC721(name, symbol) ReentrancyGuard(){\n        _tokenCounter = 0;\n        _totalAllowedTokens = DEFAULT_COLLECTION_SIZE;\n        // _baseTokenURI = initialURI;\n    }\n\n    modifier callerIsUser() {\n        require(tx.origin == msg.sender, \"The caller is another contract\");\n        _;\n    }\n\n    // Mint: Allowlist\n    function allowlistMint(uint256 quantity) external payable callerIsUser {\n        SaleConfig memory config = allowlistSaleConfig;        \n        uint256 price = uint256(config.salePrice);\n        Mintoor memory mintoor = mintoors[msg.sender];\n        \n        require(price != 0, \"allowlist sale has not begun yet\");\n        require(mintoor.maxAllowlistTokens > 0, \"not eligible for allowlist mint\");\n        require(totalSupply() + quantity <= _totalAllowedTokens, \"reached max supply\");\n        require(numberMinted(msg.sender) + quantity <= allowlistTokensRemaining(msg.sender), \"you have exceeded the max number of allowlist tokens you can mint\");\n\n        for(uint256 i = 0; i < quantity; i++) {\n            _safeMint(msg.sender, _tokenCounter);\n            _tokenCounter++;\n        }\n\n        mintoors[msg.sender].tokenBalance += uint128(quantity);\n        mintoors[msg.sender].allowlistBalance += uint128(quantity);\n    }\n\n    // Mint: Public\n    function publicSaleMint(uint256 quantity, uint256 callerPublicSaleKey) external payable callerIsUser {\n        SaleConfig memory config = publicSaleConfig;\n        uint256 saleKey = uint256(config.saleKey);\n        uint256 salePrice = uint256(config.salePrice);\n        \n        require(saleKey == callerPublicSaleKey, \"called with incorrect public sale key\");\n        require(isPublicSaleOn(), \"public sale has not begun yet\");\n        require(totalSupply() + quantity <= _totalAllowedTokens, \"reached max supply\");\n        require(quantity <= publicSaleTokensRemaining(msg.sender), \"you have exceeded the max number of tokens you can mint\");\n        require(msg.value >= salePrice.mul(quantity), \"not enough ether to complete purchase.\");\n\n        for(uint256 i = 0; i < quantity; i++) {\n            _safeMint(msg.sender, _tokenCounter);\n            _tokenCounter++;\n        }\n\n        mintoors[msg.sender].tokenBalance += uint128(quantity);\n    }\n\n    function seedAllowlist(address[] memory addresses, uint256[] memory numSlots) external onlyOwner {\n        require(addresses.length == numSlots.length, \"addresses does not match numSlots length\");\n        for (uint256 i = 0; i < addresses.length; i++) {\n            mintoors[addresses[i]].maxAllowlistTokens = uint128(numSlots[i]);\n        }\n    }\n\n    function initializeAllowlistSale(uint16 maxBatchSize, uint256 salePrice, uint32 saleStartTime) external onlyOwner {\n        allowlistSaleConfig.maxBatchSize = maxBatchSize;\n        allowlistSaleConfig.saleStartTime = saleStartTime;\n        allowlistSaleConfig.salePrice = salePrice;\n    }\n\n    function initializePublicSale(uint16 maxBatchSize, uint256 salePrice, uint32 saleStartTime, uint32 saleKey) external onlyOwner {\n        publicSaleConfig.maxBatchSize = maxBatchSize;\n        publicSaleConfig.saleKey = saleKey;\n        publicSaleConfig.saleStartTime = saleStartTime;\n        publicSaleConfig.salePrice = salePrice;\n    }\n\n    function setCollectionSize(uint256 collectionSize) external onlyOwner {\n        require(_totalAllowedTokens >= totalSupply(), \"cannot make collection size smaller than supply\");\n        _totalAllowedTokens = uint64(collectionSize);\n    }\n\n    function totalSupply() public view returns (uint256) {\n        return _tokenCounter;\n    }\n\n    \n    function _baseURI() internal view virtual override returns (string memory) {\n        return _baseTokenURI;\n    }\n\n    function setBaseURI(string calldata baseURI) external onlyOwner {\n        _baseTokenURI = baseURI;\n    }\n\n    function withdrawMoney() external onlyOwner nonReentrant {\n        (bool success, ) = msg.sender.call{value: address(this).balance}(\"\");\n        require(success, \"Transfer failed.\");\n    }\n\n    function collectionSize() public view returns (uint256) {\n        return _totalAllowedTokens;\n    }\n    \n    function numberMinted(address owner) public view returns (uint256) {\n        return uint256(mintoors[owner].tokenBalance);\n    }\n\n    function maxMintableTokens(address owner) public view returns (uint256) {\n        return allowlistSlots(owner) + publicSaleSlots(owner);\n    }\n\n    function publicSaleSlots(address owner) public view returns (uint256) {\n        Mintoor memory mintoor = mintoors[owner];\n        return mintoor.maxPublicSaleTokens != 0 ? uint256(mintoor.maxPublicSaleTokens) : uint256(DEFAULT_MAX_BATCH_SIZE);\n    }\n\n    function publicSaleTokensRemaining(address owner) public view returns (uint256) {\n        return maxMintableTokens(owner) - numberMinted(owner);\n    }\n\n    function allowlistSlots(address owner) public view returns (uint256) {\n        return uint256(mintoors[owner].maxAllowlistTokens);\n    }\n\n    function allowlistTokensRemaining(address owner) public view returns (uint256) {\n        Mintoor memory mintoor = mintoors[owner];\n        return uint256(mintoor.maxAllowlistTokens) - uint256(mintoor.allowlistBalance);\n    }\n\n    function getAllowlistSaleDuration() public view returns (uint256) {\n        SaleConfig memory config = allowlistSaleConfig; \n        return block.timestamp - config.saleStartTime;\n    }\n\n    function isPublicSaleOn() public view returns (bool) {\n        SaleConfig memory config = publicSaleConfig; \n        return config.saleStartTime > 0 && block.timestamp >= config.saleStartTime;\n    }\n}",
  "sourcePath": "/Users/bash/Sites/crypto/ethereum/nine-seals/contracts/NineSeals.sol",
  "compiler": {
    "name": "solc",
    "version": "0.8.17+commit.8df45f5f.Emscripten.clang"
  },
  "schemaVersion": "3.4.11",
  "updatedAt": "2023-01-08T04:51:11.112Z",
  "networkType": "ethereum",
  "devdoc": {
    "kind": "dev",
    "methods": {
      "approve(address,uint256)": {
        "details": "See {IERC721-approve}."
      },
      "balanceOf(address)": {
        "details": "See {IERC721-balanceOf}."
      },
      "getApproved(uint256)": {
        "details": "See {IERC721-getApproved}."
      },
      "isApprovedForAll(address,address)": {
        "details": "See {IERC721-isApprovedForAll}."
      },
      "name()": {
        "details": "See {IERC721Metadata-name}."
      },
      "owner()": {
        "details": "Returns the address of the current owner."
      },
      "ownerOf(uint256)": {
        "details": "See {IERC721-ownerOf}."
      },
      "renounceOwnership()": {
        "details": "Leaves the contract without owner. It will not be possible to call `onlyOwner` functions anymore. Can only be called by the current owner. NOTE: Renouncing ownership will leave the contract without an owner, thereby removing any functionality that is only available to the owner."
      },
      "safeTransferFrom(address,address,uint256)": {
        "details": "See {IERC721-safeTransferFrom}."
      },
      "safeTransferFrom(address,address,uint256,bytes)": {
        "details": "See {IERC721-safeTransferFrom}."
      },
      "setApprovalForAll(address,bool)": {
        "details": "See {IERC721-setApprovalForAll}."
      },
      "supportsInterface(bytes4)": {
        "details": "See {IERC165-supportsInterface}."
      },
      "symbol()": {
        "details": "See {IERC721Metadata-symbol}."
      },
      "tokenURI(uint256)": {
        "details": "See {IERC721Metadata-tokenURI}."
      },
      "transferFrom(address,address,uint256)": {
        "details": "See {IERC721-transferFrom}."
      },
      "transferOwnership(address)": {
        "details": "Transfers ownership of the contract to a new account (`newOwner`). Can only be called by the current owner."
      }
    },
    "version": 1
  },
  "userdoc": {
    "kind": "user",
    "methods": {},
    "version": 1
  }
}