{
  "contractName": "NineSeals",
  "abi": [
    {
      "inputs": [
        {
          "internalType": "string",
          "name": "name",
          "type": "string"
        },
        {
          "internalType": "string",
          "name": "symbol",
          "type": "string"
        }
      ],
      "stateMutability": "nonpayable",
      "type": "constructor"
    },
    {
      "anonymous": false,
      "inputs": [
        {
          "indexed": true,
          "internalType": "address",
          "name": "owner",
          "type": "address"
        },
        {
          "indexed": true,
          "internalType": "address",
          "name": "approved",
          "type": "address"
        },
        {
          "indexed": true,
          "internalType": "uint256",
          "name": "tokenId",
          "type": "uint256"
        }
      ],
      "name": "Approval",
      "type": "event"
    },
    {
      "anonymous": false,
      "inputs": [
        {
          "indexed": true,
          "internalType": "address",
          "name": "owner",
          "type": "address"
        },
        {
          "indexed": true,
          "internalType": "address",
          "name": "operator",
          "type": "address"
        },
        {
          "indexed": false,
          "internalType": "bool",
          "name": "approved",
          "type": "bool"
        }
      ],
      "name": "ApprovalForAll",
      "type": "event"
    },
    {
      "anonymous": false,
      "inputs": [
        {
          "indexed": true,
          "internalType": "address",
          "name": "previousOwner",
          "type": "address"
        },
        {
          "indexed": true,
          "internalType": "address",
          "name": "newOwner",
          "type": "address"
        }
      ],
      "name": "OwnershipTransferred",
      "type": "event"
    },
    {
      "anonymous": false,
      "inputs": [
        {
          "indexed": true,
          "internalType": "address",
          "name": "from",
          "type": "address"
        },
        {
          "indexed": true,
          "internalType": "address",
          "name": "to",
          "type": "address"
        },
        {
          "indexed": true,
          "internalType": "uint256",
          "name": "tokenId",
          "type": "uint256"
        }
      ],
      "name": "Transfer",
      "type": "event"
    },
    {
      "inputs": [],
      "name": "DEFAULT_COLLECTION_SIZE",
      "outputs": [
        {
          "internalType": "uint64",
          "name": "",
          "type": "uint64"
        }
      ],
      "stateMutability": "view",
      "type": "function",
      "constant": true
    },
    {
      "inputs": [],
      "name": "DEFAULT_MAX_BATCH_SIZE",
      "outputs": [
        {
          "internalType": "uint64",
          "name": "",
          "type": "uint64"
        }
      ],
      "stateMutability": "view",
      "type": "function",
      "constant": true
    },
    {
      "inputs": [],
      "name": "_totalAllowedTokens",
      "outputs": [
        {
          "internalType": "uint64",
          "name": "",
          "type": "uint64"
        }
      ],
      "stateMutability": "view",
      "type": "function",
      "constant": true
    },
    {
      "inputs": [],
      "name": "allowlistSaleConfig",
      "outputs": [
        {
          "internalType": "uint16",
          "name": "maxBatchSize",
          "type": "uint16"
        },
        {
          "internalType": "uint32",
          "name": "saleKey",
          "type": "uint32"
        },
        {
          "internalType": "uint32",
          "name": "saleStartTime",
          "type": "uint32"
        },
        {
          "internalType": "uint256",
          "name": "salePrice",
          "type": "uint256"
        }
      ],
      "stateMutability": "view",
      "type": "function",
      "constant": true
    },
    {
      "inputs": [
        {
          "internalType": "address",
          "name": "to",
          "type": "address"
        },
        {
          "internalType": "uint256",
          "name": "tokenId",
          "type": "uint256"
        }
      ],
      "name": "approve",
      "outputs": [],
      "stateMutability": "nonpayable",
      "type": "function"
    },
    {
      "inputs": [
        {
          "internalType": "address",
          "name": "owner",
          "type": "address"
        }
      ],
      "name": "balanceOf",
      "outputs": [
        {
          "internalType": "uint256",
          "name": "",
          "type": "uint256"
        }
      ],
      "stateMutability": "view",
      "type": "function",
      "constant": true
    },
    {
      "inputs": [
        {
          "internalType": "uint256",
          "name": "tokenId",
          "type": "uint256"
        }
      ],
      "name": "getApproved",
      "outputs": [
        {
          "internalType": "address",
          "name": "",
          "type": "address"
        }
      ],
      "stateMutability": "view",
      "type": "function",
      "constant": true
    },
    {
      "inputs": [
        {
          "internalType": "address",
          "name": "owner",
          "type": "address"
        },
        {
          "internalType": "address",
          "name": "operator",
          "type": "address"
        }
      ],
      "name": "isApprovedForAll",
      "outputs": [
        {
          "internalType": "bool",
          "name": "",
          "type": "bool"
        }
      ],
      "stateMutability": "view",
      "type": "function",
      "constant": true
    },
    {
      "inputs": [
        {
          "internalType": "address",
          "name": "",
          "type": "address"
        }
      ],
      "name": "mintoors",
      "outputs": [
        {
          "internalType": "uint128",
          "name": "tokenBalance",
          "type": "uint128"
        },
        {
          "internalType": "uint128",
          "name": "maxAllowlistTokens",
          "type": "uint128"
        },
        {
          "internalType": "uint128",
          "name": "allowlistBalance",
          "type": "uint128"
        },
        {
          "internalType": "uint128",
          "name": "maxPublicSaleTokens",
          "type": "uint128"
        }
      ],
      "stateMutability": "view",
      "type": "function",
      "constant": true
    },
    {
      "inputs": [],
      "name": "name",
      "outputs": [
        {
          "internalType": "string",
          "name": "",
          "type": "string"
        }
      ],
      "stateMutability": "view",
      "type": "function",
      "constant": true
    },
    {
      "inputs": [],
      "name": "owner",
      "outputs": [
        {
          "internalType": "address",
          "name": "",
          "type": "address"
        }
      ],
      "stateMutability": "view",
      "type": "function",
      "constant": true
    },
    {
      "inputs": [
        {
          "internalType": "uint256",
          "name": "tokenId",
          "type": "uint256"
        }
      ],
      "name": "ownerOf",
      "outputs": [
        {
          "internalType": "address",
          "name": "",
          "type": "address"
        }
      ],
      "stateMutability": "view",
      "type": "function",
      "constant": true
    },
    {
      "inputs": [],
      "name": "publicSaleConfig",
      "outputs": [
        {
          "internalType": "uint16",
          "name": "maxBatchSize",
          "type": "uint16"
        },
        {
          "internalType": "uint32",
          "name": "saleKey",
          "type": "uint32"
        },
        {
          "internalType": "uint32",
          "name": "saleStartTime",
          "type": "uint32"
        },
        {
          "internalType": "uint256",
          "name": "salePrice",
          "type": "uint256"
        }
      ],
      "stateMutability": "view",
      "type": "function",
      "constant": true
    },
    {
      "inputs": [],
      "name": "renounceOwnership",
      "outputs": [],
      "stateMutability": "nonpayable",
      "type": "function"
    },
    {
      "inputs": [
        {
          "internalType": "address",
          "name": "from",
          "type": "address"
        },
        {
          "internalType": "address",
          "name": "to",
          "type": "address"
        },
        {
          "internalType": "uint256",
          "name": "tokenId",
          "type": "uint256"
        }
      ],
      "name": "safeTransferFrom",
      "outputs": [],
      "stateMutability": "nonpayable",
      "type": "function"
    },
    {
      "inputs": [
        {
          "internalType": "address",
          "name": "from",
          "type": "address"
        },
        {
          "internalType": "address",
          "name": "to",
          "type": "address"
        },
        {
          "internalType": "uint256",
          "name": "tokenId",
          "type": "uint256"
        },
        {
          "internalType": "bytes",
          "name": "data",
          "type": "bytes"
        }
      ],
      "name": "safeTransferFrom",
      "outputs": [],
      "stateMutability": "nonpayable",
      "type": "function"
    },
    {
      "inputs": [
        {
          "internalType": "address",
          "name": "operator",
          "type": "address"
        },
        {
          "internalType": "bool",
          "name": "approved",
          "type": "bool"
        }
      ],
      "name": "setApprovalForAll",
      "outputs": [],
      "stateMutability": "nonpayable",
      "type": "function"
    },
    {
      "inputs": [
        {
          "internalType": "bytes4",
          "name": "interfaceId",
          "type": "bytes4"
        }
      ],
      "name": "supportsInterface",
      "outputs": [
        {
          "internalType": "bool",
          "name": "",
          "type": "bool"
        }
      ],
      "stateMutability": "view",
      "type": "function",
      "constant": true
    },
    {
      "inputs": [],
      "name": "symbol",
      "outputs": [
        {
          "internalType": "string",
          "name": "",
          "type": "string"
        }
      ],
      "stateMutability": "view",
      "type": "function",
      "constant": true
    },
    {
      "inputs": [
        {
          "internalType": "uint256",
          "name": "tokenId",
          "type": "uint256"
        }
      ],
      "name": "tokenURI",
      "outputs": [
        {
          "internalType": "string",
          "name": "",
          "type": "string"
        }
      ],
      "stateMutability": "view",
      "type": "function",
      "constant": true
    },
    {
      "inputs": [
        {
          "internalType": "address",
          "name": "from",
          "type": "address"
        },
        {
          "internalType": "address",
          "name": "to",
          "type": "address"
        },
        {
          "internalType": "uint256",
          "name": "tokenId",
          "type": "uint256"
        }
      ],
      "name": "transferFrom",
      "outputs": [],
      "stateMutability": "nonpayable",
      "type": "function"
    },
    {
      "inputs": [
        {
          "internalType": "address",
          "name": "newOwner",
          "type": "address"
        }
      ],
      "name": "transferOwnership",
      "outputs": [],
      "stateMutability": "nonpayable",
      "type": "function"
    },
    {
      "inputs": [
        {
          "internalType": "uint256",
          "name": "quantity",
          "type": "uint256"
        }
      ],
      "name": "allowlistMint",
      "outputs": [],
      "stateMutability": "payable",
      "type": "function",
      "payable": true
    },
    {
      "inputs": [
        {
          "internalType": "uint256",
          "name": "quantity",
          "type": "uint256"
        },
        {
          "internalType": "uint256",
          "name": "callerPublicSaleKey",
          "type": "uint256"
        }
      ],
      "name": "publicSaleMint",
      "outputs": [],
      "stateMutability": "payable",
      "type": "function",
      "payable": true
    },
    {
      "inputs": [
        {
          "internalType": "address[]",
          "name": "addresses",
          "type": "address[]"
        },
        {
          "internalType": "uint256[]",
          "name": "numSlots",
          "type": "uint256[]"
        }
      ],
      "name": "seedAllowlist",
      "outputs": [],
      "stateMutability": "nonpayable",
      "type": "function"
    },
    {
      "inputs": [
        {
          "internalType": "uint16",
          "name": "maxBatchSize",
          "type": "uint16"
        },
        {
          "internalType": "uint256",
          "name": "salePrice",
          "type": "uint256"
        },
        {
          "internalType": "uint32",
          "name": "saleStartTime",
          "type": "uint32"
        }
      ],
      "name": "initializeAllowlistSale",
      "outputs": [],
      "stateMutability": "nonpayable",
      "type": "function"
    },
    {
      "inputs": [
        {
          "internalType": "uint16",
          "name": "maxBatchSize",
          "type": "uint16"
        },
        {
          "internalType": "uint256",
          "name": "salePrice",
          "type": "uint256"
        },
        {
          "internalType": "uint32",
          "name": "saleStartTime",
          "type": "uint32"
        },
        {
          "internalType": "uint32",
          "name": "saleKey",
          "type": "uint32"
        }
      ],
      "name": "initializePublicSale",
      "outputs": [],
      "stateMutability": "nonpayable",
      "type": "function"
    },
    {
      "inputs": [
        {
          "internalType": "uint256",
          "name": "collectionSize",
          "type": "uint256"
        }
      ],
      "name": "setCollectionSize",
      "outputs": [],
      "stateMutability": "nonpayable",
      "type": "function"
    },
    {
      "inputs": [],
      "name": "totalSupply",
      "outputs": [
        {
          "internalType": "uint256",
          "name": "",
          "type": "uint256"
        }
      ],
      "stateMutability": "view",
      "type": "function",
      "constant": true
    },
    {
      "inputs": [
        {
          "internalType": "string",
          "name": "baseURI",
          "type": "string"
        }
      ],
      "name": "setBaseURI",
      "outputs": [],
      "stateMutability": "nonpayable",
      "type": "function"
    },
    {
      "inputs": [],
      "name": "withdrawMoney",
      "outputs": [],
      "stateMutability": "nonpayable",
      "type": "function"
    },
    {
      "inputs": [],
      "name": "collectionSize",
      "outputs": [
        {
          "internalType": "uint256",
          "name": "",
          "type": "uint256"
        }
      ],
      "stateMutability": "view",
      "type": "function",
      "constant": true
    },
    {
      "inputs": [
        {
          "internalType": "address",
          "name": "owner",
          "type": "address"
        }
      ],
      "name": "numberMinted",
      "outputs": [
        {
          "internalType": "uint256",
          "name": "",
          "type": "uint256"
        }
      ],
      "stateMutability": "view",
      "type": "function",
      "constant": true
    },
    {
      "inputs": [
        {
          "internalType": "address",
          "name": "owner",
          "type": "address"
        }
      ],
      "name": "maxMintableTokens",
      "outputs": [
        {
          "internalType": "uint256",
          "name": "",
          "type": "uint256"
        }
      ],
      "stateMutability": "view",
      "type": "function",
      "constant": true
    },
    {
      "inputs": [
        {
          "internalType": "address",
          "name": "owner",
          "type": "address"
        }
      ],
      "name": "publicSaleSlots",
      "outputs": [
        {
          "internalType": "uint256",
          "name": "",
          "type": "uint256"
        }
      ],
      "stateMutability": "view",
      "type": "function",
      "constant": true
    },
    {
      "inputs": [
        {
          "internalType": "address",
          "name": "owner",
          "type": "address"
        }
      ],
      "name": "publicSaleTokensRemaining",
      "outputs": [
        {
          "internalType": "uint256",
          "name": "",
          "type": "uint256"
        }
      ],
      "stateMutability": "view",
      "type": "function",
      "constant": true
    },
    {
      "inputs": [
        {
          "internalType": "address",
          "name": "owner",
          "type": "address"
        }
      ],
      "name": "allowlistSlots",
      "outputs": [
        {
          "internalType": "uint256",
          "name": "",
          "type": "uint256"
        }
      ],
      "stateMutability": "view",
      "type": "function",
      "constant": true
    },
    {
      "inputs": [
        {
          "internalType": "address",
          "name": "owner",
          "type": "address"
        }
      ],
      "name": "allowlistTokensRemaining",
      "outputs": [
        {
          "internalType": "uint256",
          "name": "",
          "type": "uint256"
        }
      ],
      "stateMutability": "view",
      "type": "function",
      "constant": true
    },
    {
      "inputs": [],
      "name": "getAllowlistSaleDuration",
      "outputs": [
        {
          "internalType": "uint256",
          "name": "",
          "type": "uint256"
        }
      ],
      "stateMutability": "view",
      "type": "function",
      "constant": true
    },
    {
      "inputs": [],
      "name": "getSaleStatus",
      "outputs": [
        {
          "internalType": "uint8",
          "name": "",
          "type": "uint8"
        }
      ],
      "stateMutability": "view",
      "type": "function",
      "constant": true
    },
    {
      "inputs": [],
      "name": "isAllowlistSaleOn",
      "outputs": [
        {
          "internalType": "bool",
          "name": "",
          "type": "bool"
        }
      ],
      "stateMutability": "view",
      "type": "function",
      "constant": true
    },
    {
      "inputs": [],
      "name": "isPublicSaleOn",
      "outputs": [
        {
          "internalType": "bool",
          "name": "",
          "type": "bool"
        }
      ],
      "stateMutability": "view",
      "type": "function",
      "constant": true
    },
    {
      "inputs": [],
      "name": "isSaleClosed",
      "outputs": [
        {
          "internalType": "bool",
          "name": "",
          "type": "bool"
        }
      ],
      "stateMutability": "view",
      "type": "function",
      "constant": true
    },
    {
      "inputs": [],
      "name": "isMintPaused",
      "outputs": [
        {
          "internalType": "bool",
          "name": "",
          "type": "bool"
        }
      ],
      "stateMutability": "view",
      "type": "function",
      "constant": true
    },
    {
      "inputs": [
        {
          "internalType": "bool",
          "name": "isPaused",
          "type": "bool"
        }
      ],
      "name": "pauseMint",
      "outputs": [],
      "stateMutability": "nonpayable",
      "type": "function"
    },
    {
      "inputs": [],
      "name": "getMintPrice",
      "outputs": [
        {
          "internalType": "uint256",
          "name": "",
          "type": "uint256"
        }
      ],
      "stateMutability": "view",
      "type": "function",
      "constant": true
    }
  ],
  "bytecode": "0x60806040523480156200001157600080fd5b506040516200613838038062006138833981810160405281019062000037919062000345565b818181600090816200004a919062000615565b5080600190816200005c919062000615565b5050506200007f62000073620000e460201b60201c565b620000ec60201b60201c565b60016007819055506000600860016101000a81548167ffffffffffffffff021916908367ffffffffffffffff160217905550612710600860096101000a81548167ffffffffffffffff021916908367ffffffffffffffff1602179055505050620006fc565b600033905090565b6000600660009054906101000a900473ffffffffffffffffffffffffffffffffffffffff16905081600660006101000a81548173ffffffffffffffffffffffffffffffffffffffff021916908373ffffffffffffffffffffffffffffffffffffffff1602179055508173ffffffffffffffffffffffffffffffffffffffff168173ffffffffffffffffffffffffffffffffffffffff167f8be0079c531659141344cd1fd0a4f28419497f9722a3daafe3b4186f6b6457e060405160405180910390a35050565b6000604051905090565b600080fd5b600080fd5b600080fd5b600080fd5b6000601f19601f8301169050919050565b7f4e487b7100000000000000000000000000000000000000000000000000000000600052604160045260246000fd5b6200021b82620001d0565b810181811067ffffffffffffffff821117156200023d576200023c620001e1565b5b80604052505050565b600062000252620001b2565b905062000260828262000210565b919050565b600067ffffffffffffffff821115620002835762000282620001e1565b5b6200028e82620001d0565b9050602081019050919050565b60005b83811015620002bb5780820151818401526020810190506200029e565b60008484015250505050565b6000620002de620002d88462000265565b62000246565b905082815260208101848484011115620002fd57620002fc620001cb565b5b6200030a8482856200029b565b509392505050565b600082601f8301126200032a5762000329620001c6565b5b81516200033c848260208601620002c7565b91505092915050565b600080604083850312156200035f576200035e620001bc565b5b600083015167ffffffffffffffff81111562000380576200037f620001c1565b5b6200038e8582860162000312565b925050602083015167ffffffffffffffff811115620003b257620003b1620001c1565b5b620003c08582860162000312565b9150509250929050565b600081519050919050565b7f4e487b7100000000000000000000000000000000000000000000000000000000600052602260045260246000fd5b600060028204905060018216806200041d57607f821691505b602082108103620004335762000432620003d5565b5b50919050565b60008190508160005260206000209050919050565b60006020601f8301049050919050565b600082821b905092915050565b6000600883026200049d7fffffffffffffffffffffffffffffffffffffffffffffffffffffffffffffffff826200045e565b620004a986836200045e565b95508019841693508086168417925050509392505050565b6000819050919050565b6000819050919050565b6000620004f6620004f0620004ea84620004c1565b620004cb565b620004c1565b9050919050565b6000819050919050565b6200051283620004d5565b6200052a6200052182620004fd565b8484546200046b565b825550505050565b600090565b6200054162000532565b6200054e81848462000507565b505050565b5b8181101562000576576200056a60008262000537565b60018101905062000554565b5050565b601f821115620005c5576200058f8162000439565b6200059a846200044e565b81016020851015620005aa578190505b620005c2620005b9856200044e565b83018262000553565b50505b505050565b600082821c905092915050565b6000620005ea60001984600802620005ca565b1980831691505092915050565b6000620006058383620005d7565b9150826002028217905092915050565b6200062082620003ca565b67ffffffffffffffff8111156200063c576200063b620001e1565b5b62000648825462000404565b620006558282856200057a565b600060209050601f8311600181146200068d576000841562000678578287015190505b620006848582620005f7565b865550620006f4565b601f1984166200069d8662000439565b60005b82811015620006c757848901518255600182019150602085019450602081019050620006a0565b86831015620006e75784890151620006e3601f891682620005d7565b8355505b6001600288020188555050505b505050505050565b615a2c806200070c6000396000f3fe60806040526004361061027d5760003560e01c806395d89b411161014f578063c180526a116100c1578063dc33e6811161007a578063dc33e6811461099d578063e985e9c5146109da578063f12732a214610a17578063f24096a914610a54578063f2fde38b14610a7f578063f30e6e7714610aa85761027d565b8063c180526a14610880578063c32228491461089c578063c40c2815146108d9578063c87b56dd14610916578063cb91d8b314610953578063d5e2eb551461096f5761027d565b8063a81030aa11610113578063a81030aa1461079a578063ac446002146107c3578063aca8ffe7146107da578063b05863d514610803578063b88d4fde1461082c578063b936f97a146108555761027d565b806395d89b41146106ad5780639fb1dc14146106d8578063a22cb46514610718578063a3fd2c4414610741578063a7f93ebd1461076f5761027d565b80633f5e4741116101f357806370a08231116101ac57806370a082311461059d578063715018a6146105da57806381d17496146105f15780638c2020481461061a5780638c3c4b34146106575780638da5cb5b146106825761027d565b80633f5e47411461048d57806342842e0e146104b857806345c0f533146104e157806355f804b31461050c5780635deaa5f4146105355780636352211e146105605761027d565b806315839b301161024557806315839b301461037b57806318160ddd146103a65780631ac3fff1146103d15780631e1a268b146103fc57806323393c401461042757806323b872dd146104645761027d565b806301ffc9a71461028257806305f1bc03146102bf57806306fdde03146102ea578063081812fc14610315578063095ea7b314610352575b600080fd5b34801561028e57600080fd5b506102a960048036038101906102a49190613b17565b610ad1565b6040516102b69190613b5f565b60405180910390f35b3480156102cb57600080fd5b506102d4610bb3565b6040516102e19190613b9d565b60405180910390f35b3480156102f657600080fd5b506102ff610bcd565b60405161030c9190613c48565b60405180910390f35b34801561032157600080fd5b5061033c60048036038101906103379190613ca0565b610c5f565b6040516103499190613d0e565b60405180910390f35b34801561035e57600080fd5b5061037960048036038101906103749190613d55565b610ca5565b005b34801561038757600080fd5b50610390610dbc565b60405161039d9190613b5f565b60405180910390f35b3480156103b257600080fd5b506103bb610dd3565b6040516103c89190613da4565b60405180910390f35b3480156103dd57600080fd5b506103e6610dfb565b6040516103f39190613da4565b60405180910390f35b34801561040857600080fd5b50610411610e9f565b60405161041e9190613b5f565b60405180910390f35b34801561043357600080fd5b5061044e60048036038101906104499190613dbf565b610eca565b60405161045b9190613da4565b60405180910390f35b34801561047057600080fd5b5061048b60048036038101906104869190613dec565b611081565b005b34801561049957600080fd5b506104a26110e1565b6040516104af9190613b5f565b60405180910390f35b3480156104c457600080fd5b506104df60048036038101906104da9190613dec565b611193565b005b3480156104ed57600080fd5b506104f66111b3565b6040516105039190613da4565b60405180910390f35b34801561051857600080fd5b50610533600480360381019061052e9190613ea4565b6111db565b005b34801561054157600080fd5b5061054a6111f9565b6040516105579190613b9d565b60405180910390f35b34801561056c57600080fd5b5061058760048036038101906105829190613ca0565b6111fe565b6040516105949190613d0e565b60405180910390f35b3480156105a957600080fd5b506105c460048036038101906105bf9190613dbf565b611284565b6040516105d19190613da4565b60405180910390f35b3480156105e657600080fd5b506105ef61133b565b005b3480156105fd57600080fd5b5061061860048036038101906106139190613f67565b61134f565b005b34801561062657600080fd5b50610641600480360381019061063c9190613dbf565b6113aa565b60405161064e9190613da4565b60405180910390f35b34801561066357600080fd5b5061066c611424565b6040516106799190613fd6565b60405180910390f35b34801561068e57600080fd5b50610697611486565b6040516106a49190613d0e565b60405180910390f35b3480156106b957600080fd5b506106c26114b0565b6040516106cf9190613c48565b60405180910390f35b3480156106e457600080fd5b506106ff60048036038101906106fa9190613dbf565b611542565b60405161070f949392919061401c565b60405180910390f35b34801561072457600080fd5b5061073f600480360381019061073a919061408d565b6115e2565b005b34801561074d57600080fd5b506107566115f8565b60405161076694939291906140eb565b60405180910390f35b34801561077b57600080fd5b50610784611644565b6040516107919190613da4565b60405180910390f35b3480156107a657600080fd5b506107c160048036038101906107bc9190614130565b611682565b005b3480156107cf57600080fd5b506107d8611702565b005b3480156107e657600080fd5b5061080160048036038101906107fc9190613ca0565b6117c9565b005b34801561080f57600080fd5b5061082a60048036038101906108259190614398565b611847565b005b34801561083857600080fd5b50610853600480360381019061084e91906144c5565b611964565b005b34801561086157600080fd5b5061086a6119c6565b6040516108779190613b5f565b60405180910390f35b61089a60048036038101906108959190613ca0565b611a89565b005b3480156108a857600080fd5b506108c360048036038101906108be9190613dbf565b6120dc565b6040516108d09190613da4565b60405180910390f35b3480156108e557600080fd5b5061090060048036038101906108fb9190613dbf565b612101565b60405161090d9190613da4565b60405180910390f35b34801561092257600080fd5b5061093d60048036038101906109389190613ca0565b6122c7565b60405161094a9190613c48565b60405180910390f35b61096d60048036038101906109689190614548565b61232f565b005b34801561097b57600080fd5b50610984612762565b60405161099494939291906140eb565b60405180910390f35b3480156109a957600080fd5b506109c460048036038101906109bf9190613dbf565b6127ae565b6040516109d19190613da4565b60405180910390f35b3480156109e657600080fd5b50610a0160048036038101906109fc9190614588565b612828565b604051610a0e9190613b5f565b60405180910390f35b348015610a2357600080fd5b50610a3e6004803603810190610a399190613dbf565b6128bc565b604051610a4b9190613da4565b60405180910390f35b348015610a6057600080fd5b50610a696128e1565b604051610a769190613b9d565b60405180910390f35b348015610a8b57600080fd5b50610aa66004803603810190610aa19190613dbf565b6128e7565b005b348015610ab457600080fd5b50610acf6004803603810190610aca91906145c8565b61296a565b005b60007f80ac58cd000000000000000000000000000000000000000000000000000000007bffffffffffffffffffffffffffffffffffffffffffffffffffffffff1916827bffffffffffffffffffffffffffffffffffffffffffffffffffffffff19161480610b9c57507f5b5e139f000000000000000000000000000000000000000000000000000000007bffffffffffffffffffffffffffffffffffffffffffffffffffffffff1916827bffffffffffffffffffffffffffffffffffffffffffffffffffffffff1916145b80610bac5750610bab8261298f565b5b9050919050565b600860099054906101000a900467ffffffffffffffff1681565b606060008054610bdc90614624565b80601f0160208091040260200160405190810160405280929190818152602001828054610c0890614624565b8015610c555780601f10610c2a57610100808354040283529160200191610c55565b820191906000526020600020905b815481529060010190602001808311610c3857829003601f168201915b5050505050905090565b6000610c6a826129f9565b6004600083815260200190815260200160002060009054906101000a900473ffffffffffffffffffffffffffffffffffffffff169050919050565b6000610cb0826111fe565b90508073ffffffffffffffffffffffffffffffffffffffff168373ffffffffffffffffffffffffffffffffffffffff1603610d20576040517f08c379a0000000000000000000000000000000000000000000000000000000008152600401610d17906146c7565b60405180910390fd5b8073ffffffffffffffffffffffffffffffffffffffff16610d3f612a44565b73ffffffffffffffffffffffffffffffffffffffff161480610d6e5750610d6d81610d68612a44565b612828565b5b610dad576040517f08c379a0000000000000000000000000000000000000000000000000000000008152600401610da490614759565b60405180910390fd5b610db78383612a4c565b505050565b6000600860009054906101000a900460ff16905090565b6000600860019054906101000a900467ffffffffffffffff1667ffffffffffffffff16905090565b600080600a6040518060800160405290816000820160009054906101000a900461ffff1661ffff1661ffff1681526020016000820160029054906101000a900463ffffffff1663ffffffff1663ffffffff1681526020016000820160069054906101000a900463ffffffff1663ffffffff1663ffffffff1681526020016001820154815250509050806040015163ffffffff1642610e9991906147a8565b91505090565b600080610eaa610dd3565b118015610ec55750610eba6111b3565b610ec2610dd3565b10155b905090565b600080600e60008473ffffffffffffffffffffffffffffffffffffffff1673ffffffffffffffffffffffffffffffffffffffff1681526020019081526020016000206040518060800160405290816000820160009054906101000a90046fffffffffffffffffffffffffffffffff166fffffffffffffffffffffffffffffffff166fffffffffffffffffffffffffffffffff1681526020016000820160109054906101000a90046fffffffffffffffffffffffffffffffff166fffffffffffffffffffffffffffffffff166fffffffffffffffffffffffffffffffff1681526020016001820160009054906101000a90046fffffffffffffffffffffffffffffffff166fffffffffffffffffffffffffffffffff166fffffffffffffffffffffffffffffffff1681526020016001820160109054906101000a90046fffffffffffffffffffffffffffffffff166fffffffffffffffffffffffffffffffff166fffffffffffffffffffffffffffffffff1681525050905080604001516fffffffffffffffffffffffffffffffff1681602001516fffffffffffffffffffffffffffffffff1661107991906147a8565b915050919050565b61109261108c612a44565b82612b05565b6110d1576040517f08c379a00000000000000000000000000000000000000000000000000000000081526004016110c89061484e565b60405180910390fd5b6110dc838383612b9a565b505050565b600080600c6040518060800160405290816000820160009054906101000a900461ffff1661ffff1661ffff1681526020016000820160029054906101000a900463ffffffff1663ffffffff1663ffffffff1681526020016000820160069054906101000a900463ffffffff1663ffffffff1663ffffffff16815260200160018201548152505090506000816040015163ffffffff1611801561118d5750806040015163ffffffff164210155b91505090565b6111ae83838360405180602001604052806000815250611964565b505050565b6000600860099054906101000a900467ffffffffffffffff1667ffffffffffffffff16905090565b6111e3612e93565b8181600991826111f4929190614a25565b505050565b600581565b60008061120a83612f11565b9050600073ffffffffffffffffffffffffffffffffffffffff168173ffffffffffffffffffffffffffffffffffffffff160361127b576040517f08c379a000000000000000000000000000000000000000000000000000000000815260040161127290614b41565b60405180910390fd5b80915050919050565b60008073ffffffffffffffffffffffffffffffffffffffff168273ffffffffffffffffffffffffffffffffffffffff16036112f4576040517f08c379a00000000000000000000000000000000000000000000000000000000081526004016112eb90614bd3565b60405180910390fd5b600360008373ffffffffffffffffffffffffffffffffffffffff1673ffffffffffffffffffffffffffffffffffffffff168152602001908152602001600020549050919050565b611343612e93565b61134d6000612f4e565b565b611357612e93565b82600a60000160006101000a81548161ffff021916908361ffff16021790555080600a60000160066101000a81548163ffffffff021916908363ffffffff16021790555081600a60010181905550505050565b6000600e60008373ffffffffffffffffffffffffffffffffffffffff1673ffffffffffffffffffffffffffffffffffffffff16815260200190815260200160002060000160109054906101000a90046fffffffffffffffffffffffffffffffff166fffffffffffffffffffffffffffffffff169050919050565b600061142e610e9f565b1561143c5760039050611483565b611444610dbc565b156114525760049050611483565b61145a6110e1565b156114685760029050611483565b6114706119c6565b1561147e5760019050611483565b600090505b90565b6000600660009054906101000a900473ffffffffffffffffffffffffffffffffffffffff16905090565b6060600180546114bf90614624565b80601f01602080910402602001604051908101604052809291908181526020018280546114eb90614624565b80156115385780601f1061150d57610100808354040283529160200191611538565b820191906000526020600020905b81548152906001019060200180831161151b57829003601f168201915b5050505050905090565b600e6020528060005260406000206000915090508060000160009054906101000a90046fffffffffffffffffffffffffffffffff16908060000160109054906101000a90046fffffffffffffffffffffffffffffffff16908060010160009054906101000a90046fffffffffffffffffffffffffffffffff16908060010160109054906101000a90046fffffffffffffffffffffffffffffffff16905084565b6115f46115ed612a44565b8383613014565b5050565b600c8060000160009054906101000a900461ffff16908060000160029054906101000a900463ffffffff16908060000160069054906101000a900463ffffffff16908060010154905084565b600061164e6110e1565b1561166057600c60010154905061167f565b6116686119c6565b1561167a57600a60010154905061167f565b600090505b90565b61168a612e93565b83600c60000160006101000a81548161ffff021916908361ffff16021790555080600c60000160026101000a81548163ffffffff021916908363ffffffff16021790555081600c60000160066101000a81548163ffffffff021916908363ffffffff16021790555082600c6001018190555050505050565b61170a612e93565b611712613180565b60003373ffffffffffffffffffffffffffffffffffffffff164760405161173890614c24565b60006040518083038185875af1925050503d8060008114611775576040519150601f19603f3d011682016040523d82523d6000602084013e61177a565b606091505b50509050806117be576040517f08c379a00000000000000000000000000000000000000000000000000000000081526004016117b590614c85565b60405180910390fd5b506117c76131cf565b565b6117d1612e93565b6117d9610dd3565b81101561181b576040517f08c379a000000000000000000000000000000000000000000000000000000000815260040161181290614d17565b60405180910390fd5b80600860096101000a81548167ffffffffffffffff021916908367ffffffffffffffff16021790555050565b61184f612e93565b8051825114611893576040517f08c379a000000000000000000000000000000000000000000000000000000000815260040161188a90614da9565b60405180910390fd5b60005b825181101561195f578181815181106118b2576118b1614dc9565b5b6020026020010151600e60008584815181106118d1576118d0614dc9565b5b602002602001015173ffffffffffffffffffffffffffffffffffffffff1673ffffffffffffffffffffffffffffffffffffffff16815260200190815260200160002060000160106101000a8154816fffffffffffffffffffffffffffffffff02191690836fffffffffffffffffffffffffffffffff160217905550808061195790614df8565b915050611896565b505050565b61197561196f612a44565b83612b05565b6119b4576040517f08c379a00000000000000000000000000000000000000000000000000000000081526004016119ab9061484e565b60405180910390fd5b6119c0848484846131d9565b50505050565b600080600a6040518060800160405290816000820160009054906101000a900461ffff1661ffff1661ffff1681526020016000820160029054906101000a900463ffffffff1663ffffffff1663ffffffff1681526020016000820160069054906101000a900463ffffffff1663ffffffff1663ffffffff1681526020016001820154815250509050611a566110e1565b158015611a6d57506000816040015163ffffffff16115b8015611a835750806040015163ffffffff164210155b91505090565b3373ffffffffffffffffffffffffffffffffffffffff163273ffffffffffffffffffffffffffffffffffffffff1614611af7576040517f08c379a0000000000000000000000000000000000000000000000000000000008152600401611aee90614e8c565b60405180910390fd5b6000600a6040518060800160405290816000820160009054906101000a900461ffff1661ffff1661ffff1681526020016000820160029054906101000a900463ffffffff1663ffffffff1663ffffffff1681526020016000820160069054906101000a900463ffffffff1663ffffffff1663ffffffff16815260200160018201548152505090506000816060015190506000600e60003373ffffffffffffffffffffffffffffffffffffffff1673ffffffffffffffffffffffffffffffffffffffff1681526020019081526020016000206040518060800160405290816000820160009054906101000a90046fffffffffffffffffffffffffffffffff166fffffffffffffffffffffffffffffffff166fffffffffffffffffffffffffffffffff1681526020016000820160109054906101000a90046fffffffffffffffffffffffffffffffff166fffffffffffffffffffffffffffffffff166fffffffffffffffffffffffffffffffff1681526020016001820160009054906101000a90046fffffffffffffffffffffffffffffffff166fffffffffffffffffffffffffffffffff166fffffffffffffffffffffffffffffffff1681526020016001820160109054906101000a90046fffffffffffffffffffffffffffffffff166fffffffffffffffffffffffffffffffff166fffffffffffffffffffffffffffffffff16815250509050611d05610dbc565b15611d45576040517f08c379a0000000000000000000000000000000000000000000000000000000008152600401611d3c90614ef8565b60405180910390fd5b611d4d6119c6565b611d8c576040517f08c379a0000000000000000000000000000000000000000000000000000000008152600401611d8390614f64565b60405180910390fd5b600081602001516fffffffffffffffffffffffffffffffff1611611de5576040517f08c379a0000000000000000000000000000000000000000000000000000000008152600401611ddc90614fd0565b60405180910390fd5b600860099054906101000a900467ffffffffffffffff1667ffffffffffffffff1684611e0f610dd3565b611e199190614ff0565b1115611e5a576040517f08c379a0000000000000000000000000000000000000000000000000000000008152600401611e5190615070565b60405180910390fd5b611e6333610eca565b841115611ea5576040517f08c379a0000000000000000000000000000000000000000000000000000000008152600401611e9c90615128565b60405180910390fd5b611eb8848361323590919063ffffffff16565b341015611efa576040517f08c379a0000000000000000000000000000000000000000000000000000000008152600401611ef1906151ba565b60405180910390fd5b60005b84811015611f8f57611f2f33600860019054906101000a900467ffffffffffffffff1667ffffffffffffffff1661324b565b6008600181819054906101000a900467ffffffffffffffff1680929190611f55906151da565b91906101000a81548167ffffffffffffffff021916908367ffffffffffffffff160217905550508080611f8790614df8565b915050611efd565b5083600e60003373ffffffffffffffffffffffffffffffffffffffff1673ffffffffffffffffffffffffffffffffffffffff16815260200190815260200160002060000160008282829054906101000a90046fffffffffffffffffffffffffffffffff16611ffd919061520a565b92506101000a8154816fffffffffffffffffffffffffffffffff02191690836fffffffffffffffffffffffffffffffff16021790555083600e60003373ffffffffffffffffffffffffffffffffffffffff1673ffffffffffffffffffffffffffffffffffffffff16815260200190815260200160002060010160008282829054906101000a90046fffffffffffffffffffffffffffffffff166120a0919061520a565b92506101000a8154816fffffffffffffffffffffffffffffffff02191690836fffffffffffffffffffffffffffffffff16021790555050505050565b60006120e7826127ae565b6120f0836128bc565b6120fa91906147a8565b9050919050565b600080600e60008473ffffffffffffffffffffffffffffffffffffffff1673ffffffffffffffffffffffffffffffffffffffff1681526020019081526020016000206040518060800160405290816000820160009054906101000a90046fffffffffffffffffffffffffffffffff166fffffffffffffffffffffffffffffffff166fffffffffffffffffffffffffffffffff1681526020016000820160109054906101000a90046fffffffffffffffffffffffffffffffff166fffffffffffffffffffffffffffffffff166fffffffffffffffffffffffffffffffff1681526020016001820160009054906101000a90046fffffffffffffffffffffffffffffffff166fffffffffffffffffffffffffffffffff166fffffffffffffffffffffffffffffffff1681526020016001820160109054906101000a90046fffffffffffffffffffffffffffffffff166fffffffffffffffffffffffffffffffff166fffffffffffffffffffffffffffffffff16815250509050600081606001516fffffffffffffffffffffffffffffffff16036122a757600567ffffffffffffffff166122bf565b80606001516fffffffffffffffffffffffffffffffff165b915050919050565b60606122d2826129f9565b60006122dc613269565b905060008151116122fc5760405180602001604052806000815250612327565b80612306846132fb565b60405160200161231792919061528a565b6040516020818303038152906040525b915050919050565b3373ffffffffffffffffffffffffffffffffffffffff163273ffffffffffffffffffffffffffffffffffffffff161461239d576040517f08c379a000000000000000000000000000000000000000000000000000000000815260040161239490614e8c565b60405180910390fd5b6000600c6040518060800160405290816000820160009054906101000a900461ffff1661ffff1661ffff1681526020016000820160029054906101000a900463ffffffff1663ffffffff1663ffffffff1681526020016000820160069054906101000a900463ffffffff1663ffffffff1663ffffffff16815260200160018201548152505090506000816020015163ffffffff16905060008260600151905083821461247e576040517f08c379a000000000000000000000000000000000000000000000000000000000815260040161247590615320565b60405180910390fd5b612486610dbc565b156124c6576040517f08c379a00000000000000000000000000000000000000000000000000000000081526004016124bd90614ef8565b60405180910390fd5b6124ce6110e1565b61250d576040517f08c379a00000000000000000000000000000000000000000000000000000000081526004016125049061538c565b60405180910390fd5b600860099054906101000a900467ffffffffffffffff1667ffffffffffffffff1685612537610dd3565b6125419190614ff0565b1115612582576040517f08c379a000000000000000000000000000000000000000000000000000000000815260040161257990615070565b60405180910390fd5b61258b336120dc565b8511156125cd576040517f08c379a00000000000000000000000000000000000000000000000000000000081526004016125c49061541e565b60405180910390fd5b6125e0858261323590919063ffffffff16565b341015612622576040517f08c379a0000000000000000000000000000000000000000000000000000000008152600401612619906151ba565b60405180910390fd5b60005b858110156126b75761265733600860019054906101000a900467ffffffffffffffff1667ffffffffffffffff1661324b565b6008600181819054906101000a900467ffffffffffffffff168092919061267d906151da565b91906101000a81548167ffffffffffffffff021916908367ffffffffffffffff1602179055505080806126af90614df8565b915050612625565b5084600e60003373ffffffffffffffffffffffffffffffffffffffff1673ffffffffffffffffffffffffffffffffffffffff16815260200190815260200160002060000160008282829054906101000a90046fffffffffffffffffffffffffffffffff16612725919061520a565b92506101000a8154816fffffffffffffffffffffffffffffffff02191690836fffffffffffffffffffffffffffffffff1602179055505050505050565b600a8060000160009054906101000a900461ffff16908060000160029054906101000a900463ffffffff16908060000160069054906101000a900463ffffffff16908060010154905084565b6000600e60008373ffffffffffffffffffffffffffffffffffffffff1673ffffffffffffffffffffffffffffffffffffffff16815260200190815260200160002060000160009054906101000a90046fffffffffffffffffffffffffffffffff166fffffffffffffffffffffffffffffffff169050919050565b6000600560008473ffffffffffffffffffffffffffffffffffffffff1673ffffffffffffffffffffffffffffffffffffffff16815260200190815260200160002060008373ffffffffffffffffffffffffffffffffffffffff1673ffffffffffffffffffffffffffffffffffffffff16815260200190815260200160002060009054906101000a900460ff16905092915050565b60006128c782612101565b6128d0836113aa565b6128da9190614ff0565b9050919050565b61271081565b6128ef612e93565b600073ffffffffffffffffffffffffffffffffffffffff168173ffffffffffffffffffffffffffffffffffffffff160361295e576040517f08c379a0000000000000000000000000000000000000000000000000000000008152600401612955906154b0565b60405180910390fd5b61296781612f4e565b50565b612972612e93565b80600860006101000a81548160ff02191690831515021790555050565b60007f01ffc9a7000000000000000000000000000000000000000000000000000000007bffffffffffffffffffffffffffffffffffffffffffffffffffffffff1916827bffffffffffffffffffffffffffffffffffffffffffffffffffffffff1916149050919050565b612a02816133c9565b612a41576040517f08c379a0000000000000000000000000000000000000000000000000000000008152600401612a3890614b41565b60405180910390fd5b50565b600033905090565b816004600083815260200190815260200160002060006101000a81548173ffffffffffffffffffffffffffffffffffffffff021916908373ffffffffffffffffffffffffffffffffffffffff160217905550808273ffffffffffffffffffffffffffffffffffffffff16612abf836111fe565b73ffffffffffffffffffffffffffffffffffffffff167f8c5be1e5ebec7d5bd14f71427d1e84f3dd0314c0f7b2291e5b200ac8c7c3b92560405160405180910390a45050565b600080612b11836111fe565b90508073ffffffffffffffffffffffffffffffffffffffff168473ffffffffffffffffffffffffffffffffffffffff161480612b535750612b528185612828565b5b80612b9157508373ffffffffffffffffffffffffffffffffffffffff16612b7984610c5f565b73ffffffffffffffffffffffffffffffffffffffff16145b91505092915050565b8273ffffffffffffffffffffffffffffffffffffffff16612bba826111fe565b73ffffffffffffffffffffffffffffffffffffffff1614612c10576040517f08c379a0000000000000000000000000000000000000000000000000000000008152600401612c0790615542565b60405180910390fd5b600073ffffffffffffffffffffffffffffffffffffffff168273ffffffffffffffffffffffffffffffffffffffff1603612c7f576040517f08c379a0000000000000000000000000000000000000000000000000000000008152600401612c76906155d4565b60405180910390fd5b612c8c838383600161340a565b8273ffffffffffffffffffffffffffffffffffffffff16612cac826111fe565b73ffffffffffffffffffffffffffffffffffffffff1614612d02576040517f08c379a0000000000000000000000000000000000000000000000000000000008152600401612cf990615542565b60405180910390fd5b6004600082815260200190815260200160002060006101000a81549073ffffffffffffffffffffffffffffffffffffffff02191690556001600360008573ffffffffffffffffffffffffffffffffffffffff1673ffffffffffffffffffffffffffffffffffffffff168152602001908152602001600020600082825403925050819055506001600360008473ffffffffffffffffffffffffffffffffffffffff1673ffffffffffffffffffffffffffffffffffffffff16815260200190815260200160002060008282540192505081905550816002600083815260200190815260200160002060006101000a81548173ffffffffffffffffffffffffffffffffffffffff021916908373ffffffffffffffffffffffffffffffffffffffff160217905550808273ffffffffffffffffffffffffffffffffffffffff168473ffffffffffffffffffffffffffffffffffffffff167fddf252ad1be2c89b69c2b068fc378daa952ba7f163c4a11628f55a4df523b3ef60405160405180910390a4612e8e8383836001613530565b505050565b612e9b612a44565b73ffffffffffffffffffffffffffffffffffffffff16612eb9611486565b73ffffffffffffffffffffffffffffffffffffffff1614612f0f576040517f08c379a0000000000000000000000000000000000000000000000000000000008152600401612f0690615640565b60405180910390fd5b565b60006002600083815260200190815260200160002060009054906101000a900473ffffffffffffffffffffffffffffffffffffffff169050919050565b6000600660009054906101000a900473ffffffffffffffffffffffffffffffffffffffff16905081600660006101000a81548173ffffffffffffffffffffffffffffffffffffffff021916908373ffffffffffffffffffffffffffffffffffffffff1602179055508173ffffffffffffffffffffffffffffffffffffffff168173ffffffffffffffffffffffffffffffffffffffff167f8be0079c531659141344cd1fd0a4f28419497f9722a3daafe3b4186f6b6457e060405160405180910390a35050565b8173ffffffffffffffffffffffffffffffffffffffff168373ffffffffffffffffffffffffffffffffffffffff1603613082576040517f08c379a0000000000000000000000000000000000000000000000000000000008152600401613079906156ac565b60405180910390fd5b80600560008573ffffffffffffffffffffffffffffffffffffffff1673ffffffffffffffffffffffffffffffffffffffff16815260200190815260200160002060008473ffffffffffffffffffffffffffffffffffffffff1673ffffffffffffffffffffffffffffffffffffffff16815260200190815260200160002060006101000a81548160ff0219169083151502179055508173ffffffffffffffffffffffffffffffffffffffff168373ffffffffffffffffffffffffffffffffffffffff167f17307eab39ab6107e8899845ad3d59bd9653f200f220920489ca2b5937696c31836040516131739190613b5f565b60405180910390a3505050565b6002600754036131c5576040517f08c379a00000000000000000000000000000000000000000000000000000000081526004016131bc90615718565b60405180910390fd5b6002600781905550565b6001600781905550565b6131e4848484612b9a565b6131f084848484613536565b61322f576040517f08c379a0000000000000000000000000000000000000000000000000000000008152600401613226906157aa565b60405180910390fd5b50505050565b6000818361324391906157ca565b905092915050565b6132658282604051806020016040528060008152506136bd565b5050565b60606009805461327890614624565b80601f01602080910402602001604051908101604052809291908181526020018280546132a490614624565b80156132f15780601f106132c6576101008083540402835291602001916132f1565b820191906000526020600020905b8154815290600101906020018083116132d457829003601f168201915b5050505050905090565b60606000600161330a84613718565b01905060008167ffffffffffffffff81111561332957613328614197565b5b6040519080825280601f01601f19166020018201604052801561335b5781602001600182028036833780820191505090505b509050600082602001820190505b6001156133be578080600190039150507f3031323334353637383961626364656600000000000000000000000000000000600a86061a8153600a85816133b2576133b161580c565b5b04945060008503613369575b819350505050919050565b60008073ffffffffffffffffffffffffffffffffffffffff166133eb83612f11565b73ffffffffffffffffffffffffffffffffffffffff1614159050919050565b600181111561352a57600073ffffffffffffffffffffffffffffffffffffffff168473ffffffffffffffffffffffffffffffffffffffff161461349e5780600360008673ffffffffffffffffffffffffffffffffffffffff1673ffffffffffffffffffffffffffffffffffffffff168152602001908152602001600020600082825461349691906147a8565b925050819055505b600073ffffffffffffffffffffffffffffffffffffffff168373ffffffffffffffffffffffffffffffffffffffff16146135295780600360008573ffffffffffffffffffffffffffffffffffffffff1673ffffffffffffffffffffffffffffffffffffffff16815260200190815260200160002060008282546135219190614ff0565b925050819055505b5b50505050565b50505050565b60006135578473ffffffffffffffffffffffffffffffffffffffff1661386b565b156136b0578373ffffffffffffffffffffffffffffffffffffffff1663150b7a02613580612a44565b8786866040518563ffffffff1660e01b81526004016135a29493929190615890565b6020604051808303816000875af19250505080156135de57506040513d601f19601f820116820180604052508101906135db91906158f1565b60015b613660573d806000811461360e576040519150601f19603f3d011682016040523d82523d6000602084013e613613565b606091505b506000815103613658576040517f08c379a000000000000000000000000000000000000000000000000000000000815260040161364f906157aa565b60405180910390fd5b805181602001fd5b63150b7a0260e01b7bffffffffffffffffffffffffffffffffffffffffffffffffffffffff1916817bffffffffffffffffffffffffffffffffffffffffffffffffffffffff1916149150506136b5565b600190505b949350505050565b6136c7838361388e565b6136d46000848484613536565b613713576040517f08c379a000000000000000000000000000000000000000000000000000000000815260040161370a906157aa565b60405180910390fd5b505050565b600080600090507a184f03e93ff9f4daa797ed6e38ed64bf6a1f0100000000000000008310613776577a184f03e93ff9f4daa797ed6e38ed64bf6a1f010000000000000000838161376c5761376b61580c565b5b0492506040810190505b6d04ee2d6d415b85acef810000000083106137b3576d04ee2d6d415b85acef810000000083816137a9576137a861580c565b5b0492506020810190505b662386f26fc1000083106137e257662386f26fc1000083816137d8576137d761580c565b5b0492506010810190505b6305f5e100831061380b576305f5e10083816138015761380061580c565b5b0492506008810190505b61271083106138305761271083816138265761382561580c565b5b0492506004810190505b6064831061385357606483816138495761384861580c565b5b0492506002810190505b600a8310613862576001810190505b80915050919050565b6000808273ffffffffffffffffffffffffffffffffffffffff163b119050919050565b600073ffffffffffffffffffffffffffffffffffffffff168273ffffffffffffffffffffffffffffffffffffffff16036138fd576040517f08c379a00000000000000000000000000000000000000000000000000000000081526004016138f49061596a565b60405180910390fd5b613906816133c9565b15613946576040517f08c379a000000000000000000000000000000000000000000000000000000000815260040161393d906159d6565b60405180910390fd5b61395460008383600161340a565b61395d816133c9565b1561399d576040517f08c379a0000000000000000000000000000000000000000000000000000000008152600401613994906159d6565b60405180910390fd5b6001600360008473ffffffffffffffffffffffffffffffffffffffff1673ffffffffffffffffffffffffffffffffffffffff16815260200190815260200160002060008282540192505081905550816002600083815260200190815260200160002060006101000a81548173ffffffffffffffffffffffffffffffffffffffff021916908373ffffffffffffffffffffffffffffffffffffffff160217905550808273ffffffffffffffffffffffffffffffffffffffff16600073ffffffffffffffffffffffffffffffffffffffff167fddf252ad1be2c89b69c2b068fc378daa952ba7f163c4a11628f55a4df523b3ef60405160405180910390a4613aa7600083836001613530565b5050565b6000604051905090565b600080fd5b600080fd5b60007fffffffff0000000000000000000000000000000000000000000000000000000082169050919050565b613af481613abf565b8114613aff57600080fd5b50565b600081359050613b1181613aeb565b92915050565b600060208284031215613b2d57613b2c613ab5565b5b6000613b3b84828501613b02565b91505092915050565b60008115159050919050565b613b5981613b44565b82525050565b6000602082019050613b746000830184613b50565b92915050565b600067ffffffffffffffff82169050919050565b613b9781613b7a565b82525050565b6000602082019050613bb26000830184613b8e565b92915050565b600081519050919050565b600082825260208201905092915050565b60005b83811015613bf2578082015181840152602081019050613bd7565b60008484015250505050565b6000601f19601f8301169050919050565b6000613c1a82613bb8565b613c248185613bc3565b9350613c34818560208601613bd4565b613c3d81613bfe565b840191505092915050565b60006020820190508181036000830152613c628184613c0f565b905092915050565b6000819050919050565b613c7d81613c6a565b8114613c8857600080fd5b50565b600081359050613c9a81613c74565b92915050565b600060208284031215613cb657613cb5613ab5565b5b6000613cc484828501613c8b565b91505092915050565b600073ffffffffffffffffffffffffffffffffffffffff82169050919050565b6000613cf882613ccd565b9050919050565b613d0881613ced565b82525050565b6000602082019050613d236000830184613cff565b92915050565b613d3281613ced565b8114613d3d57600080fd5b50565b600081359050613d4f81613d29565b92915050565b60008060408385031215613d6c57613d6b613ab5565b5b6000613d7a85828601613d40565b9250506020613d8b85828601613c8b565b9150509250929050565b613d9e81613c6a565b82525050565b6000602082019050613db96000830184613d95565b92915050565b600060208284031215613dd557613dd4613ab5565b5b6000613de384828501613d40565b91505092915050565b600080600060608486031215613e0557613e04613ab5565b5b6000613e1386828701613d40565b9350506020613e2486828701613d40565b9250506040613e3586828701613c8b565b9150509250925092565b600080fd5b600080fd5b600080fd5b60008083601f840112613e6457613e63613e3f565b5b8235905067ffffffffffffffff811115613e8157613e80613e44565b5b602083019150836001820283011115613e9d57613e9c613e49565b5b9250929050565b60008060208385031215613ebb57613eba613ab5565b5b600083013567ffffffffffffffff811115613ed957613ed8613aba565b5b613ee585828601613e4e565b92509250509250929050565b600061ffff82169050919050565b613f0881613ef1565b8114613f1357600080fd5b50565b600081359050613f2581613eff565b92915050565b600063ffffffff82169050919050565b613f4481613f2b565b8114613f4f57600080fd5b50565b600081359050613f6181613f3b565b92915050565b600080600060608486031215613f8057613f7f613ab5565b5b6000613f8e86828701613f16565b9350506020613f9f86828701613c8b565b9250506040613fb086828701613f52565b9150509250925092565b600060ff82169050919050565b613fd081613fba565b82525050565b6000602082019050613feb6000830184613fc7565b92915050565b60006fffffffffffffffffffffffffffffffff82169050919050565b61401681613ff1565b82525050565b6000608082019050614031600083018761400d565b61403e602083018661400d565b61404b604083018561400d565b614058606083018461400d565b95945050505050565b61406a81613b44565b811461407557600080fd5b50565b60008135905061408781614061565b92915050565b600080604083850312156140a4576140a3613ab5565b5b60006140b285828601613d40565b92505060206140c385828601614078565b9150509250929050565b6140d681613ef1565b82525050565b6140e581613f2b565b82525050565b600060808201905061410060008301876140cd565b61410d60208301866140dc565b61411a60408301856140dc565b6141276060830184613d95565b95945050505050565b6000806000806080858703121561414a57614149613ab5565b5b600061415887828801613f16565b945050602061416987828801613c8b565b935050604061417a87828801613f52565b925050606061418b87828801613f52565b91505092959194509250565b7f4e487b7100000000000000000000000000000000000000000000000000000000600052604160045260246000fd5b6141cf82613bfe565b810181811067ffffffffffffffff821117156141ee576141ed614197565b5b80604052505050565b6000614201613aab565b905061420d82826141c6565b919050565b600067ffffffffffffffff82111561422d5761422c614197565b5b602082029050602081019050919050565b600061425161424c84614212565b6141f7565b9050808382526020820190506020840283018581111561427457614273613e49565b5b835b8181101561429d57806142898882613d40565b845260208401935050602081019050614276565b5050509392505050565b600082601f8301126142bc576142bb613e3f565b5b81356142cc84826020860161423e565b91505092915050565b600067ffffffffffffffff8211156142f0576142ef614197565b5b602082029050602081019050919050565b600061431461430f846142d5565b6141f7565b9050808382526020820190506020840283018581111561433757614336613e49565b5b835b81811015614360578061434c8882613c8b565b845260208401935050602081019050614339565b5050509392505050565b600082601f83011261437f5761437e613e3f565b5b813561438f848260208601614301565b91505092915050565b600080604083850312156143af576143ae613ab5565b5b600083013567ffffffffffffffff8111156143cd576143cc613aba565b5b6143d9858286016142a7565b925050602083013567ffffffffffffffff8111156143fa576143f9613aba565b5b6144068582860161436a565b9150509250929050565b600080fd5b600067ffffffffffffffff8211156144305761442f614197565b5b61443982613bfe565b9050602081019050919050565b82818337600083830152505050565b600061446861446384614415565b6141f7565b90508281526020810184848401111561448457614483614410565b5b61448f848285614446565b509392505050565b600082601f8301126144ac576144ab613e3f565b5b81356144bc848260208601614455565b91505092915050565b600080600080608085870312156144df576144de613ab5565b5b60006144ed87828801613d40565b94505060206144fe87828801613d40565b935050604061450f87828801613c8b565b925050606085013567ffffffffffffffff8111156145305761452f613aba565b5b61453c87828801614497565b91505092959194509250565b6000806040838503121561455f5761455e613ab5565b5b600061456d85828601613c8b565b925050602061457e85828601613c8b565b9150509250929050565b6000806040838503121561459f5761459e613ab5565b5b60006145ad85828601613d40565b92505060206145be85828601613d40565b9150509250929050565b6000602082840312156145de576145dd613ab5565b5b60006145ec84828501614078565b91505092915050565b7f4e487b7100000000000000000000000000000000000000000000000000000000600052602260045260246000fd5b6000600282049050600182168061463c57607f821691505b60208210810361464f5761464e6145f5565b5b50919050565b7f4552433732313a20617070726f76616c20746f2063757272656e74206f776e6560008201527f7200000000000000000000000000000000000000000000000000000000000000602082015250565b60006146b1602183613bc3565b91506146bc82614655565b604082019050919050565b600060208201905081810360008301526146e0816146a4565b9050919050565b7f4552433732313a20617070726f76652063616c6c6572206973206e6f7420746f60008201527f6b656e206f776e6572206f7220617070726f76656420666f7220616c6c000000602082015250565b6000614743603d83613bc3565b915061474e826146e7565b604082019050919050565b6000602082019050818103600083015261477281614736565b9050919050565b7f4e487b7100000000000000000000000000000000000000000000000000000000600052601160045260246000fd5b60006147b382613c6a565b91506147be83613c6a565b92508282039050818111156147d6576147d5614779565b5b92915050565b7f4552433732313a2063616c6c6572206973206e6f7420746f6b656e206f776e6560008201527f72206f7220617070726f76656400000000000000000000000000000000000000602082015250565b6000614838602d83613bc3565b9150614843826147dc565b604082019050919050565b600060208201905081810360008301526148678161482b565b9050919050565b600082905092915050565b60008190508160005260206000209050919050565b60006020601f8301049050919050565b600082821b905092915050565b6000600883026148db7fffffffffffffffffffffffffffffffffffffffffffffffffffffffffffffffff8261489e565b6148e5868361489e565b95508019841693508086168417925050509392505050565b6000819050919050565b600061492261491d61491884613c6a565b6148fd565b613c6a565b9050919050565b6000819050919050565b61493c83614907565b61495061494882614929565b8484546148ab565b825550505050565b600090565b614965614958565b614970818484614933565b505050565b5b818110156149945761498960008261495d565b600181019050614976565b5050565b601f8211156149d9576149aa81614879565b6149b38461488e565b810160208510156149c2578190505b6149d66149ce8561488e565b830182614975565b50505b505050565b600082821c905092915050565b60006149fc600019846008026149de565b1980831691505092915050565b6000614a1583836149eb565b9150826002028217905092915050565b614a2f838361486e565b67ffffffffffffffff811115614a4857614a47614197565b5b614a528254614624565b614a5d828285614998565b6000601f831160018114614a8c5760008415614a7a578287013590505b614a848582614a09565b865550614aec565b601f198416614a9a86614879565b60005b82811015614ac257848901358255600182019150602085019450602081019050614a9d565b86831015614adf5784890135614adb601f8916826149eb565b8355505b6001600288020188555050505b50505050505050565b7f4552433732313a20696e76616c696420746f6b656e2049440000000000000000600082015250565b6000614b2b601883613bc3565b9150614b3682614af5565b602082019050919050565b60006020820190508181036000830152614b5a81614b1e565b9050919050565b7f4552433732313a2061646472657373207a65726f206973206e6f74206120766160008201527f6c6964206f776e65720000000000000000000000000000000000000000000000602082015250565b6000614bbd602983613bc3565b9150614bc882614b61565b604082019050919050565b60006020820190508181036000830152614bec81614bb0565b9050919050565b600081905092915050565b50565b6000614c0e600083614bf3565b9150614c1982614bfe565b600082019050919050565b6000614c2f82614c01565b9150819050919050565b7f5472616e73666572206661696c65642e00000000000000000000000000000000600082015250565b6000614c6f601083613bc3565b9150614c7a82614c39565b602082019050919050565b60006020820190508181036000830152614c9e81614c62565b9050919050565b7f63616e6e6f74206d616b6520636f6c6c656374696f6e2073697a6520736d616c60008201527f6c6572207468616e20737570706c790000000000000000000000000000000000602082015250565b6000614d01602f83613bc3565b9150614d0c82614ca5565b604082019050919050565b60006020820190508181036000830152614d3081614cf4565b9050919050565b7f61646472657373657320646f6573206e6f74206d61746368206e756d536c6f7460008201527f73206c656e677468000000000000000000000000000000000000000000000000602082015250565b6000614d93602883613bc3565b9150614d9e82614d37565b604082019050919050565b60006020820190508181036000830152614dc281614d86565b9050919050565b7f4e487b7100000000000000000000000000000000000000000000000000000000600052603260045260246000fd5b6000614e0382613c6a565b91507fffffffffffffffffffffffffffffffffffffffffffffffffffffffffffffffff8203614e3557614e34614779565b5b600182019050919050565b7f5468652063616c6c657220697320616e6f7468657220636f6e74726163740000600082015250565b6000614e76601e83613bc3565b9150614e8182614e40565b602082019050919050565b60006020820190508181036000830152614ea581614e69565b9050919050565b7f6d696e7420697320706175736564000000000000000000000000000000000000600082015250565b6000614ee2600e83613bc3565b9150614eed82614eac565b602082019050919050565b60006020820190508181036000830152614f1181614ed5565b9050919050565b7f616c6c6f776c6973742073616c6520686173206e6f7420626567756e20796574600082015250565b6000614f4e602083613bc3565b9150614f5982614f18565b602082019050919050565b60006020820190508181036000830152614f7d81614f41565b9050919050565b7f6e6f7420656c696769626c6520666f7220616c6c6f776c697374206d696e7400600082015250565b6000614fba601f83613bc3565b9150614fc582614f84565b602082019050919050565b60006020820190508181036000830152614fe981614fad565b9050919050565b6000614ffb82613c6a565b915061500683613c6a565b925082820190508082111561501e5761501d614779565b5b92915050565b7f72656163686564206d617820737570706c790000000000000000000000000000600082015250565b600061505a601283613bc3565b915061506582615024565b602082019050919050565b600060208201905081810360008301526150898161504d565b9050919050565b7f796f75206861766520657863656564656420746865206d6178206e756d62657260008201527f206f6620616c6c6f776c69737420746f6b656e7320796f752063616e206d696e60208201527f7400000000000000000000000000000000000000000000000000000000000000604082015250565b6000615112604183613bc3565b915061511d82615090565b606082019050919050565b6000602082019050818103600083015261514181615105565b9050919050565b7f6e6f7420656e6f75676820657468657220746f20636f6d706c6574652070757260008201527f63686173652e0000000000000000000000000000000000000000000000000000602082015250565b60006151a4602683613bc3565b91506151af82615148565b604082019050919050565b600060208201905081810360008301526151d381615197565b9050919050565b60006151e582613b7a565b915067ffffffffffffffff82036151ff576151fe614779565b5b600182019050919050565b600061521582613ff1565b915061522083613ff1565b925082820190506fffffffffffffffffffffffffffffffff81111561524857615247614779565b5b92915050565b600081905092915050565b600061526482613bb8565b61526e818561524e565b935061527e818560208601613bd4565b80840191505092915050565b60006152968285615259565b91506152a28284615259565b91508190509392505050565b7f63616c6c6564207769746820696e636f7272656374207075626c69632073616c60008201527f65206b6579000000000000000000000000000000000000000000000000000000602082015250565b600061530a602583613bc3565b9150615315826152ae565b604082019050919050565b60006020820190508181036000830152615339816152fd565b9050919050565b7f7075626c69632073616c6520686173206e6f7420626567756e20796574000000600082015250565b6000615376601d83613bc3565b915061538182615340565b602082019050919050565b600060208201905081810360008301526153a581615369565b9050919050565b7f796f75206861766520657863656564656420746865206d6178206e756d62657260008201527f206f6620746f6b656e7320796f752063616e206d696e74000000000000000000602082015250565b6000615408603783613bc3565b9150615413826153ac565b604082019050919050565b60006020820190508181036000830152615437816153fb565b9050919050565b7f4f776e61626c653a206e6577206f776e657220697320746865207a65726f206160008201527f6464726573730000000000000000000000000000000000000000000000000000602082015250565b600061549a602683613bc3565b91506154a58261543e565b604082019050919050565b600060208201905081810360008301526154c98161548d565b9050919050565b7f4552433732313a207472616e736665722066726f6d20696e636f72726563742060008201527f6f776e6572000000000000000000000000000000000000000000000000000000602082015250565b600061552c602583613bc3565b9150615537826154d0565b604082019050919050565b6000602082019050818103600083015261555b8161551f565b9050919050565b7f4552433732313a207472616e7366657220746f20746865207a65726f2061646460008201527f7265737300000000000000000000000000000000000000000000000000000000602082015250565b60006155be602483613bc3565b91506155c982615562565b604082019050919050565b600060208201905081810360008301526155ed816155b1565b9050919050565b7f4f776e61626c653a2063616c6c6572206973206e6f7420746865206f776e6572600082015250565b600061562a602083613bc3565b9150615635826155f4565b602082019050919050565b600060208201905081810360008301526156598161561d565b9050919050565b7f4552433732313a20617070726f766520746f2063616c6c657200000000000000600082015250565b6000615696601983613bc3565b91506156a182615660565b602082019050919050565b600060208201905081810360008301526156c581615689565b9050919050565b7f5265656e7472616e637947756172643a207265656e7472616e742063616c6c00600082015250565b6000615702601f83613bc3565b915061570d826156cc565b602082019050919050565b60006020820190508181036000830152615731816156f5565b9050919050565b7f4552433732313a207472616e7366657220746f206e6f6e20455243373231526560008201527f63656976657220696d706c656d656e7465720000000000000000000000000000602082015250565b6000615794603283613bc3565b915061579f82615738565b604082019050919050565b600060208201905081810360008301526157c381615787565b9050919050565b60006157d582613c6a565b91506157e083613c6a565b92508282026157ee81613c6a565b9150828204841483151761580557615804614779565b5b5092915050565b7f4e487b7100000000000000000000000000000000000000000000000000000000600052601260045260246000fd5b600081519050919050565b600082825260208201905092915050565b60006158628261583b565b61586c8185615846565b935061587c818560208601613bd4565b61588581613bfe565b840191505092915050565b60006080820190506158a56000830187613cff565b6158b26020830186613cff565b6158bf6040830185613d95565b81810360608301526158d18184615857565b905095945050505050565b6000815190506158eb81613aeb565b92915050565b60006020828403121561590757615906613ab5565b5b6000615915848285016158dc565b91505092915050565b7f4552433732313a206d696e7420746f20746865207a65726f2061646472657373600082015250565b6000615954602083613bc3565b915061595f8261591e565b602082019050919050565b6000602082019050818103600083015261598381615947565b9050919050565b7f4552433732313a20746f6b656e20616c7265616479206d696e74656400000000600082015250565b60006159c0601c83613bc3565b91506159cb8261598a565b602082019050919050565b600060208201905081810360008301526159ef816159b3565b905091905056fea2646970667358221220e3aea2dcf3828a9ed9ca0255aad465ed1fbc7bec31e4d4d7ca90280240f3142f64736f6c63430008110033",
  "immutableReferences": {},
  "source": "//SPDX-License-Identifier: MIT\npragma solidity ^0.8.17;\n\nimport \"@openzeppelin/contracts/token/ERC721/ERC721.sol\";\nimport \"@openzeppelin/contracts/access/Ownable.sol\";\nimport \"@openzeppelin/contracts/utils/math/SafeMath.sol\";\nimport \"@openzeppelin/contracts/utils/Strings.sol\";\nimport \"@openzeppelin/contracts/security/ReentrancyGuard.sol\";\n\ncontract NineSeals is ERC721,Ownable,ReentrancyGuard{\n\n    using SafeMath for uint256;\n\n    uint64 public constant DEFAULT_MAX_BATCH_SIZE = 5;\n    uint64 public constant DEFAULT_COLLECTION_SIZE = 10000;\n\n    uint8 private constant SALE_STATUS_NOT_STARTED = 0;\n    uint8 private constant SALE_STATUS_ALLOWLIST = 1;\n    uint8 private constant SALE_STATUS_PUBLIC = 2;\n    uint8 private constant SALE_STATUS_DONE = 3;\n    uint8 private constant SALE_STATUS_PAUSED = 4;\n\n    // uint8 public constant MAX_WL_PURCHASE_TOKENS = 3;\n    // uint8 public constant MAX_PUBLIC_PURCHASE_TOKENS = 5;    \n    // // uint16 public constant MAX_TOKENS = 444;    \n    // uint32 public PRESALE_DURATION = 1 days;\n\n    bool private _mintPaused;\n\n    uint64 private _tokenCounter;\n\n    uint64 public _totalAllowedTokens;\n\n    string private _baseTokenURI;\n    \n    // uint256 public preSaleStartTimestamp;\n\n    // bytes32 private merkleRootOne =\n    //     0xc891c5b4634598d1ed7cf4a3743ca20a33fc03bb10bcd7c45fe801e1434ba356;\n\n    struct SaleConfig {\n        uint16 maxBatchSize;\n        uint32 saleKey;\n        uint32 saleStartTime;\n        uint256 salePrice;        \n    }\n\n    SaleConfig public allowlistSaleConfig;\n\n    SaleConfig public publicSaleConfig;\n\n    struct Mintoor {  \n        uint128 tokenBalance;  \n        uint128 maxAllowlistTokens; \n        uint128 allowlistBalance; \n        uint128 maxPublicSaleTokens;\n    }\n\n    mapping(address => Mintoor) public mintoors;\n    \n    constructor( \n        string memory name, \n        string memory symbol\n    ) ERC721(name, symbol) ReentrancyGuard(){\n        _tokenCounter = 0;\n        _totalAllowedTokens = DEFAULT_COLLECTION_SIZE;\n        // _baseTokenURI = initialURI;\n    }\n\n    modifier callerIsUser() {\n        require(tx.origin == msg.sender, \"The caller is another contract\");\n        _;\n    }\n\n    // Mint: Allowlist\n    function allowlistMint(uint256 quantity) external payable callerIsUser {\n        SaleConfig memory config = allowlistSaleConfig;        \n        uint256 salePrice = uint256(config.salePrice);\n        Mintoor memory mintoor = mintoors[msg.sender];\n        \n        require(!isMintPaused(), \"mint is paused\");\n        require(isAllowlistSaleOn(), \"allowlist sale has not begun yet\");\n        require(mintoor.maxAllowlistTokens > 0, \"not eligible for allowlist mint\");\n        require(totalSupply() + quantity <= _totalAllowedTokens, \"reached max supply\");\n        require(quantity <= allowlistTokensRemaining(msg.sender), \"you have exceeded the max number of allowlist tokens you can mint\");\n        require(msg.value >= salePrice.mul(quantity), \"not enough ether to complete purchase.\");\n\n        for(uint256 i = 0; i < quantity; i++) {\n            _safeMint(msg.sender, _tokenCounter);\n            _tokenCounter++;\n        }\n\n        mintoors[msg.sender].tokenBalance += uint128(quantity);\n        mintoors[msg.sender].allowlistBalance += uint128(quantity);\n    }\n\n    // Mint: Public\n    function publicSaleMint(uint256 quantity, uint256 callerPublicSaleKey) external payable callerIsUser {\n        SaleConfig memory config = publicSaleConfig;\n        uint256 saleKey = uint256(config.saleKey);\n        uint256 salePrice = uint256(config.salePrice);\n        \n        require(saleKey == callerPublicSaleKey, \"called with incorrect public sale key\");\n        require(!isMintPaused(), \"mint is paused\");\n        require(isPublicSaleOn(), \"public sale has not begun yet\");\n        require(totalSupply() + quantity <= _totalAllowedTokens, \"reached max supply\");\n        require(quantity <= publicSaleTokensRemaining(msg.sender), \"you have exceeded the max number of tokens you can mint\");\n        require(msg.value >= salePrice.mul(quantity), \"not enough ether to complete purchase.\");\n\n        for(uint256 i = 0; i < quantity; i++) {\n            _safeMint(msg.sender, _tokenCounter);\n            _tokenCounter++;\n        }\n\n        mintoors[msg.sender].tokenBalance += uint128(quantity);\n    }\n\n    function seedAllowlist(address[] memory addresses, uint256[] memory numSlots) external onlyOwner {\n        require(addresses.length == numSlots.length, \"addresses does not match numSlots length\");\n        for (uint256 i = 0; i < addresses.length; i++) {\n            mintoors[addresses[i]].maxAllowlistTokens = uint128(numSlots[i]);\n        }\n    }\n\n    function initializeAllowlistSale(uint16 maxBatchSize, uint256 salePrice, uint32 saleStartTime) external onlyOwner {\n        allowlistSaleConfig.maxBatchSize = maxBatchSize;\n        allowlistSaleConfig.saleStartTime = saleStartTime;\n        allowlistSaleConfig.salePrice = salePrice;\n    }\n\n    function initializePublicSale(uint16 maxBatchSize, uint256 salePrice, uint32 saleStartTime, uint32 saleKey) external onlyOwner {\n        publicSaleConfig.maxBatchSize = maxBatchSize;\n        publicSaleConfig.saleKey = saleKey;\n        publicSaleConfig.saleStartTime = saleStartTime;\n        publicSaleConfig.salePrice = salePrice;\n    }\n\n    function setCollectionSize(uint256 collectionSize) external onlyOwner {\n        require(collectionSize >= totalSupply(), \"cannot make collection size smaller than supply\");\n        _totalAllowedTokens = uint64(collectionSize);\n    }\n\n    function totalSupply() public view returns (uint256) {\n        return _tokenCounter;\n    }\n\n    \n    function _baseURI() internal view virtual override returns (string memory) {\n        return _baseTokenURI;\n    }\n\n    function setBaseURI(string calldata baseURI) external onlyOwner {\n        _baseTokenURI = baseURI;\n    }\n\n    function withdrawMoney() external onlyOwner nonReentrant {\n        (bool success, ) = msg.sender.call{value: address(this).balance}(\"\");\n        require(success, \"Transfer failed.\");\n    }\n\n    function collectionSize() public view returns (uint256) {\n        return _totalAllowedTokens;\n    }\n    \n    function numberMinted(address owner) public view returns (uint256) {\n        return uint256(mintoors[owner].tokenBalance);\n    }\n\n    function maxMintableTokens(address owner) public view returns (uint256) {\n        return allowlistSlots(owner) + publicSaleSlots(owner);\n    }\n\n    function publicSaleSlots(address owner) public view returns (uint256) {\n        Mintoor memory mintoor = mintoors[owner];\n        return mintoor.maxPublicSaleTokens != 0 ? uint256(mintoor.maxPublicSaleTokens) : uint256(DEFAULT_MAX_BATCH_SIZE);\n    }\n\n    function publicSaleTokensRemaining(address owner) public view returns (uint256) {\n        return maxMintableTokens(owner) - numberMinted(owner);\n    }\n\n    function allowlistSlots(address owner) public view returns (uint256) {\n        return uint256(mintoors[owner].maxAllowlistTokens);\n    }\n\n    function allowlistTokensRemaining(address owner) public view returns (uint256) {\n        Mintoor memory mintoor = mintoors[owner];\n        return uint256(mintoor.maxAllowlistTokens) - uint256(mintoor.allowlistBalance);\n    }\n\n    function getAllowlistSaleDuration() public view returns (uint256) {\n        SaleConfig memory config = allowlistSaleConfig; \n        return block.timestamp - config.saleStartTime;\n    }\n\n    function getSaleStatus() public view returns (uint8) {\n        if (isSaleClosed()) {\n            return SALE_STATUS_DONE;\n        } else if (isMintPaused()) {\n            return SALE_STATUS_PAUSED;\n        } else if (isPublicSaleOn()) {\n            return SALE_STATUS_PUBLIC;\n        } else if (isAllowlistSaleOn()) {\n            return SALE_STATUS_ALLOWLIST;\n        } else {\n            return SALE_STATUS_NOT_STARTED;\n        }\n    }\n\n    function isAllowlistSaleOn() public view returns (bool) {\n        SaleConfig memory config = allowlistSaleConfig; \n        return !isPublicSaleOn() && config.saleStartTime > 0 && block.timestamp >= config.saleStartTime;\n    }\n\n    function isPublicSaleOn() public view returns (bool) {\n        SaleConfig memory config = publicSaleConfig; \n        return config.saleStartTime > 0 && block.timestamp >= config.saleStartTime;\n    }\n\n    function isSaleClosed() public view returns (bool) {\n        return totalSupply() > 0 && totalSupply() >= collectionSize();\n    }\n\n    function isMintPaused() public view returns (bool) {\n        return _mintPaused;\n    }\n\n    function pauseMint(bool isPaused) external onlyOwner {\n        _mintPaused = isPaused;\n    }\n\n    function getMintPrice() public view returns (uint256) {\n        if (isPublicSaleOn()) {\n           return publicSaleConfig.salePrice;\n        } else if (isAllowlistSaleOn()) {\n            return allowlistSaleConfig.salePrice;\n        } else {\n            return 0;\n        }\n    }\n}",
  "sourcePath": "/Users/bash/Sites/crypto/ethereum/nine-seals/contracts/NineSeals.sol",
  "compiler": {
    "name": "solc",
    "version": "0.8.17+commit.8df45f5f.Emscripten.clang"
  },
  "schemaVersion": "3.4.11",
  "updatedAt": "2023-01-15T06:42:25.709Z",
  "networkType": "ethereum",
  "devdoc": {
    "kind": "dev",
    "methods": {
      "approve(address,uint256)": {
        "details": "See {IERC721-approve}."
      },
      "balanceOf(address)": {
        "details": "See {IERC721-balanceOf}."
      },
      "getApproved(uint256)": {
        "details": "See {IERC721-getApproved}."
      },
      "isApprovedForAll(address,address)": {
        "details": "See {IERC721-isApprovedForAll}."
      },
      "name()": {
        "details": "See {IERC721Metadata-name}."
      },
      "owner()": {
        "details": "Returns the address of the current owner."
      },
      "ownerOf(uint256)": {
        "details": "See {IERC721-ownerOf}."
      },
      "renounceOwnership()": {
        "details": "Leaves the contract without owner. It will not be possible to call `onlyOwner` functions anymore. Can only be called by the current owner. NOTE: Renouncing ownership will leave the contract without an owner, thereby removing any functionality that is only available to the owner."
      },
      "safeTransferFrom(address,address,uint256)": {
        "details": "See {IERC721-safeTransferFrom}."
      },
      "safeTransferFrom(address,address,uint256,bytes)": {
        "details": "See {IERC721-safeTransferFrom}."
      },
      "setApprovalForAll(address,bool)": {
        "details": "See {IERC721-setApprovalForAll}."
      },
      "supportsInterface(bytes4)": {
        "details": "See {IERC165-supportsInterface}."
      },
      "symbol()": {
        "details": "See {IERC721Metadata-symbol}."
      },
      "tokenURI(uint256)": {
        "details": "See {IERC721Metadata-tokenURI}."
      },
      "transferFrom(address,address,uint256)": {
        "details": "See {IERC721-transferFrom}."
      },
      "transferOwnership(address)": {
        "details": "Transfers ownership of the contract to a new account (`newOwner`). Can only be called by the current owner."
      }
    },
    "version": 1
  },
  "userdoc": {
    "kind": "user",
    "methods": {},
    "version": 1
  }
}